{
	"Hackathon/SweatToken.sol": {
		"SweatToken": {
			"abi": [
				{
					"inputs": [
						{
							"internalType": "uint256",
							"name": "initialSupply",
							"type": "uint256"
						}
					],
					"stateMutability": "nonpayable",
					"type": "constructor"
				},
				{
					"anonymous": false,
					"inputs": [
						{
							"indexed": false,
							"internalType": "uint256",
							"name": "priceInUSD",
							"type": "uint256"
						}
					],
					"name": "PriceUpdate",
					"type": "event"
				},
				{
					"anonymous": false,
					"inputs": [
						{
							"indexed": true,
							"internalType": "address",
							"name": "from",
							"type": "address"
						},
						{
							"indexed": true,
							"internalType": "address",
							"name": "to",
							"type": "address"
						},
						{
							"indexed": false,
							"internalType": "uint256",
							"name": "value",
							"type": "uint256"
						}
					],
					"name": "Transfer",
					"type": "event"
				},
				{
					"inputs": [
						{
							"internalType": "address",
							"name": "",
							"type": "address"
						}
					],
					"name": "balanceOf",
					"outputs": [
						{
							"internalType": "uint256",
							"name": "",
							"type": "uint256"
						}
					],
					"stateMutability": "view",
					"type": "function"
				},
				{
					"inputs": [],
					"name": "decimals",
					"outputs": [
						{
							"internalType": "uint8",
							"name": "",
							"type": "uint8"
						}
					],
					"stateMutability": "view",
					"type": "function"
				},
				{
					"inputs": [],
					"name": "getETHPriceInUSD",
					"outputs": [
						{
							"internalType": "int256",
							"name": "",
							"type": "int256"
						}
					],
					"stateMutability": "view",
					"type": "function"
				},
				{
					"inputs": [],
					"name": "getSweatPriceInUSD",
					"outputs": [
						{
							"internalType": "uint256",
							"name": "",
							"type": "uint256"
						}
					],
					"stateMutability": "view",
					"type": "function"
				},
				{
					"inputs": [],
					"name": "name",
					"outputs": [
						{
							"internalType": "string",
							"name": "",
							"type": "string"
						}
					],
					"stateMutability": "view",
					"type": "function"
				},
				{
					"inputs": [],
					"name": "owner",
					"outputs": [
						{
							"internalType": "address",
							"name": "",
							"type": "address"
						}
					],
					"stateMutability": "view",
					"type": "function"
				},
				{
					"inputs": [],
					"name": "symbol",
					"outputs": [
						{
							"internalType": "string",
							"name": "",
							"type": "string"
						}
					],
					"stateMutability": "view",
					"type": "function"
				},
				{
					"inputs": [],
					"name": "totalSupply",
					"outputs": [
						{
							"internalType": "uint256",
							"name": "",
							"type": "uint256"
						}
					],
					"stateMutability": "view",
					"type": "function"
				},
				{
					"inputs": [
						{
							"internalType": "address",
							"name": "to",
							"type": "address"
						},
						{
							"internalType": "uint256",
							"name": "value",
							"type": "uint256"
						}
					],
					"name": "transfer",
					"outputs": [
						{
							"internalType": "bool",
							"name": "",
							"type": "bool"
						}
					],
					"stateMutability": "nonpayable",
					"type": "function"
				},
				{
					"inputs": [],
					"name": "updateSweatPrice",
					"outputs": [],
					"stateMutability": "nonpayable",
					"type": "function"
				}
			],
			"devdoc": {
				"kind": "dev",
				"methods": {},
				"version": 1
			},
			"evm": {
				"assembly": "    /* \"Hackathon/SweatToken.sol\":198:2722  contract SweatToken {... */\n  mstore(0x40, 0x80)\n    /* \"Hackathon/SweatToken.sol\":225:259  string public name = \"Sweat Token\" */\n  mload(0x40)\n  dup1\n  0x40\n  add\n  0x40\n  mstore\n  dup1\n  0x0b\n  dup2\n  mstore\n  0x20\n  add\n  0x537765617420546f6b656e000000000000000000000000000000000000000000\n  dup2\n  mstore\n  pop\n  0x00\n  swap1\n  dup2\n  tag_1\n  swap2\n  swap1\n  tag_2\n  jump\t// in\ntag_1:\n  pop\n    /* \"Hackathon/SweatToken.sol\":266:296  string public symbol = \"SWEAT\" */\n  mload(0x40)\n  dup1\n  0x40\n  add\n  0x40\n  mstore\n  dup1\n  0x05\n  dup2\n  mstore\n  0x20\n  add\n  0x5357454154000000000000000000000000000000000000000000000000000000\n  dup2\n  mstore\n  pop\n  0x01\n  swap1\n  dup2\n  tag_3\n  swap2\n  swap1\n  tag_2\n  jump\t// in\ntag_3:\n  pop\n    /* \"Hackathon/SweatToken.sol\":327:329  18 */\n  0x12\n    /* \"Hackathon/SweatToken.sol\":303:329  uint8 public decimals = 18 */\n  0x02\n  exp(0x0100, 0x00)\n  dup2\n  sload\n  dup2\n  0xff\n  mul\n  not\n  and\n  swap1\n  dup4\n  0xff\n  and\n  mul\n  or\n  swap1\n  sstore\n  pop\n    /* \"Hackathon/SweatToken.sol\":763:1149  constructor(uint256 initialSupply) {... */\n  callvalue\n  dup1\n  iszero\n  tag_4\n  jumpi\n  0x00\n  dup1\n  revert\ntag_4:\n  pop\n  mload(0x40)\n  sub(codesize, bytecodeSize)\n  dup1\n  bytecodeSize\n  dup4\n  codecopy\n  dup2\n  dup2\n  add\n  0x40\n  mstore\n  dup2\n  add\n  swap1\n  tag_5\n  swap2\n  swap1\n  tag_6\n  jump\t// in\ntag_5:\n    /* \"Hackathon/SweatToken.sol\":853:861  decimals */\n  0x02\n  0x00\n  swap1\n  sload\n  swap1\n  0x0100\n  exp\n  swap1\n  div\n  0xff\n  and\n    /* \"Hackathon/SweatToken.sol\":845:862  uint256(decimals) */\n  0xff\n  and\n    /* \"Hackathon/SweatToken.sol\":839:841  10 */\n  0x0a\n    /* \"Hackathon/SweatToken.sol\":839:862  10 ** uint256(decimals) */\n  tag_9\n  swap2\n  swap1\n  tag_10\n  jump\t// in\ntag_9:\n    /* \"Hackathon/SweatToken.sol\":823:836  initialSupply */\n  dup2\n    /* \"Hackathon/SweatToken.sol\":823:862  initialSupply * 10 ** uint256(decimals) */\n  tag_11\n  swap2\n  swap1\n  tag_12\n  jump\t// in\ntag_11:\n    /* \"Hackathon/SweatToken.sol\":809:820  totalSupply */\n  0x03\n    /* \"Hackathon/SweatToken.sol\":809:862  totalSupply = initialSupply * 10 ** uint256(decimals) */\n  dup2\n  swap1\n  sstore\n  pop\n    /* \"Hackathon/SweatToken.sol\":897:908  totalSupply */\n  sload(0x03)\n    /* \"Hackathon/SweatToken.sol\":873:882  balanceOf */\n  0x05\n    /* \"Hackathon/SweatToken.sol\":873:894  balanceOf[msg.sender] */\n  0x00\n    /* \"Hackathon/SweatToken.sol\":883:893  msg.sender */\n  caller\n    /* \"Hackathon/SweatToken.sol\":873:894  balanceOf[msg.sender] */\n  0xffffffffffffffffffffffffffffffffffffffff\n  and\n  0xffffffffffffffffffffffffffffffffffffffff\n  and\n  dup2\n  mstore\n  0x20\n  add\n  swap1\n  dup2\n  mstore\n  0x20\n  add\n  0x00\n  keccak256\n    /* \"Hackathon/SweatToken.sol\":873:908  balanceOf[msg.sender] = totalSupply */\n  dup2\n  swap1\n  sstore\n  pop\n    /* \"Hackathon/SweatToken.sol\":979:989  msg.sender */\n  caller\n    /* \"Hackathon/SweatToken.sol\":971:976  owner */\n  0x04\n  0x00\n    /* \"Hackathon/SweatToken.sol\":971:989  owner = msg.sender */\n  0x0100\n  exp\n  dup2\n  sload\n  dup2\n  0xffffffffffffffffffffffffffffffffffffffff\n  mul\n  not\n  and\n  swap1\n  dup4\n  0xffffffffffffffffffffffffffffffffffffffff\n  and\n  mul\n  or\n  swap1\n  sstore\n  pop\n    /* \"Hackathon/SweatToken.sol\":1098:1140  0x9326BFA02ADD2366b30bacB125260Af641031331 */\n  0x9326bfa02add2366b30bacb125260af641031331\n    /* \"Hackathon/SweatToken.sol\":1064:1073  priceFeed */\n  0x06\n  0x00\n    /* \"Hackathon/SweatToken.sol\":1064:1141  priceFeed = AggregatorV3Interface(0x9326BFA02ADD2366b30bacB125260Af641031331) */\n  0x0100\n  exp\n  dup2\n  sload\n  dup2\n  0xffffffffffffffffffffffffffffffffffffffff\n  mul\n  not\n  and\n  swap1\n  dup4\n  0xffffffffffffffffffffffffffffffffffffffff\n  and\n  mul\n  or\n  swap1\n  sstore\n  pop\n    /* \"Hackathon/SweatToken.sol\":763:1149  constructor(uint256 initialSupply) {... */\n  pop\n    /* \"Hackathon/SweatToken.sol\":198:2722  contract SweatToken {... */\n  jump(tag_13)\n    /* \"#utility.yul\":7:106   */\ntag_14:\n    /* \"#utility.yul\":59:65   */\n  0x00\n    /* \"#utility.yul\":93:98   */\n  dup2\n    /* \"#utility.yul\":87:99   */\n  mload\n    /* \"#utility.yul\":77:99   */\n  swap1\n  pop\n    /* \"#utility.yul\":7:106   */\n  swap2\n  swap1\n  pop\n  jump\t// out\n    /* \"#utility.yul\":112:292   */\ntag_15:\n    /* \"#utility.yul\":160:237   */\n  0x4e487b7100000000000000000000000000000000000000000000000000000000\n    /* \"#utility.yul\":157:158   */\n  0x00\n    /* \"#utility.yul\":150:238   */\n  mstore\n    /* \"#utility.yul\":257:261   */\n  0x41\n    /* \"#utility.yul\":254:255   */\n  0x04\n    /* \"#utility.yul\":247:262   */\n  mstore\n    /* \"#utility.yul\":281:285   */\n  0x24\n    /* \"#utility.yul\":278:279   */\n  0x00\n    /* \"#utility.yul\":271:286   */\n  revert\n    /* \"#utility.yul\":298:478   */\ntag_16:\n    /* \"#utility.yul\":346:423   */\n  0x4e487b7100000000000000000000000000000000000000000000000000000000\n    /* \"#utility.yul\":343:344   */\n  0x00\n    /* \"#utility.yul\":336:424   */\n  mstore\n    /* \"#utility.yul\":443:447   */\n  0x22\n    /* \"#utility.yul\":440:441   */\n  0x04\n    /* \"#utility.yul\":433:448   */\n  mstore\n    /* \"#utility.yul\":467:471   */\n  0x24\n    /* \"#utility.yul\":464:465   */\n  0x00\n    /* \"#utility.yul\":457:472   */\n  revert\n    /* \"#utility.yul\":484:804   */\ntag_17:\n    /* \"#utility.yul\":528:534   */\n  0x00\n    /* \"#utility.yul\":565:566   */\n  0x02\n    /* \"#utility.yul\":559:563   */\n  dup3\n    /* \"#utility.yul\":555:567   */\n  div\n    /* \"#utility.yul\":545:567   */\n  swap1\n  pop\n    /* \"#utility.yul\":612:613   */\n  0x01\n    /* \"#utility.yul\":606:610   */\n  dup3\n    /* \"#utility.yul\":602:614   */\n  and\n    /* \"#utility.yul\":633:651   */\n  dup1\n    /* \"#utility.yul\":623:704   */\n  tag_48\n  jumpi\n    /* \"#utility.yul\":689:693   */\n  0x7f\n    /* \"#utility.yul\":681:687   */\n  dup3\n    /* \"#utility.yul\":677:694   */\n  and\n    /* \"#utility.yul\":667:694   */\n  swap2\n  pop\n    /* \"#utility.yul\":623:704   */\ntag_48:\n    /* \"#utility.yul\":751:753   */\n  0x20\n    /* \"#utility.yul\":743:749   */\n  dup3\n    /* \"#utility.yul\":740:754   */\n  lt\n    /* \"#utility.yul\":720:738   */\n  dup2\n    /* \"#utility.yul\":717:755   */\n  sub\n    /* \"#utility.yul\":714:798   */\n  tag_49\n  jumpi\n    /* \"#utility.yul\":770:788   */\n  tag_50\n  tag_16\n  jump\t// in\ntag_50:\n    /* \"#utility.yul\":714:798   */\ntag_49:\n    /* \"#utility.yul\":535:804   */\n  pop\n    /* \"#utility.yul\":484:804   */\n  swap2\n  swap1\n  pop\n  jump\t// out\n    /* \"#utility.yul\":810:951   */\ntag_18:\n    /* \"#utility.yul\":859:863   */\n  0x00\n    /* \"#utility.yul\":882:885   */\n  dup2\n    /* \"#utility.yul\":874:885   */\n  swap1\n  pop\n    /* \"#utility.yul\":905:908   */\n  dup2\n    /* \"#utility.yul\":902:903   */\n  0x00\n    /* \"#utility.yul\":895:909   */\n  mstore\n    /* \"#utility.yul\":939:943   */\n  0x20\n    /* \"#utility.yul\":936:937   */\n  0x00\n    /* \"#utility.yul\":926:944   */\n  keccak256\n    /* \"#utility.yul\":918:944   */\n  swap1\n  pop\n    /* \"#utility.yul\":810:951   */\n  swap2\n  swap1\n  pop\n  jump\t// out\n    /* \"#utility.yul\":957:1050   */\ntag_19:\n    /* \"#utility.yul\":994:1000   */\n  0x00\n    /* \"#utility.yul\":1041:1043   */\n  0x20\n    /* \"#utility.yul\":1036:1038   */\n  0x1f\n    /* \"#utility.yul\":1029:1034   */\n  dup4\n    /* \"#utility.yul\":1025:1039   */\n  add\n    /* \"#utility.yul\":1021:1044   */\n  div\n    /* \"#utility.yul\":1011:1044   */\n  swap1\n  pop\n    /* \"#utility.yul\":957:1050   */\n  swap2\n  swap1\n  pop\n  jump\t// out\n    /* \"#utility.yul\":1056:1163   */\ntag_20:\n    /* \"#utility.yul\":1100:1108   */\n  0x00\n    /* \"#utility.yul\":1150:1155   */\n  dup3\n    /* \"#utility.yul\":1144:1148   */\n  dup3\n    /* \"#utility.yul\":1140:1156   */\n  shl\n    /* \"#utility.yul\":1119:1156   */\n  swap1\n  pop\n    /* \"#utility.yul\":1056:1163   */\n  swap3\n  swap2\n  pop\n  pop\n  jump\t// out\n    /* \"#utility.yul\":1169:1562   */\ntag_21:\n    /* \"#utility.yul\":1238:1244   */\n  0x00\n    /* \"#utility.yul\":1288:1289   */\n  0x08\n    /* \"#utility.yul\":1276:1286   */\n  dup4\n    /* \"#utility.yul\":1272:1290   */\n  mul\n    /* \"#utility.yul\":1311:1408   */\n  tag_55\n    /* \"#utility.yul\":1341:1407   */\n  0xffffffffffffffffffffffffffffffffffffffffffffffffffffffffffffffff\n    /* \"#utility.yul\":1330:1339   */\n  dup3\n    /* \"#utility.yul\":1311:1408   */\n  tag_20\n  jump\t// in\ntag_55:\n    /* \"#utility.yul\":1429:1468   */\n  tag_56\n    /* \"#utility.yul\":1459:1467   */\n  dup7\n    /* \"#utility.yul\":1448:1457   */\n  dup4\n    /* \"#utility.yul\":1429:1468   */\n  tag_20\n  jump\t// in\ntag_56:\n    /* \"#utility.yul\":1417:1468   */\n  swap6\n  pop\n    /* \"#utility.yul\":1501:1505   */\n  dup1\n    /* \"#utility.yul\":1497:1506   */\n  not\n    /* \"#utility.yul\":1490:1495   */\n  dup5\n    /* \"#utility.yul\":1486:1507   */\n  and\n    /* \"#utility.yul\":1477:1507   */\n  swap4\n  pop\n    /* \"#utility.yul\":1550:1554   */\n  dup1\n    /* \"#utility.yul\":1540:1548   */\n  dup7\n    /* \"#utility.yul\":1536:1555   */\n  and\n    /* \"#utility.yul\":1529:1534   */\n  dup5\n    /* \"#utility.yul\":1526:1556   */\n  or\n    /* \"#utility.yul\":1516:1556   */\n  swap3\n  pop\n    /* \"#utility.yul\":1245:1562   */\n  pop\n  pop\n    /* \"#utility.yul\":1169:1562   */\n  swap4\n  swap3\n  pop\n  pop\n  pop\n  jump\t// out\n    /* \"#utility.yul\":1568:1645   */\ntag_22:\n    /* \"#utility.yul\":1605:1612   */\n  0x00\n    /* \"#utility.yul\":1634:1639   */\n  dup2\n    /* \"#utility.yul\":1623:1639   */\n  swap1\n  pop\n    /* \"#utility.yul\":1568:1645   */\n  swap2\n  swap1\n  pop\n  jump\t// out\n    /* \"#utility.yul\":1651:1711   */\ntag_23:\n    /* \"#utility.yul\":1679:1682   */\n  0x00\n    /* \"#utility.yul\":1700:1705   */\n  dup2\n    /* \"#utility.yul\":1693:1705   */\n  swap1\n  pop\n    /* \"#utility.yul\":1651:1711   */\n  swap2\n  swap1\n  pop\n  jump\t// out\n    /* \"#utility.yul\":1717:1859   */\ntag_24:\n    /* \"#utility.yul\":1767:1776   */\n  0x00\n    /* \"#utility.yul\":1800:1853   */\n  tag_60\n    /* \"#utility.yul\":1818:1852   */\n  tag_61\n    /* \"#utility.yul\":1827:1851   */\n  tag_62\n    /* \"#utility.yul\":1845:1850   */\n  dup5\n    /* \"#utility.yul\":1827:1851   */\n  tag_22\n  jump\t// in\ntag_62:\n    /* \"#utility.yul\":1818:1852   */\n  tag_23\n  jump\t// in\ntag_61:\n    /* \"#utility.yul\":1800:1853   */\n  tag_22\n  jump\t// in\ntag_60:\n    /* \"#utility.yul\":1787:1853   */\n  swap1\n  pop\n    /* \"#utility.yul\":1717:1859   */\n  swap2\n  swap1\n  pop\n  jump\t// out\n    /* \"#utility.yul\":1865:1940   */\ntag_25:\n    /* \"#utility.yul\":1908:1911   */\n  0x00\n    /* \"#utility.yul\":1929:1934   */\n  dup2\n    /* \"#utility.yul\":1922:1934   */\n  swap1\n  pop\n    /* \"#utility.yul\":1865:1940   */\n  swap2\n  swap1\n  pop\n  jump\t// out\n    /* \"#utility.yul\":1946:2215   */\ntag_26:\n    /* \"#utility.yul\":2056:2095   */\n  tag_65\n    /* \"#utility.yul\":2087:2094   */\n  dup4\n    /* \"#utility.yul\":2056:2095   */\n  tag_24\n  jump\t// in\ntag_65:\n    /* \"#utility.yul\":2117:2208   */\n  tag_66\n    /* \"#utility.yul\":2166:2207   */\n  tag_67\n    /* \"#utility.yul\":2190:2206   */\n  dup3\n    /* \"#utility.yul\":2166:2207   */\n  tag_25\n  jump\t// in\ntag_67:\n    /* \"#utility.yul\":2158:2164   */\n  dup5\n    /* \"#utility.yul\":2151:2155   */\n  dup5\n    /* \"#utility.yul\":2145:2156   */\n  sload\n    /* \"#utility.yul\":2117:2208   */\n  tag_21\n  jump\t// in\ntag_66:\n    /* \"#utility.yul\":2111:2115   */\n  dup3\n    /* \"#utility.yul\":2104:2209   */\n  sstore\n    /* \"#utility.yul\":2022:2215   */\n  pop\n    /* \"#utility.yul\":1946:2215   */\n  pop\n  pop\n  pop\n  jump\t// out\n    /* \"#utility.yul\":2221:2294   */\ntag_27:\n    /* \"#utility.yul\":2266:2269   */\n  0x00\n    /* \"#utility.yul\":2221:2294   */\n  swap1\n  jump\t// out\n    /* \"#utility.yul\":2300:2489   */\ntag_28:\n    /* \"#utility.yul\":2377:2409   */\n  tag_70\n  tag_27\n  jump\t// in\ntag_70:\n    /* \"#utility.yul\":2418:2483   */\n  tag_71\n    /* \"#utility.yul\":2476:2482   */\n  dup2\n    /* \"#utility.yul\":2468:2474   */\n  dup5\n    /* \"#utility.yul\":2462:2466   */\n  dup5\n    /* \"#utility.yul\":2418:2483   */\n  tag_26\n  jump\t// in\ntag_71:\n    /* \"#utility.yul\":2353:2489   */\n  pop\n    /* \"#utility.yul\":2300:2489   */\n  pop\n  pop\n  jump\t// out\n    /* \"#utility.yul\":2495:2681   */\ntag_29:\n    /* \"#utility.yul\":2555:2675   */\ntag_73:\n    /* \"#utility.yul\":2572:2575   */\n  dup2\n    /* \"#utility.yul\":2565:2570   */\n  dup2\n    /* \"#utility.yul\":2562:2576   */\n  lt\n    /* \"#utility.yul\":2555:2675   */\n  iszero\n  tag_75\n  jumpi\n    /* \"#utility.yul\":2626:2665   */\n  tag_76\n    /* \"#utility.yul\":2663:2664   */\n  0x00\n    /* \"#utility.yul\":2656:2661   */\n  dup3\n    /* \"#utility.yul\":2626:2665   */\n  tag_28\n  jump\t// in\ntag_76:\n    /* \"#utility.yul\":2599:2600   */\n  0x01\n    /* \"#utility.yul\":2592:2597   */\n  dup2\n    /* \"#utility.yul\":2588:2601   */\n  add\n    /* \"#utility.yul\":2579:2601   */\n  swap1\n  pop\n    /* \"#utility.yul\":2555:2675   */\n  jump(tag_73)\ntag_75:\n    /* \"#utility.yul\":2495:2681   */\n  pop\n  pop\n  jump\t// out\n    /* \"#utility.yul\":2687:3230   */\ntag_30:\n    /* \"#utility.yul\":2788:2790   */\n  0x1f\n    /* \"#utility.yul\":2783:2786   */\n  dup3\n    /* \"#utility.yul\":2780:2791   */\n  gt\n    /* \"#utility.yul\":2777:3223   */\n  iszero\n  tag_78\n  jumpi\n    /* \"#utility.yul\":2822:2860   */\n  tag_79\n    /* \"#utility.yul\":2854:2859   */\n  dup2\n    /* \"#utility.yul\":2822:2860   */\n  tag_18\n  jump\t// in\ntag_79:\n    /* \"#utility.yul\":2906:2935   */\n  tag_80\n    /* \"#utility.yul\":2924:2934   */\n  dup5\n    /* \"#utility.yul\":2906:2935   */\n  tag_19\n  jump\t// in\ntag_80:\n    /* \"#utility.yul\":2896:2904   */\n  dup2\n    /* \"#utility.yul\":2892:2936   */\n  add\n    /* \"#utility.yul\":3089:3091   */\n  0x20\n    /* \"#utility.yul\":3077:3087   */\n  dup6\n    /* \"#utility.yul\":3074:3092   */\n  lt\n    /* \"#utility.yul\":3071:3120   */\n  iszero\n  tag_81\n  jumpi\n    /* \"#utility.yul\":3110:3118   */\n  dup2\n    /* \"#utility.yul\":3095:3118   */\n  swap1\n  pop\n    /* \"#utility.yul\":3071:3120   */\ntag_81:\n    /* \"#utility.yul\":3133:3213   */\n  tag_82\n    /* \"#utility.yul\":3189:3211   */\n  tag_83\n    /* \"#utility.yul\":3207:3210   */\n  dup6\n    /* \"#utility.yul\":3189:3211   */\n  tag_19\n  jump\t// in\ntag_83:\n    /* \"#utility.yul\":3179:3187   */\n  dup4\n    /* \"#utility.yul\":3175:3212   */\n  add\n    /* \"#utility.yul\":3162:3173   */\n  dup3\n    /* \"#utility.yul\":3133:3213   */\n  tag_29\n  jump\t// in\ntag_82:\n    /* \"#utility.yul\":2792:3223   */\n  pop\n  pop\n    /* \"#utility.yul\":2777:3223   */\ntag_78:\n    /* \"#utility.yul\":2687:3230   */\n  pop\n  pop\n  pop\n  jump\t// out\n    /* \"#utility.yul\":3236:3353   */\ntag_31:\n    /* \"#utility.yul\":3290:3298   */\n  0x00\n    /* \"#utility.yul\":3340:3345   */\n  dup3\n    /* \"#utility.yul\":3334:3338   */\n  dup3\n    /* \"#utility.yul\":3330:3346   */\n  shr\n    /* \"#utility.yul\":3309:3346   */\n  swap1\n  pop\n    /* \"#utility.yul\":3236:3353   */\n  swap3\n  swap2\n  pop\n  pop\n  jump\t// out\n    /* \"#utility.yul\":3359:3528   */\ntag_32:\n    /* \"#utility.yul\":3403:3409   */\n  0x00\n    /* \"#utility.yul\":3436:3487   */\n  tag_86\n    /* \"#utility.yul\":3484:3485   */\n  0x00\n    /* \"#utility.yul\":3480:3486   */\n  not\n    /* \"#utility.yul\":3472:3477   */\n  dup5\n    /* \"#utility.yul\":3469:3470   */\n  0x08\n    /* \"#utility.yul\":3465:3478   */\n  mul\n    /* \"#utility.yul\":3436:3487   */\n  tag_31\n  jump\t// in\ntag_86:\n    /* \"#utility.yul\":3432:3488   */\n  not\n    /* \"#utility.yul\":3517:3521   */\n  dup1\n    /* \"#utility.yul\":3511:3515   */\n  dup4\n    /* \"#utility.yul\":3507:3522   */\n  and\n    /* \"#utility.yul\":3497:3522   */\n  swap2\n  pop\n    /* \"#utility.yul\":3410:3528   */\n  pop\n    /* \"#utility.yul\":3359:3528   */\n  swap3\n  swap2\n  pop\n  pop\n  jump\t// out\n    /* \"#utility.yul\":3533:3828   */\ntag_33:\n    /* \"#utility.yul\":3609:3613   */\n  0x00\n    /* \"#utility.yul\":3755:3784   */\n  tag_88\n    /* \"#utility.yul\":3780:3783   */\n  dup4\n    /* \"#utility.yul\":3774:3778   */\n  dup4\n    /* \"#utility.yul\":3755:3784   */\n  tag_32\n  jump\t// in\ntag_88:\n    /* \"#utility.yul\":3747:3784   */\n  swap2\n  pop\n    /* \"#utility.yul\":3817:3820   */\n  dup3\n    /* \"#utility.yul\":3814:3815   */\n  0x02\n    /* \"#utility.yul\":3810:3821   */\n  mul\n    /* \"#utility.yul\":3804:3808   */\n  dup3\n    /* \"#utility.yul\":3801:3822   */\n  or\n    /* \"#utility.yul\":3793:3822   */\n  swap1\n  pop\n    /* \"#utility.yul\":3533:3828   */\n  swap3\n  swap2\n  pop\n  pop\n  jump\t// out\n    /* \"#utility.yul\":3833:5228   */\ntag_2:\n    /* \"#utility.yul\":3950:3987   */\n  tag_90\n    /* \"#utility.yul\":3983:3986   */\n  dup3\n    /* \"#utility.yul\":3950:3987   */\n  tag_14\n  jump\t// in\ntag_90:\n    /* \"#utility.yul\":4052:4070   */\n  0xffffffffffffffff\n    /* \"#utility.yul\":4044:4050   */\n  dup2\n    /* \"#utility.yul\":4041:4071   */\n  gt\n    /* \"#utility.yul\":4038:4094   */\n  iszero\n  tag_91\n  jumpi\n    /* \"#utility.yul\":4074:4092   */\n  tag_92\n  tag_15\n  jump\t// in\ntag_92:\n    /* \"#utility.yul\":4038:4094   */\ntag_91:\n    /* \"#utility.yul\":4118:4156   */\n  tag_93\n    /* \"#utility.yul\":4150:4154   */\n  dup3\n    /* \"#utility.yul\":4144:4155   */\n  sload\n    /* \"#utility.yul\":4118:4156   */\n  tag_17\n  jump\t// in\ntag_93:\n    /* \"#utility.yul\":4203:4270   */\n  tag_94\n    /* \"#utility.yul\":4263:4269   */\n  dup3\n    /* \"#utility.yul\":4255:4261   */\n  dup3\n    /* \"#utility.yul\":4249:4253   */\n  dup6\n    /* \"#utility.yul\":4203:4270   */\n  tag_30\n  jump\t// in\ntag_94:\n    /* \"#utility.yul\":4297:4298   */\n  0x00\n    /* \"#utility.yul\":4321:4325   */\n  0x20\n    /* \"#utility.yul\":4308:4325   */\n  swap1\n  pop\n    /* \"#utility.yul\":4353:4355   */\n  0x1f\n    /* \"#utility.yul\":4345:4351   */\n  dup4\n    /* \"#utility.yul\":4342:4356   */\n  gt\n    /* \"#utility.yul\":4370:4371   */\n  0x01\n    /* \"#utility.yul\":4365:4983   */\n  dup2\n  eq\n  tag_96\n  jumpi\n    /* \"#utility.yul\":5027:5028   */\n  0x00\n    /* \"#utility.yul\":5044:5050   */\n  dup5\n    /* \"#utility.yul\":5041:5118   */\n  iszero\n  tag_97\n  jumpi\n    /* \"#utility.yul\":5093:5102   */\n  dup3\n    /* \"#utility.yul\":5088:5091   */\n  dup8\n    /* \"#utility.yul\":5084:5103   */\n  add\n    /* \"#utility.yul\":5078:5104   */\n  mload\n    /* \"#utility.yul\":5069:5104   */\n  swap1\n  pop\n    /* \"#utility.yul\":5041:5118   */\ntag_97:\n    /* \"#utility.yul\":5144:5211   */\n  tag_98\n    /* \"#utility.yul\":5204:5210   */\n  dup6\n    /* \"#utility.yul\":5197:5202   */\n  dup3\n    /* \"#utility.yul\":5144:5211   */\n  tag_33\n  jump\t// in\ntag_98:\n    /* \"#utility.yul\":5138:5142   */\n  dup7\n    /* \"#utility.yul\":5131:5212   */\n  sstore\n    /* \"#utility.yul\":5000:5222   */\n  pop\n    /* \"#utility.yul\":4335:5222   */\n  jump(tag_95)\n    /* \"#utility.yul\":4365:4983   */\ntag_96:\n    /* \"#utility.yul\":4417:4421   */\n  0x1f\n    /* \"#utility.yul\":4413:4422   */\n  not\n    /* \"#utility.yul\":4405:4411   */\n  dup5\n    /* \"#utility.yul\":4401:4423   */\n  and\n    /* \"#utility.yul\":4451:4488   */\n  tag_99\n    /* \"#utility.yul\":4483:4487   */\n  dup7\n    /* \"#utility.yul\":4451:4488   */\n  tag_18\n  jump\t// in\ntag_99:\n    /* \"#utility.yul\":4510:4511   */\n  0x00\n    /* \"#utility.yul\":4524:4732   */\ntag_100:\n    /* \"#utility.yul\":4538:4545   */\n  dup3\n    /* \"#utility.yul\":4535:4536   */\n  dup2\n    /* \"#utility.yul\":4532:4546   */\n  lt\n    /* \"#utility.yul\":4524:4732   */\n  iszero\n  tag_102\n  jumpi\n    /* \"#utility.yul\":4617:4626   */\n  dup5\n    /* \"#utility.yul\":4612:4615   */\n  dup10\n    /* \"#utility.yul\":4608:4627   */\n  add\n    /* \"#utility.yul\":4602:4628   */\n  mload\n    /* \"#utility.yul\":4594:4600   */\n  dup3\n    /* \"#utility.yul\":4587:4629   */\n  sstore\n    /* \"#utility.yul\":4668:4669   */\n  0x01\n    /* \"#utility.yul\":4660:4666   */\n  dup3\n    /* \"#utility.yul\":4656:4670   */\n  add\n    /* \"#utility.yul\":4646:4670   */\n  swap2\n  pop\n    /* \"#utility.yul\":4715:4717   */\n  0x20\n    /* \"#utility.yul\":4704:4713   */\n  dup6\n    /* \"#utility.yul\":4700:4718   */\n  add\n    /* \"#utility.yul\":4687:4718   */\n  swap5\n  pop\n    /* \"#utility.yul\":4561:4565   */\n  0x20\n    /* \"#utility.yul\":4558:4559   */\n  dup2\n    /* \"#utility.yul\":4554:4566   */\n  add\n    /* \"#utility.yul\":4549:4566   */\n  swap1\n  pop\n    /* \"#utility.yul\":4524:4732   */\n  jump(tag_100)\ntag_102:\n    /* \"#utility.yul\":4760:4766   */\n  dup7\n    /* \"#utility.yul\":4751:4758   */\n  dup4\n    /* \"#utility.yul\":4748:4767   */\n  lt\n    /* \"#utility.yul\":4745:4924   */\n  iszero\n  tag_103\n  jumpi\n    /* \"#utility.yul\":4818:4827   */\n  dup5\n    /* \"#utility.yul\":4813:4816   */\n  dup10\n    /* \"#utility.yul\":4809:4828   */\n  add\n    /* \"#utility.yul\":4803:4829   */\n  mload\n    /* \"#utility.yul\":4861:4909   */\n  tag_104\n    /* \"#utility.yul\":4903:4907   */\n  0x1f\n    /* \"#utility.yul\":4895:4901   */\n  dup10\n    /* \"#utility.yul\":4891:4908   */\n  and\n    /* \"#utility.yul\":4880:4889   */\n  dup3\n    /* \"#utility.yul\":4861:4909   */\n  tag_32\n  jump\t// in\ntag_104:\n    /* \"#utility.yul\":4853:4859   */\n  dup4\n    /* \"#utility.yul\":4846:4910   */\n  sstore\n    /* \"#utility.yul\":4768:4924   */\n  pop\n    /* \"#utility.yul\":4745:4924   */\ntag_103:\n    /* \"#utility.yul\":4970:4971   */\n  0x01\n    /* \"#utility.yul\":4966:4967   */\n  0x02\n    /* \"#utility.yul\":4958:4964   */\n  dup9\n    /* \"#utility.yul\":4954:4968   */\n  mul\n    /* \"#utility.yul\":4950:4972   */\n  add\n    /* \"#utility.yul\":4944:4948   */\n  dup9\n    /* \"#utility.yul\":4937:4973   */\n  sstore\n    /* \"#utility.yul\":4372:4983   */\n  pop\n  pop\n  pop\n    /* \"#utility.yul\":4335:5222   */\ntag_95:\n  pop\n    /* \"#utility.yul\":3925:5228   */\n  pop\n  pop\n  pop\n    /* \"#utility.yul\":3833:5228   */\n  pop\n  pop\n  jump\t// out\n    /* \"#utility.yul\":5315:5432   */\ntag_35:\n    /* \"#utility.yul\":5424:5425   */\n  0x00\n    /* \"#utility.yul\":5421:5422   */\n  dup1\n    /* \"#utility.yul\":5414:5426   */\n  revert\n    /* \"#utility.yul\":5561:5683   */\ntag_37:\n    /* \"#utility.yul\":5634:5658   */\n  tag_109\n    /* \"#utility.yul\":5652:5657   */\n  dup2\n    /* \"#utility.yul\":5634:5658   */\n  tag_22\n  jump\t// in\ntag_109:\n    /* \"#utility.yul\":5627:5632   */\n  dup2\n    /* \"#utility.yul\":5624:5659   */\n  eq\n    /* \"#utility.yul\":5614:5677   */\n  tag_110\n  jumpi\n    /* \"#utility.yul\":5673:5674   */\n  0x00\n    /* \"#utility.yul\":5670:5671   */\n  dup1\n    /* \"#utility.yul\":5663:5675   */\n  revert\n    /* \"#utility.yul\":5614:5677   */\ntag_110:\n    /* \"#utility.yul\":5561:5683   */\n  pop\n  jump\t// out\n    /* \"#utility.yul\":5689:5832   */\ntag_38:\n    /* \"#utility.yul\":5746:5751   */\n  0x00\n    /* \"#utility.yul\":5777:5783   */\n  dup2\n    /* \"#utility.yul\":5771:5784   */\n  mload\n    /* \"#utility.yul\":5762:5784   */\n  swap1\n  pop\n    /* \"#utility.yul\":5793:5826   */\n  tag_112\n    /* \"#utility.yul\":5820:5825   */\n  dup2\n    /* \"#utility.yul\":5793:5826   */\n  tag_37\n  jump\t// in\ntag_112:\n    /* \"#utility.yul\":5689:5832   */\n  swap3\n  swap2\n  pop\n  pop\n  jump\t// out\n    /* \"#utility.yul\":5838:6189   */\ntag_6:\n    /* \"#utility.yul\":5908:5914   */\n  0x00\n    /* \"#utility.yul\":5957:5959   */\n  0x20\n    /* \"#utility.yul\":5945:5954   */\n  dup3\n    /* \"#utility.yul\":5936:5943   */\n  dup5\n    /* \"#utility.yul\":5932:5955   */\n  sub\n    /* \"#utility.yul\":5928:5960   */\n  slt\n    /* \"#utility.yul\":5925:6044   */\n  iszero\n  tag_114\n  jumpi\n    /* \"#utility.yul\":5963:6042   */\n  tag_115\n  tag_35\n  jump\t// in\ntag_115:\n    /* \"#utility.yul\":5925:6044   */\ntag_114:\n    /* \"#utility.yul\":6083:6084   */\n  0x00\n    /* \"#utility.yul\":6108:6172   */\n  tag_116\n    /* \"#utility.yul\":6164:6171   */\n  dup5\n    /* \"#utility.yul\":6155:6161   */\n  dup3\n    /* \"#utility.yul\":6144:6153   */\n  dup6\n    /* \"#utility.yul\":6140:6162   */\n  add\n    /* \"#utility.yul\":6108:6172   */\n  tag_38\n  jump\t// in\ntag_116:\n    /* \"#utility.yul\":6098:6172   */\n  swap2\n  pop\n    /* \"#utility.yul\":6054:6182   */\n  pop\n    /* \"#utility.yul\":5838:6189   */\n  swap3\n  swap2\n  pop\n  pop\n  jump\t// out\n    /* \"#utility.yul\":6195:6375   */\ntag_39:\n    /* \"#utility.yul\":6243:6320   */\n  0x4e487b7100000000000000000000000000000000000000000000000000000000\n    /* \"#utility.yul\":6240:6241   */\n  0x00\n    /* \"#utility.yul\":6233:6321   */\n  mstore\n    /* \"#utility.yul\":6340:6344   */\n  0x11\n    /* \"#utility.yul\":6337:6338   */\n  0x04\n    /* \"#utility.yul\":6330:6345   */\n  mstore\n    /* \"#utility.yul\":6364:6368   */\n  0x24\n    /* \"#utility.yul\":6361:6362   */\n  0x00\n    /* \"#utility.yul\":6354:6369   */\n  revert\n    /* \"#utility.yul\":6381:6483   */\ntag_40:\n    /* \"#utility.yul\":6423:6431   */\n  0x00\n    /* \"#utility.yul\":6470:6475   */\n  dup2\n    /* \"#utility.yul\":6467:6468   */\n  0x01\n    /* \"#utility.yul\":6463:6476   */\n  shr\n    /* \"#utility.yul\":6442:6476   */\n  swap1\n  pop\n    /* \"#utility.yul\":6381:6483   */\n  swap2\n  swap1\n  pop\n  jump\t// out\n    /* \"#utility.yul\":6489:7337   */\ntag_41:\n    /* \"#utility.yul\":6550:6555   */\n  0x00\n    /* \"#utility.yul\":6557:6561   */\n  dup1\n    /* \"#utility.yul\":6581:6587   */\n  dup3\n    /* \"#utility.yul\":6572:6587   */\n  swap2\n  pop\n    /* \"#utility.yul\":6605:6610   */\n  dup4\n    /* \"#utility.yul\":6596:6610   */\n  swap1\n  pop\n    /* \"#utility.yul\":6619:7331   */\ntag_120:\n    /* \"#utility.yul\":6640:6641   */\n  0x01\n    /* \"#utility.yul\":6630:6638   */\n  dup6\n    /* \"#utility.yul\":6627:6642   */\n  gt\n    /* \"#utility.yul\":6619:7331   */\n  iszero\n  tag_122\n  jumpi\n    /* \"#utility.yul\":6735:6739   */\n  dup1\n    /* \"#utility.yul\":6730:6733   */\n  dup7\n    /* \"#utility.yul\":6726:6740   */\n  div\n    /* \"#utility.yul\":6720:6724   */\n  dup2\n    /* \"#utility.yul\":6717:6741   */\n  gt\n    /* \"#utility.yul\":6714:6764   */\n  iszero\n  tag_123\n  jumpi\n    /* \"#utility.yul\":6744:6762   */\n  tag_124\n  tag_39\n  jump\t// in\ntag_124:\n    /* \"#utility.yul\":6714:6764   */\ntag_123:\n    /* \"#utility.yul\":6794:6795   */\n  0x01\n    /* \"#utility.yul\":6784:6792   */\n  dup6\n    /* \"#utility.yul\":6780:6796   */\n  and\n    /* \"#utility.yul\":6777:7228   */\n  iszero\n  tag_125\n  jumpi\n    /* \"#utility.yul\":7209:7213   */\n  dup1\n    /* \"#utility.yul\":7202:7207   */\n  dup3\n    /* \"#utility.yul\":7198:7214   */\n  mul\n    /* \"#utility.yul\":7189:7214   */\n  swap2\n  pop\n    /* \"#utility.yul\":6777:7228   */\ntag_125:\n    /* \"#utility.yul\":7259:7263   */\n  dup1\n    /* \"#utility.yul\":7253:7257   */\n  dup2\n    /* \"#utility.yul\":7249:7264   */\n  mul\n    /* \"#utility.yul\":7241:7264   */\n  swap1\n  pop\n    /* \"#utility.yul\":7289:7321   */\n  tag_126\n    /* \"#utility.yul\":7312:7320   */\n  dup6\n    /* \"#utility.yul\":7289:7321   */\n  tag_40\n  jump\t// in\ntag_126:\n    /* \"#utility.yul\":7277:7321   */\n  swap5\n  pop\n    /* \"#utility.yul\":6619:7331   */\n  jump(tag_120)\ntag_122:\n    /* \"#utility.yul\":6489:7337   */\n  swap5\n  pop\n  swap5\n  swap3\n  pop\n  pop\n  pop\n  jump\t// out\n    /* \"#utility.yul\":7343:8416   */\ntag_42:\n    /* \"#utility.yul\":7397:7402   */\n  0x00\n    /* \"#utility.yul\":7588:7596   */\n  dup3\n    /* \"#utility.yul\":7578:7618   */\n  tag_128\n  jumpi\n    /* \"#utility.yul\":7609:7610   */\n  0x01\n    /* \"#utility.yul\":7600:7610   */\n  swap1\n  pop\n    /* \"#utility.yul\":7611:7616   */\n  jump(tag_127)\n    /* \"#utility.yul\":7578:7618   */\ntag_128:\n    /* \"#utility.yul\":7637:7641   */\n  dup2\n    /* \"#utility.yul\":7627:7663   */\n  tag_129\n  jumpi\n    /* \"#utility.yul\":7654:7655   */\n  0x00\n    /* \"#utility.yul\":7645:7655   */\n  swap1\n  pop\n    /* \"#utility.yul\":7656:7661   */\n  jump(tag_127)\n    /* \"#utility.yul\":7627:7663   */\ntag_129:\n    /* \"#utility.yul\":7723:7727   */\n  dup2\n    /* \"#utility.yul\":7771:7772   */\n  0x01\n    /* \"#utility.yul\":7766:7793   */\n  dup2\n  eq\n  tag_131\n  jumpi\n    /* \"#utility.yul\":7807:7808   */\n  0x02\n    /* \"#utility.yul\":7802:7993   */\n  dup2\n  eq\n  tag_132\n  jumpi\n    /* \"#utility.yul\":7716:7993   */\n  jump(tag_130)\n    /* \"#utility.yul\":7766:7793   */\ntag_131:\n    /* \"#utility.yul\":7784:7785   */\n  0x01\n    /* \"#utility.yul\":7775:7785   */\n  swap2\n  pop\n    /* \"#utility.yul\":7786:7791   */\n  pop\n  jump(tag_127)\n    /* \"#utility.yul\":7802:7993   */\ntag_132:\n    /* \"#utility.yul\":7847:7850   */\n  0xff\n    /* \"#utility.yul\":7837:7845   */\n  dup5\n    /* \"#utility.yul\":7834:7851   */\n  gt\n    /* \"#utility.yul\":7831:7874   */\n  iszero\n  tag_133\n  jumpi\n    /* \"#utility.yul\":7854:7872   */\n  tag_134\n  tag_39\n  jump\t// in\ntag_134:\n    /* \"#utility.yul\":7831:7874   */\ntag_133:\n    /* \"#utility.yul\":7903:7911   */\n  dup4\n    /* \"#utility.yul\":7900:7901   */\n  0x02\n    /* \"#utility.yul\":7896:7912   */\n  exp\n    /* \"#utility.yul\":7887:7912   */\n  swap2\n  pop\n    /* \"#utility.yul\":7938:7941   */\n  dup5\n    /* \"#utility.yul\":7931:7936   */\n  dup3\n    /* \"#utility.yul\":7928:7942   */\n  gt\n    /* \"#utility.yul\":7925:7965   */\n  iszero\n  tag_135\n  jumpi\n    /* \"#utility.yul\":7945:7963   */\n  tag_136\n  tag_39\n  jump\t// in\ntag_136:\n    /* \"#utility.yul\":7925:7965   */\ntag_135:\n    /* \"#utility.yul\":7978:7983   */\n  pop\n  jump(tag_127)\n    /* \"#utility.yul\":7716:7993   */\ntag_130:\n  pop\n    /* \"#utility.yul\":8102:8104   */\n  0x20\n    /* \"#utility.yul\":8092:8100   */\n  dup4\n    /* \"#utility.yul\":8089:8105   */\n  lt\n    /* \"#utility.yul\":8083:8086   */\n  0x0133\n    /* \"#utility.yul\":8077:8081   */\n  dup4\n    /* \"#utility.yul\":8074:8087   */\n  lt\n    /* \"#utility.yul\":8070:8106   */\n  and\n    /* \"#utility.yul\":8052:8054   */\n  0x4e\n    /* \"#utility.yul\":8042:8050   */\n  dup5\n    /* \"#utility.yul\":8039:8055   */\n  lt\n    /* \"#utility.yul\":8034:8036   */\n  0x0b\n    /* \"#utility.yul\":8028:8032   */\n  dup5\n    /* \"#utility.yul\":8025:8037   */\n  lt\n    /* \"#utility.yul\":8021:8056   */\n  and\n    /* \"#utility.yul\":8005:8116   */\n  or\n    /* \"#utility.yul\":8002:8248   */\n  iszero\n  tag_137\n  jumpi\n    /* \"#utility.yul\":8158:8166   */\n  dup3\n    /* \"#utility.yul\":8152:8156   */\n  dup3\n    /* \"#utility.yul\":8148:8167   */\n  exp\n    /* \"#utility.yul\":8139:8167   */\n  swap1\n  pop\n    /* \"#utility.yul\":8193:8196   */\n  dup4\n    /* \"#utility.yul\":8186:8191   */\n  dup2\n    /* \"#utility.yul\":8183:8197   */\n  gt\n    /* \"#utility.yul\":8180:8220   */\n  iszero\n  tag_138\n  jumpi\n    /* \"#utility.yul\":8200:8218   */\n  tag_139\n  tag_39\n  jump\t// in\ntag_139:\n    /* \"#utility.yul\":8180:8220   */\ntag_138:\n    /* \"#utility.yul\":8233:8238   */\n  jump(tag_127)\n    /* \"#utility.yul\":8002:8248   */\ntag_137:\n    /* \"#utility.yul\":8273:8315   */\n  tag_140\n    /* \"#utility.yul\":8311:8314   */\n  dup5\n    /* \"#utility.yul\":8301:8309   */\n  dup5\n    /* \"#utility.yul\":8295:8299   */\n  dup5\n    /* \"#utility.yul\":8292:8293   */\n  0x01\n    /* \"#utility.yul\":8273:8315   */\n  tag_41\n  jump\t// in\ntag_140:\n    /* \"#utility.yul\":8258:8315   */\n  swap3\n  pop\n  swap1\n  pop\n    /* \"#utility.yul\":8347:8351   */\n  dup2\n    /* \"#utility.yul\":8342:8345   */\n  dup5\n    /* \"#utility.yul\":8338:8352   */\n  div\n    /* \"#utility.yul\":8331:8336   */\n  dup2\n    /* \"#utility.yul\":8328:8353   */\n  gt\n    /* \"#utility.yul\":8325:8376   */\n  iszero\n  tag_141\n  jumpi\n    /* \"#utility.yul\":8356:8374   */\n  tag_142\n  tag_39\n  jump\t// in\ntag_142:\n    /* \"#utility.yul\":8325:8376   */\ntag_141:\n    /* \"#utility.yul\":8405:8409   */\n  dup2\n    /* \"#utility.yul\":8398:8403   */\n  dup2\n    /* \"#utility.yul\":8394:8410   */\n  mul\n    /* \"#utility.yul\":8385:8410   */\n  swap1\n  pop\n    /* \"#utility.yul\":7343:8416   */\ntag_127:\n  swap4\n  swap3\n  pop\n  pop\n  pop\n  jump\t// out\n    /* \"#utility.yul\":8422:8707   */\ntag_10:\n    /* \"#utility.yul\":8482:8487   */\n  0x00\n    /* \"#utility.yul\":8506:8529   */\n  tag_144\n    /* \"#utility.yul\":8524:8528   */\n  dup3\n    /* \"#utility.yul\":8506:8529   */\n  tag_22\n  jump\t// in\ntag_144:\n    /* \"#utility.yul\":8498:8529   */\n  swap2\n  pop\n    /* \"#utility.yul\":8550:8577   */\n  tag_145\n    /* \"#utility.yul\":8568:8576   */\n  dup4\n    /* \"#utility.yul\":8550:8577   */\n  tag_22\n  jump\t// in\ntag_145:\n    /* \"#utility.yul\":8538:8577   */\n  swap3\n  pop\n    /* \"#utility.yul\":8596:8700   */\n  tag_146\n    /* \"#utility.yul\":8633:8699   */\n  0xffffffffffffffffffffffffffffffffffffffffffffffffffffffffffffffff\n    /* \"#utility.yul\":8623:8631   */\n  dup5\n    /* \"#utility.yul\":8617:8621   */\n  dup5\n    /* \"#utility.yul\":8596:8700   */\n  tag_42\n  jump\t// in\ntag_146:\n    /* \"#utility.yul\":8587:8700   */\n  swap1\n  pop\n    /* \"#utility.yul\":8422:8707   */\n  swap3\n  swap2\n  pop\n  pop\n  jump\t// out\n    /* \"#utility.yul\":8713:9123   */\ntag_12:\n    /* \"#utility.yul\":8753:8760   */\n  0x00\n    /* \"#utility.yul\":8776:8796   */\n  tag_148\n    /* \"#utility.yul\":8794:8795   */\n  dup3\n    /* \"#utility.yul\":8776:8796   */\n  tag_22\n  jump\t// in\ntag_148:\n    /* \"#utility.yul\":8771:8796   */\n  swap2\n  pop\n    /* \"#utility.yul\":8810:8830   */\n  tag_149\n    /* \"#utility.yul\":8828:8829   */\n  dup4\n    /* \"#utility.yul\":8810:8830   */\n  tag_22\n  jump\t// in\ntag_149:\n    /* \"#utility.yul\":8805:8830   */\n  swap3\n  pop\n    /* \"#utility.yul\":8865:8866   */\n  dup3\n    /* \"#utility.yul\":8862:8863   */\n  dup3\n    /* \"#utility.yul\":8858:8867   */\n  mul\n    /* \"#utility.yul\":8887:8917   */\n  tag_150\n    /* \"#utility.yul\":8905:8916   */\n  dup2\n    /* \"#utility.yul\":8887:8917   */\n  tag_22\n  jump\t// in\ntag_150:\n    /* \"#utility.yul\":8876:8917   */\n  swap2\n  pop\n    /* \"#utility.yul\":9066:9067   */\n  dup3\n    /* \"#utility.yul\":9057:9064   */\n  dup3\n    /* \"#utility.yul\":9053:9068   */\n  div\n    /* \"#utility.yul\":9050:9051   */\n  dup5\n    /* \"#utility.yul\":9047:9069   */\n  eq\n    /* \"#utility.yul\":9027:9028   */\n  dup4\n    /* \"#utility.yul\":9020:9029   */\n  iszero\n    /* \"#utility.yul\":9000:9083   */\n  or\n    /* \"#utility.yul\":8977:9116   */\n  tag_151\n  jumpi\n    /* \"#utility.yul\":9096:9114   */\n  tag_152\n  tag_39\n  jump\t// in\ntag_152:\n    /* \"#utility.yul\":8977:9116   */\ntag_151:\n    /* \"#utility.yul\":8761:9123   */\n  pop\n    /* \"#utility.yul\":8713:9123   */\n  swap3\n  swap2\n  pop\n  pop\n  jump\t// out\n    /* \"Hackathon/SweatToken.sol\":198:2722  contract SweatToken {... */\ntag_13:\n  dataSize(sub_0)\n  dup1\n  dataOffset(sub_0)\n  0x00\n  codecopy\n  0x00\n  return\nstop\n\nsub_0: assembly {\n        /* \"Hackathon/SweatToken.sol\":198:2722  contract SweatToken {... */\n      mstore(0x40, 0x80)\n      callvalue\n      dup1\n      iszero\n      tag_1\n      jumpi\n      0x00\n      dup1\n      revert\n    tag_1:\n      pop\n      jumpi(tag_2, lt(calldatasize, 0x04))\n      shr(0xe0, calldataload(0x00))\n      dup1\n      0x95d89b41\n      gt\n      tag_13\n      jumpi\n      dup1\n      0x95d89b41\n      eq\n      tag_8\n      jumpi\n      dup1\n      0xa9059cbb\n      eq\n      tag_9\n      jumpi\n      dup1\n      0xb62e3c5a\n      eq\n      tag_10\n      jumpi\n      dup1\n      0xd7535c4d\n      eq\n      tag_11\n      jumpi\n      dup1\n      0xef29af93\n      eq\n      tag_12\n      jumpi\n      jump(tag_2)\n    tag_13:\n      dup1\n      0x06fdde03\n      eq\n      tag_3\n      jumpi\n      dup1\n      0x18160ddd\n      eq\n      tag_4\n      jumpi\n      dup1\n      0x313ce567\n      eq\n      tag_5\n      jumpi\n      dup1\n      0x70a08231\n      eq\n      tag_6\n      jumpi\n      dup1\n      0x8da5cb5b\n      eq\n      tag_7\n      jumpi\n    tag_2:\n      0x00\n      dup1\n      revert\n        /* \"Hackathon/SweatToken.sol\":225:259  string public name = \"Sweat Token\" */\n    tag_3:\n      tag_14\n      tag_15\n      jump\t// in\n    tag_14:\n      mload(0x40)\n      tag_16\n      swap2\n      swap1\n      tag_17\n      jump\t// in\n    tag_16:\n      mload(0x40)\n      dup1\n      swap2\n      sub\n      swap1\n      return\n        /* \"Hackathon/SweatToken.sol\":336:362  uint256 public totalSupply */\n    tag_4:\n      tag_18\n      tag_19\n      jump\t// in\n    tag_18:\n      mload(0x40)\n      tag_20\n      swap2\n      swap1\n      tag_21\n      jump\t// in\n    tag_20:\n      mload(0x40)\n      dup1\n      swap2\n      sub\n      swap1\n      return\n        /* \"Hackathon/SweatToken.sol\":303:329  uint8 public decimals = 18 */\n    tag_5:\n      tag_22\n      tag_23\n      jump\t// in\n    tag_22:\n      mload(0x40)\n      tag_24\n      swap2\n      swap1\n      tag_25\n      jump\t// in\n    tag_24:\n      mload(0x40)\n      dup1\n      swap2\n      sub\n      swap1\n      return\n        /* \"Hackathon/SweatToken.sol\":441:485  mapping(address => uint256) public balanceOf */\n    tag_6:\n      tag_26\n      0x04\n      dup1\n      calldatasize\n      sub\n      dup2\n      add\n      swap1\n      tag_27\n      swap2\n      swap1\n      tag_28\n      jump\t// in\n    tag_27:\n      tag_29\n      jump\t// in\n    tag_26:\n      mload(0x40)\n      tag_30\n      swap2\n      swap1\n      tag_21\n      jump\t// in\n    tag_30:\n      mload(0x40)\n      dup1\n      swap2\n      sub\n      swap1\n      return\n        /* \"Hackathon/SweatToken.sol\":369:389  address public owner */\n    tag_7:\n      tag_31\n      tag_32\n      jump\t// in\n    tag_31:\n      mload(0x40)\n      tag_33\n      swap2\n      swap1\n      tag_34\n      jump\t// in\n    tag_33:\n      mload(0x40)\n      dup1\n      swap2\n      sub\n      swap1\n      return\n        /* \"Hackathon/SweatToken.sol\":266:296  string public symbol = \"SWEAT\" */\n    tag_8:\n      tag_35\n      tag_36\n      jump\t// in\n    tag_35:\n      mload(0x40)\n      tag_37\n      swap2\n      swap1\n      tag_17\n      jump\t// in\n    tag_37:\n      mload(0x40)\n      dup1\n      swap2\n      sub\n      swap1\n      return\n        /* \"Hackathon/SweatToken.sol\":1210:1559  function transfer(address to, uint256 value) external returns (bool) {... */\n    tag_9:\n      tag_38\n      0x04\n      dup1\n      calldatasize\n      sub\n      dup2\n      add\n      swap1\n      tag_39\n      swap2\n      swap1\n      tag_40\n      jump\t// in\n    tag_39:\n      tag_41\n      jump\t// in\n    tag_38:\n      mload(0x40)\n      tag_42\n      swap2\n      swap1\n      tag_43\n      jump\t// in\n    tag_42:\n      mload(0x40)\n      dup1\n      swap2\n      sub\n      swap1\n      return\n        /* \"Hackathon/SweatToken.sol\":1613:1758  function getETHPriceInUSD() public view returns (int) {... */\n    tag_10:\n      tag_44\n      tag_45\n      jump\t// in\n    tag_44:\n      mload(0x40)\n      tag_46\n      swap2\n      swap1\n      tag_47\n      jump\t// in\n    tag_46:\n      mload(0x40)\n      dup1\n      swap2\n      sub\n      swap1\n      return\n        /* \"Hackathon/SweatToken.sol\":2168:2590  function updateSweatPrice() external onlyOwner {... */\n    tag_11:\n      tag_48\n      tag_49\n      jump\t// in\n    tag_48:\n      stop\n        /* \"Hackathon/SweatToken.sol\":1820:2100  function getSweatPriceInUSD() external view returns (uint256) {... */\n    tag_12:\n      tag_50\n      tag_51\n      jump\t// in\n    tag_50:\n      mload(0x40)\n      tag_52\n      swap2\n      swap1\n      tag_21\n      jump\t// in\n    tag_52:\n      mload(0x40)\n      dup1\n      swap2\n      sub\n      swap1\n      return\n        /* \"Hackathon/SweatToken.sol\":225:259  string public name = \"Sweat Token\" */\n    tag_15:\n      0x00\n      dup1\n      sload\n      tag_53\n      swap1\n      tag_54\n      jump\t// in\n    tag_53:\n      dup1\n      0x1f\n      add\n      0x20\n      dup1\n      swap2\n      div\n      mul\n      0x20\n      add\n      mload(0x40)\n      swap1\n      dup2\n      add\n      0x40\n      mstore\n      dup1\n      swap3\n      swap2\n      swap1\n      dup2\n      dup2\n      mstore\n      0x20\n      add\n      dup3\n      dup1\n      sload\n      tag_55\n      swap1\n      tag_54\n      jump\t// in\n    tag_55:\n      dup1\n      iszero\n      tag_56\n      jumpi\n      dup1\n      0x1f\n      lt\n      tag_57\n      jumpi\n      0x0100\n      dup1\n      dup4\n      sload\n      div\n      mul\n      dup4\n      mstore\n      swap2\n      0x20\n      add\n      swap2\n      jump(tag_56)\n    tag_57:\n      dup3\n      add\n      swap2\n      swap1\n      0x00\n      mstore\n      keccak256(0x00, 0x20)\n      swap1\n    tag_58:\n      dup2\n      sload\n      dup2\n      mstore\n      swap1\n      0x01\n      add\n      swap1\n      0x20\n      add\n      dup1\n      dup4\n      gt\n      tag_58\n      jumpi\n      dup3\n      swap1\n      sub\n      0x1f\n      and\n      dup3\n      add\n      swap2\n    tag_56:\n      pop\n      pop\n      pop\n      pop\n      pop\n      dup2\n      jump\t// out\n        /* \"Hackathon/SweatToken.sol\":336:362  uint256 public totalSupply */\n    tag_19:\n      sload(0x03)\n      dup2\n      jump\t// out\n        /* \"Hackathon/SweatToken.sol\":303:329  uint8 public decimals = 18 */\n    tag_23:\n      0x02\n      0x00\n      swap1\n      sload\n      swap1\n      0x0100\n      exp\n      swap1\n      div\n      0xff\n      and\n      dup2\n      jump\t// out\n        /* \"Hackathon/SweatToken.sol\":441:485  mapping(address => uint256) public balanceOf */\n    tag_29:\n      mstore(0x20, 0x05)\n      dup1\n      0x00\n      mstore\n      keccak256(0x00, 0x40)\n      0x00\n      swap2\n      pop\n      swap1\n      pop\n      sload\n      dup2\n      jump\t// out\n        /* \"Hackathon/SweatToken.sol\":369:389  address public owner */\n    tag_32:\n      0x04\n      0x00\n      swap1\n      sload\n      swap1\n      0x0100\n      exp\n      swap1\n      div\n      0xffffffffffffffffffffffffffffffffffffffff\n      and\n      dup2\n      jump\t// out\n        /* \"Hackathon/SweatToken.sol\":266:296  string public symbol = \"SWEAT\" */\n    tag_36:\n      0x01\n      dup1\n      sload\n      tag_59\n      swap1\n      tag_54\n      jump\t// in\n    tag_59:\n      dup1\n      0x1f\n      add\n      0x20\n      dup1\n      swap2\n      div\n      mul\n      0x20\n      add\n      mload(0x40)\n      swap1\n      dup2\n      add\n      0x40\n      mstore\n      dup1\n      swap3\n      swap2\n      swap1\n      dup2\n      dup2\n      mstore\n      0x20\n      add\n      dup3\n      dup1\n      sload\n      tag_60\n      swap1\n      tag_54\n      jump\t// in\n    tag_60:\n      dup1\n      iszero\n      tag_61\n      jumpi\n      dup1\n      0x1f\n      lt\n      tag_62\n      jumpi\n      0x0100\n      dup1\n      dup4\n      sload\n      div\n      mul\n      dup4\n      mstore\n      swap2\n      0x20\n      add\n      swap2\n      jump(tag_61)\n    tag_62:\n      dup3\n      add\n      swap2\n      swap1\n      0x00\n      mstore\n      keccak256(0x00, 0x20)\n      swap1\n    tag_63:\n      dup2\n      sload\n      dup2\n      mstore\n      swap1\n      0x01\n      add\n      swap1\n      0x20\n      add\n      dup1\n      dup4\n      gt\n      tag_63\n      jumpi\n      dup3\n      swap1\n      sub\n      0x1f\n      and\n      dup3\n      add\n      swap2\n    tag_61:\n      pop\n      pop\n      pop\n      pop\n      pop\n      dup2\n      jump\t// out\n        /* \"Hackathon/SweatToken.sol\":1210:1559  function transfer(address to, uint256 value) external returns (bool) {... */\n    tag_41:\n        /* \"Hackathon/SweatToken.sol\":1273:1277  bool */\n      0x00\n        /* \"Hackathon/SweatToken.sol\":1312:1313  0 */\n      dup1\n        /* \"Hackathon/SweatToken.sol\":1298:1314  to != address(0) */\n      0xffffffffffffffffffffffffffffffffffffffff\n      and\n        /* \"Hackathon/SweatToken.sol\":1298:1300  to */\n      dup4\n        /* \"Hackathon/SweatToken.sol\":1298:1314  to != address(0) */\n      0xffffffffffffffffffffffffffffffffffffffff\n      and\n      sub\n        /* \"Hackathon/SweatToken.sol\":1290:1334  require(to != address(0), \"Invalid address\") */\n      tag_65\n      jumpi\n      mload(0x40)\n      0x08c379a000000000000000000000000000000000000000000000000000000000\n      dup2\n      mstore\n      0x04\n      add\n      tag_66\n      swap1\n      tag_67\n      jump\t// in\n    tag_66:\n      mload(0x40)\n      dup1\n      swap2\n      sub\n      swap1\n      revert\n    tag_65:\n        /* \"Hackathon/SweatToken.sol\":1378:1383  value */\n      dup2\n        /* \"Hackathon/SweatToken.sol\":1353:1362  balanceOf */\n      0x05\n        /* \"Hackathon/SweatToken.sol\":1353:1374  balanceOf[msg.sender] */\n      0x00\n        /* \"Hackathon/SweatToken.sol\":1363:1373  msg.sender */\n      caller\n        /* \"Hackathon/SweatToken.sol\":1353:1374  balanceOf[msg.sender] */\n      0xffffffffffffffffffffffffffffffffffffffff\n      and\n      0xffffffffffffffffffffffffffffffffffffffff\n      and\n      dup2\n      mstore\n      0x20\n      add\n      swap1\n      dup2\n      mstore\n      0x20\n      add\n      0x00\n      keccak256\n      sload\n        /* \"Hackathon/SweatToken.sol\":1353:1383  balanceOf[msg.sender] >= value */\n      lt\n      iszero\n        /* \"Hackathon/SweatToken.sol\":1345:1408  require(balanceOf[msg.sender] >= value, \"Insufficient balance\") */\n      tag_68\n      jumpi\n      mload(0x40)\n      0x08c379a000000000000000000000000000000000000000000000000000000000\n      dup2\n      mstore\n      0x04\n      add\n      tag_69\n      swap1\n      tag_70\n      jump\t// in\n    tag_69:\n      mload(0x40)\n      dup1\n      swap2\n      sub\n      swap1\n      revert\n    tag_68:\n        /* \"Hackathon/SweatToken.sol\":1444:1449  value */\n      dup2\n        /* \"Hackathon/SweatToken.sol\":1419:1428  balanceOf */\n      0x05\n        /* \"Hackathon/SweatToken.sol\":1419:1440  balanceOf[msg.sender] */\n      0x00\n        /* \"Hackathon/SweatToken.sol\":1429:1439  msg.sender */\n      caller\n        /* \"Hackathon/SweatToken.sol\":1419:1440  balanceOf[msg.sender] */\n      0xffffffffffffffffffffffffffffffffffffffff\n      and\n      0xffffffffffffffffffffffffffffffffffffffff\n      and\n      dup2\n      mstore\n      0x20\n      add\n      swap1\n      dup2\n      mstore\n      0x20\n      add\n      0x00\n      keccak256\n      0x00\n        /* \"Hackathon/SweatToken.sol\":1419:1449  balanceOf[msg.sender] -= value */\n      dup3\n      dup3\n      sload\n      tag_71\n      swap2\n      swap1\n      tag_72\n      jump\t// in\n    tag_71:\n      swap3\n      pop\n      pop\n      dup2\n      swap1\n      sstore\n      pop\n        /* \"Hackathon/SweatToken.sol\":1477:1482  value */\n      dup2\n        /* \"Hackathon/SweatToken.sol\":1460:1469  balanceOf */\n      0x05\n        /* \"Hackathon/SweatToken.sol\":1460:1473  balanceOf[to] */\n      0x00\n        /* \"Hackathon/SweatToken.sol\":1470:1472  to */\n      dup6\n        /* \"Hackathon/SweatToken.sol\":1460:1473  balanceOf[to] */\n      0xffffffffffffffffffffffffffffffffffffffff\n      and\n      0xffffffffffffffffffffffffffffffffffffffff\n      and\n      dup2\n      mstore\n      0x20\n      add\n      swap1\n      dup2\n      mstore\n      0x20\n      add\n      0x00\n      keccak256\n      0x00\n        /* \"Hackathon/SweatToken.sol\":1460:1482  balanceOf[to] += value */\n      dup3\n      dup3\n      sload\n      tag_73\n      swap2\n      swap1\n      tag_74\n      jump\t// in\n    tag_73:\n      swap3\n      pop\n      pop\n      dup2\n      swap1\n      sstore\n      pop\n        /* \"Hackathon/SweatToken.sol\":1519:1521  to */\n      dup3\n        /* \"Hackathon/SweatToken.sol\":1498:1529  Transfer(msg.sender, to, value) */\n      0xffffffffffffffffffffffffffffffffffffffff\n      and\n        /* \"Hackathon/SweatToken.sol\":1507:1517  msg.sender */\n      caller\n        /* \"Hackathon/SweatToken.sol\":1498:1529  Transfer(msg.sender, to, value) */\n      0xffffffffffffffffffffffffffffffffffffffff\n      and\n      0xddf252ad1be2c89b69c2b068fc378daa952ba7f163c4a11628f55a4df523b3ef\n        /* \"Hackathon/SweatToken.sol\":1523:1528  value */\n      dup5\n        /* \"Hackathon/SweatToken.sol\":1498:1529  Transfer(msg.sender, to, value) */\n      mload(0x40)\n      tag_75\n      swap2\n      swap1\n      tag_21\n      jump\t// in\n    tag_75:\n      mload(0x40)\n      dup1\n      swap2\n      sub\n      swap1\n      log3\n        /* \"Hackathon/SweatToken.sol\":1547:1551  true */\n      0x01\n        /* \"Hackathon/SweatToken.sol\":1540:1551  return true */\n      swap1\n      pop\n        /* \"Hackathon/SweatToken.sol\":1210:1559  function transfer(address to, uint256 value) external returns (bool) {... */\n      swap3\n      swap2\n      pop\n      pop\n      jump\t// out\n        /* \"Hackathon/SweatToken.sol\":1613:1758  function getETHPriceInUSD() public view returns (int) {... */\n    tag_45:\n        /* \"Hackathon/SweatToken.sol\":1662:1665  int */\n      0x00\n        /* \"Hackathon/SweatToken.sol\":1681:1690  int price */\n      dup1\n        /* \"Hackathon/SweatToken.sol\":1700:1709  priceFeed */\n      0x06\n      0x00\n      swap1\n      sload\n      swap1\n      0x0100\n      exp\n      swap1\n      div\n      0xffffffffffffffffffffffffffffffffffffffff\n      and\n        /* \"Hackathon/SweatToken.sol\":1700:1725  priceFeed.latestRoundData */\n      0xffffffffffffffffffffffffffffffffffffffff\n      and\n      0xfeaf968c\n        /* \"Hackathon/SweatToken.sol\":1700:1727  priceFeed.latestRoundData() */\n      mload(0x40)\n      dup2\n      0xffffffff\n      and\n      0xe0\n      shl\n      dup2\n      mstore\n      0x04\n      add\n      0xa0\n      mload(0x40)\n      dup1\n      dup4\n      sub\n      dup2\n      dup7\n      gas\n      staticcall\n      iszero\n      dup1\n      iszero\n      tag_78\n      jumpi\n      returndatasize\n      0x00\n      dup1\n      returndatacopy\n      revert(0x00, returndatasize)\n    tag_78:\n      pop\n      pop\n      pop\n      pop\n      mload(0x40)\n      returndatasize\n      not(0x1f)\n      0x1f\n      dup3\n      add\n      and\n      dup3\n      add\n      dup1\n      0x40\n      mstore\n      pop\n      dup2\n      add\n      swap1\n      tag_79\n      swap2\n      swap1\n      tag_80\n      jump\t// in\n    tag_79:\n        /* \"Hackathon/SweatToken.sol\":1678:1727  (, int price, , , ) = priceFeed.latestRoundData() */\n      pop\n      pop\n      pop\n      swap2\n      pop\n      pop\n        /* \"Hackathon/SweatToken.sol\":1745:1750  price */\n      dup1\n        /* \"Hackathon/SweatToken.sol\":1738:1750  return price */\n      swap2\n      pop\n      pop\n        /* \"Hackathon/SweatToken.sol\":1613:1758  function getETHPriceInUSD() public view returns (int) {... */\n      swap1\n      jump\t// out\n        /* \"Hackathon/SweatToken.sol\":2168:2590  function updateSweatPrice() external onlyOwner {... */\n    tag_49:\n        /* \"Hackathon/SweatToken.sol\":2652:2657  owner */\n      0x04\n      0x00\n      swap1\n      sload\n      swap1\n      0x0100\n      exp\n      swap1\n      div\n      0xffffffffffffffffffffffffffffffffffffffff\n      and\n        /* \"Hackathon/SweatToken.sol\":2638:2657  msg.sender == owner */\n      0xffffffffffffffffffffffffffffffffffffffff\n      and\n        /* \"Hackathon/SweatToken.sol\":2638:2648  msg.sender */\n      caller\n        /* \"Hackathon/SweatToken.sol\":2638:2657  msg.sender == owner */\n      0xffffffffffffffffffffffffffffffffffffffff\n      and\n      eq\n        /* \"Hackathon/SweatToken.sol\":2630:2699  require(msg.sender == owner, \"Only the owner can call this function\") */\n      tag_82\n      jumpi\n      mload(0x40)\n      0x08c379a000000000000000000000000000000000000000000000000000000000\n      dup2\n      mstore\n      0x04\n      add\n      tag_83\n      swap1\n      tag_84\n      jump\t// in\n    tag_83:\n      mload(0x40)\n      dup1\n      swap2\n      sub\n      swap1\n      revert\n    tag_82:\n        /* \"Hackathon/SweatToken.sol\":2489:2510  uint256 newPriceInUSD */\n      0x00\n        /* \"Hackathon/SweatToken.sol\":2531:2539  decimals */\n      0x02\n      0x00\n      swap1\n      sload\n      swap1\n      0x0100\n      exp\n      swap1\n      div\n      0xff\n      and\n        /* \"Hackathon/SweatToken.sol\":2523:2540  uint256(decimals) */\n      0xff\n      and\n        /* \"Hackathon/SweatToken.sol\":2517:2519  10 */\n      0x0a\n        /* \"Hackathon/SweatToken.sol\":2517:2540  10 ** uint256(decimals) */\n      tag_86\n      swap2\n      swap1\n      tag_87\n      jump\t// in\n    tag_86:\n        /* \"Hackathon/SweatToken.sol\":2513:2514  2 */\n      0x02\n        /* \"Hackathon/SweatToken.sol\":2513:2540  2 * 10 ** uint256(decimals) */\n      tag_88\n      swap2\n      swap1\n      tag_89\n      jump\t// in\n    tag_88:\n        /* \"Hackathon/SweatToken.sol\":2489:2540  uint256 newPriceInUSD = 2 * 10 ** uint256(decimals) */\n      swap1\n      pop\n        /* \"Hackathon/SweatToken.sol\":2556:2582  PriceUpdate(newPriceInUSD) */\n      0xae46785019700e30375a5d7b4f91e32f8060ef085111f896ebf889450aa2ab5a\n        /* \"Hackathon/SweatToken.sol\":2568:2581  newPriceInUSD */\n      dup2\n        /* \"Hackathon/SweatToken.sol\":2556:2582  PriceUpdate(newPriceInUSD) */\n      mload(0x40)\n      tag_90\n      swap2\n      swap1\n      tag_21\n      jump\t// in\n    tag_90:\n      mload(0x40)\n      dup1\n      swap2\n      sub\n      swap1\n      log1\n        /* \"Hackathon/SweatToken.sol\":2215:2590  {... */\n      pop\n        /* \"Hackathon/SweatToken.sol\":2168:2590  function updateSweatPrice() external onlyOwner {... */\n      jump\t// out\n        /* \"Hackathon/SweatToken.sol\":1820:2100  function getSweatPriceInUSD() external view returns (uint256) {... */\n    tag_51:\n        /* \"Hackathon/SweatToken.sol\":1873:1880  uint256 */\n      0x00\n        /* \"Hackathon/SweatToken.sol\":1893:1910  int ethPriceInUSD */\n      dup1\n        /* \"Hackathon/SweatToken.sol\":1913:1931  getETHPriceInUSD() */\n      tag_92\n        /* \"Hackathon/SweatToken.sol\":1913:1929  getETHPriceInUSD */\n      tag_45\n        /* \"Hackathon/SweatToken.sol\":1913:1931  getETHPriceInUSD() */\n      jump\t// in\n    tag_92:\n        /* \"Hackathon/SweatToken.sol\":1893:1931  int ethPriceInUSD = getETHPriceInUSD() */\n      swap1\n      pop\n        /* \"Hackathon/SweatToken.sol\":1942:1965  uint256 sweatPriceInETH */\n      0x00\n        /* \"Hackathon/SweatToken.sol\":1968:1969  1 */\n      0x01\n        /* \"Hackathon/SweatToken.sol\":1942:1969  uint256 sweatPriceInETH = 1 */\n      swap1\n      pop\n        /* \"Hackathon/SweatToken.sol\":2077:2092  sweatPriceInETH */\n      dup1\n        /* \"Hackathon/SweatToken.sol\":2060:2073  ethPriceInUSD */\n      dup3\n        /* \"Hackathon/SweatToken.sol\":2052:2092  uint256(ethPriceInUSD) * sweatPriceInETH */\n      tag_93\n      swap2\n      swap1\n      tag_89\n      jump\t// in\n    tag_93:\n        /* \"Hackathon/SweatToken.sol\":2045:2092  return uint256(ethPriceInUSD) * sweatPriceInETH */\n      swap3\n      pop\n      pop\n      pop\n        /* \"Hackathon/SweatToken.sol\":1820:2100  function getSweatPriceInUSD() external view returns (uint256) {... */\n      swap1\n      jump\t// out\n        /* \"#utility.yul\":7:106   */\n    tag_94:\n        /* \"#utility.yul\":59:65   */\n      0x00\n        /* \"#utility.yul\":93:98   */\n      dup2\n        /* \"#utility.yul\":87:99   */\n      mload\n        /* \"#utility.yul\":77:99   */\n      swap1\n      pop\n        /* \"#utility.yul\":7:106   */\n      swap2\n      swap1\n      pop\n      jump\t// out\n        /* \"#utility.yul\":112:281   */\n    tag_95:\n        /* \"#utility.yul\":196:207   */\n      0x00\n        /* \"#utility.yul\":230:236   */\n      dup3\n        /* \"#utility.yul\":225:228   */\n      dup3\n        /* \"#utility.yul\":218:237   */\n      mstore\n        /* \"#utility.yul\":270:274   */\n      0x20\n        /* \"#utility.yul\":265:268   */\n      dup3\n        /* \"#utility.yul\":261:275   */\n      add\n        /* \"#utility.yul\":246:275   */\n      swap1\n      pop\n        /* \"#utility.yul\":112:281   */\n      swap3\n      swap2\n      pop\n      pop\n      jump\t// out\n        /* \"#utility.yul\":287:533   */\n    tag_96:\n        /* \"#utility.yul\":368:369   */\n      0x00\n        /* \"#utility.yul\":378:491   */\n    tag_138:\n        /* \"#utility.yul\":392:398   */\n      dup4\n        /* \"#utility.yul\":389:390   */\n      dup2\n        /* \"#utility.yul\":386:399   */\n      lt\n        /* \"#utility.yul\":378:491   */\n      iszero\n      tag_140\n      jumpi\n        /* \"#utility.yul\":477:478   */\n      dup1\n        /* \"#utility.yul\":472:475   */\n      dup3\n        /* \"#utility.yul\":468:479   */\n      add\n        /* \"#utility.yul\":462:480   */\n      mload\n        /* \"#utility.yul\":458:459   */\n      dup2\n        /* \"#utility.yul\":453:456   */\n      dup5\n        /* \"#utility.yul\":449:460   */\n      add\n        /* \"#utility.yul\":442:481   */\n      mstore\n        /* \"#utility.yul\":414:416   */\n      0x20\n        /* \"#utility.yul\":411:412   */\n      dup2\n        /* \"#utility.yul\":407:417   */\n      add\n        /* \"#utility.yul\":402:417   */\n      swap1\n      pop\n        /* \"#utility.yul\":378:491   */\n      jump(tag_138)\n    tag_140:\n        /* \"#utility.yul\":525:526   */\n      0x00\n        /* \"#utility.yul\":516:522   */\n      dup5\n        /* \"#utility.yul\":511:514   */\n      dup5\n        /* \"#utility.yul\":507:523   */\n      add\n        /* \"#utility.yul\":500:527   */\n      mstore\n        /* \"#utility.yul\":349:533   */\n      pop\n        /* \"#utility.yul\":287:533   */\n      pop\n      pop\n      pop\n      jump\t// out\n        /* \"#utility.yul\":539:641   */\n    tag_97:\n        /* \"#utility.yul\":580:586   */\n      0x00\n        /* \"#utility.yul\":631:633   */\n      0x1f\n        /* \"#utility.yul\":627:634   */\n      not\n        /* \"#utility.yul\":622:624   */\n      0x1f\n        /* \"#utility.yul\":615:620   */\n      dup4\n        /* \"#utility.yul\":611:625   */\n      add\n        /* \"#utility.yul\":607:635   */\n      and\n        /* \"#utility.yul\":597:635   */\n      swap1\n      pop\n        /* \"#utility.yul\":539:641   */\n      swap2\n      swap1\n      pop\n      jump\t// out\n        /* \"#utility.yul\":647:1024   */\n    tag_98:\n        /* \"#utility.yul\":735:738   */\n      0x00\n        /* \"#utility.yul\":763:802   */\n      tag_143\n        /* \"#utility.yul\":796:801   */\n      dup3\n        /* \"#utility.yul\":763:802   */\n      tag_94\n      jump\t// in\n    tag_143:\n        /* \"#utility.yul\":818:889   */\n      tag_144\n        /* \"#utility.yul\":882:888   */\n      dup2\n        /* \"#utility.yul\":877:880   */\n      dup6\n        /* \"#utility.yul\":818:889   */\n      tag_95\n      jump\t// in\n    tag_144:\n        /* \"#utility.yul\":811:889   */\n      swap4\n      pop\n        /* \"#utility.yul\":898:963   */\n      tag_145\n        /* \"#utility.yul\":956:962   */\n      dup2\n        /* \"#utility.yul\":951:954   */\n      dup6\n        /* \"#utility.yul\":944:948   */\n      0x20\n        /* \"#utility.yul\":937:942   */\n      dup7\n        /* \"#utility.yul\":933:949   */\n      add\n        /* \"#utility.yul\":898:963   */\n      tag_96\n      jump\t// in\n    tag_145:\n        /* \"#utility.yul\":988:1017   */\n      tag_146\n        /* \"#utility.yul\":1010:1016   */\n      dup2\n        /* \"#utility.yul\":988:1017   */\n      tag_97\n      jump\t// in\n    tag_146:\n        /* \"#utility.yul\":983:986   */\n      dup5\n        /* \"#utility.yul\":979:1018   */\n      add\n        /* \"#utility.yul\":972:1018   */\n      swap2\n      pop\n        /* \"#utility.yul\":739:1024   */\n      pop\n        /* \"#utility.yul\":647:1024   */\n      swap3\n      swap2\n      pop\n      pop\n      jump\t// out\n        /* \"#utility.yul\":1030:1343   */\n    tag_17:\n        /* \"#utility.yul\":1143:1147   */\n      0x00\n        /* \"#utility.yul\":1181:1183   */\n      0x20\n        /* \"#utility.yul\":1170:1179   */\n      dup3\n        /* \"#utility.yul\":1166:1184   */\n      add\n        /* \"#utility.yul\":1158:1184   */\n      swap1\n      pop\n        /* \"#utility.yul\":1230:1239   */\n      dup2\n        /* \"#utility.yul\":1224:1228   */\n      dup2\n        /* \"#utility.yul\":1220:1240   */\n      sub\n        /* \"#utility.yul\":1216:1217   */\n      0x00\n        /* \"#utility.yul\":1205:1214   */\n      dup4\n        /* \"#utility.yul\":1201:1218   */\n      add\n        /* \"#utility.yul\":1194:1241   */\n      mstore\n        /* \"#utility.yul\":1258:1336   */\n      tag_148\n        /* \"#utility.yul\":1331:1335   */\n      dup2\n        /* \"#utility.yul\":1322:1328   */\n      dup5\n        /* \"#utility.yul\":1258:1336   */\n      tag_98\n      jump\t// in\n    tag_148:\n        /* \"#utility.yul\":1250:1336   */\n      swap1\n      pop\n        /* \"#utility.yul\":1030:1343   */\n      swap3\n      swap2\n      pop\n      pop\n      jump\t// out\n        /* \"#utility.yul\":1349:1426   */\n    tag_99:\n        /* \"#utility.yul\":1386:1393   */\n      0x00\n        /* \"#utility.yul\":1415:1420   */\n      dup2\n        /* \"#utility.yul\":1404:1420   */\n      swap1\n      pop\n        /* \"#utility.yul\":1349:1426   */\n      swap2\n      swap1\n      pop\n      jump\t// out\n        /* \"#utility.yul\":1432:1550   */\n    tag_100:\n        /* \"#utility.yul\":1519:1543   */\n      tag_151\n        /* \"#utility.yul\":1537:1542   */\n      dup2\n        /* \"#utility.yul\":1519:1543   */\n      tag_99\n      jump\t// in\n    tag_151:\n        /* \"#utility.yul\":1514:1517   */\n      dup3\n        /* \"#utility.yul\":1507:1544   */\n      mstore\n        /* \"#utility.yul\":1432:1550   */\n      pop\n      pop\n      jump\t// out\n        /* \"#utility.yul\":1556:1778   */\n    tag_21:\n        /* \"#utility.yul\":1649:1653   */\n      0x00\n        /* \"#utility.yul\":1687:1689   */\n      0x20\n        /* \"#utility.yul\":1676:1685   */\n      dup3\n        /* \"#utility.yul\":1672:1690   */\n      add\n        /* \"#utility.yul\":1664:1690   */\n      swap1\n      pop\n        /* \"#utility.yul\":1700:1771   */\n      tag_153\n        /* \"#utility.yul\":1768:1769   */\n      0x00\n        /* \"#utility.yul\":1757:1766   */\n      dup4\n        /* \"#utility.yul\":1753:1770   */\n      add\n        /* \"#utility.yul\":1744:1750   */\n      dup5\n        /* \"#utility.yul\":1700:1771   */\n      tag_100\n      jump\t// in\n    tag_153:\n        /* \"#utility.yul\":1556:1778   */\n      swap3\n      swap2\n      pop\n      pop\n      jump\t// out\n        /* \"#utility.yul\":1784:1870   */\n    tag_101:\n        /* \"#utility.yul\":1819:1826   */\n      0x00\n        /* \"#utility.yul\":1859:1863   */\n      0xff\n        /* \"#utility.yul\":1852:1857   */\n      dup3\n        /* \"#utility.yul\":1848:1864   */\n      and\n        /* \"#utility.yul\":1837:1864   */\n      swap1\n      pop\n        /* \"#utility.yul\":1784:1870   */\n      swap2\n      swap1\n      pop\n      jump\t// out\n        /* \"#utility.yul\":1876:1988   */\n    tag_102:\n        /* \"#utility.yul\":1959:1981   */\n      tag_156\n        /* \"#utility.yul\":1975:1980   */\n      dup2\n        /* \"#utility.yul\":1959:1981   */\n      tag_101\n      jump\t// in\n    tag_156:\n        /* \"#utility.yul\":1954:1957   */\n      dup3\n        /* \"#utility.yul\":1947:1982   */\n      mstore\n        /* \"#utility.yul\":1876:1988   */\n      pop\n      pop\n      jump\t// out\n        /* \"#utility.yul\":1994:2208   */\n    tag_25:\n        /* \"#utility.yul\":2083:2087   */\n      0x00\n        /* \"#utility.yul\":2121:2123   */\n      0x20\n        /* \"#utility.yul\":2110:2119   */\n      dup3\n        /* \"#utility.yul\":2106:2124   */\n      add\n        /* \"#utility.yul\":2098:2124   */\n      swap1\n      pop\n        /* \"#utility.yul\":2134:2201   */\n      tag_158\n        /* \"#utility.yul\":2198:2199   */\n      0x00\n        /* \"#utility.yul\":2187:2196   */\n      dup4\n        /* \"#utility.yul\":2183:2200   */\n      add\n        /* \"#utility.yul\":2174:2180   */\n      dup5\n        /* \"#utility.yul\":2134:2201   */\n      tag_102\n      jump\t// in\n    tag_158:\n        /* \"#utility.yul\":1994:2208   */\n      swap3\n      swap2\n      pop\n      pop\n      jump\t// out\n        /* \"#utility.yul\":2295:2412   */\n    tag_104:\n        /* \"#utility.yul\":2404:2405   */\n      0x00\n        /* \"#utility.yul\":2401:2402   */\n      dup1\n        /* \"#utility.yul\":2394:2406   */\n      revert\n        /* \"#utility.yul\":2541:2667   */\n    tag_106:\n        /* \"#utility.yul\":2578:2585   */\n      0x00\n        /* \"#utility.yul\":2618:2660   */\n      0xffffffffffffffffffffffffffffffffffffffff\n        /* \"#utility.yul\":2611:2616   */\n      dup3\n        /* \"#utility.yul\":2607:2661   */\n      and\n        /* \"#utility.yul\":2596:2661   */\n      swap1\n      pop\n        /* \"#utility.yul\":2541:2667   */\n      swap2\n      swap1\n      pop\n      jump\t// out\n        /* \"#utility.yul\":2673:2769   */\n    tag_107:\n        /* \"#utility.yul\":2710:2717   */\n      0x00\n        /* \"#utility.yul\":2739:2763   */\n      tag_164\n        /* \"#utility.yul\":2757:2762   */\n      dup3\n        /* \"#utility.yul\":2739:2763   */\n      tag_106\n      jump\t// in\n    tag_164:\n        /* \"#utility.yul\":2728:2763   */\n      swap1\n      pop\n        /* \"#utility.yul\":2673:2769   */\n      swap2\n      swap1\n      pop\n      jump\t// out\n        /* \"#utility.yul\":2775:2897   */\n    tag_108:\n        /* \"#utility.yul\":2848:2872   */\n      tag_166\n        /* \"#utility.yul\":2866:2871   */\n      dup2\n        /* \"#utility.yul\":2848:2872   */\n      tag_107\n      jump\t// in\n    tag_166:\n        /* \"#utility.yul\":2841:2846   */\n      dup2\n        /* \"#utility.yul\":2838:2873   */\n      eq\n        /* \"#utility.yul\":2828:2891   */\n      tag_167\n      jumpi\n        /* \"#utility.yul\":2887:2888   */\n      0x00\n        /* \"#utility.yul\":2884:2885   */\n      dup1\n        /* \"#utility.yul\":2877:2889   */\n      revert\n        /* \"#utility.yul\":2828:2891   */\n    tag_167:\n        /* \"#utility.yul\":2775:2897   */\n      pop\n      jump\t// out\n        /* \"#utility.yul\":2903:3042   */\n    tag_109:\n        /* \"#utility.yul\":2949:2954   */\n      0x00\n        /* \"#utility.yul\":2987:2993   */\n      dup2\n        /* \"#utility.yul\":2974:2994   */\n      calldataload\n        /* \"#utility.yul\":2965:2994   */\n      swap1\n      pop\n        /* \"#utility.yul\":3003:3036   */\n      tag_169\n        /* \"#utility.yul\":3030:3035   */\n      dup2\n        /* \"#utility.yul\":3003:3036   */\n      tag_108\n      jump\t// in\n    tag_169:\n        /* \"#utility.yul\":2903:3042   */\n      swap3\n      swap2\n      pop\n      pop\n      jump\t// out\n        /* \"#utility.yul\":3048:3377   */\n    tag_28:\n        /* \"#utility.yul\":3107:3113   */\n      0x00\n        /* \"#utility.yul\":3156:3158   */\n      0x20\n        /* \"#utility.yul\":3144:3153   */\n      dup3\n        /* \"#utility.yul\":3135:3142   */\n      dup5\n        /* \"#utility.yul\":3131:3154   */\n      sub\n        /* \"#utility.yul\":3127:3159   */\n      slt\n        /* \"#utility.yul\":3124:3243   */\n      iszero\n      tag_171\n      jumpi\n        /* \"#utility.yul\":3162:3241   */\n      tag_172\n      tag_104\n      jump\t// in\n    tag_172:\n        /* \"#utility.yul\":3124:3243   */\n    tag_171:\n        /* \"#utility.yul\":3282:3283   */\n      0x00\n        /* \"#utility.yul\":3307:3360   */\n      tag_173\n        /* \"#utility.yul\":3352:3359   */\n      dup5\n        /* \"#utility.yul\":3343:3349   */\n      dup3\n        /* \"#utility.yul\":3332:3341   */\n      dup6\n        /* \"#utility.yul\":3328:3350   */\n      add\n        /* \"#utility.yul\":3307:3360   */\n      tag_109\n      jump\t// in\n    tag_173:\n        /* \"#utility.yul\":3297:3360   */\n      swap2\n      pop\n        /* \"#utility.yul\":3253:3370   */\n      pop\n        /* \"#utility.yul\":3048:3377   */\n      swap3\n      swap2\n      pop\n      pop\n      jump\t// out\n        /* \"#utility.yul\":3383:3501   */\n    tag_110:\n        /* \"#utility.yul\":3470:3494   */\n      tag_175\n        /* \"#utility.yul\":3488:3493   */\n      dup2\n        /* \"#utility.yul\":3470:3494   */\n      tag_107\n      jump\t// in\n    tag_175:\n        /* \"#utility.yul\":3465:3468   */\n      dup3\n        /* \"#utility.yul\":3458:3495   */\n      mstore\n        /* \"#utility.yul\":3383:3501   */\n      pop\n      pop\n      jump\t// out\n        /* \"#utility.yul\":3507:3729   */\n    tag_34:\n        /* \"#utility.yul\":3600:3604   */\n      0x00\n        /* \"#utility.yul\":3638:3640   */\n      0x20\n        /* \"#utility.yul\":3627:3636   */\n      dup3\n        /* \"#utility.yul\":3623:3641   */\n      add\n        /* \"#utility.yul\":3615:3641   */\n      swap1\n      pop\n        /* \"#utility.yul\":3651:3722   */\n      tag_177\n        /* \"#utility.yul\":3719:3720   */\n      0x00\n        /* \"#utility.yul\":3708:3717   */\n      dup4\n        /* \"#utility.yul\":3704:3721   */\n      add\n        /* \"#utility.yul\":3695:3701   */\n      dup5\n        /* \"#utility.yul\":3651:3722   */\n      tag_110\n      jump\t// in\n    tag_177:\n        /* \"#utility.yul\":3507:3729   */\n      swap3\n      swap2\n      pop\n      pop\n      jump\t// out\n        /* \"#utility.yul\":3735:3857   */\n    tag_111:\n        /* \"#utility.yul\":3808:3832   */\n      tag_179\n        /* \"#utility.yul\":3826:3831   */\n      dup2\n        /* \"#utility.yul\":3808:3832   */\n      tag_99\n      jump\t// in\n    tag_179:\n        /* \"#utility.yul\":3801:3806   */\n      dup2\n        /* \"#utility.yul\":3798:3833   */\n      eq\n        /* \"#utility.yul\":3788:3851   */\n      tag_180\n      jumpi\n        /* \"#utility.yul\":3847:3848   */\n      0x00\n        /* \"#utility.yul\":3844:3845   */\n      dup1\n        /* \"#utility.yul\":3837:3849   */\n      revert\n        /* \"#utility.yul\":3788:3851   */\n    tag_180:\n        /* \"#utility.yul\":3735:3857   */\n      pop\n      jump\t// out\n        /* \"#utility.yul\":3863:4002   */\n    tag_112:\n        /* \"#utility.yul\":3909:3914   */\n      0x00\n        /* \"#utility.yul\":3947:3953   */\n      dup2\n        /* \"#utility.yul\":3934:3954   */\n      calldataload\n        /* \"#utility.yul\":3925:3954   */\n      swap1\n      pop\n        /* \"#utility.yul\":3963:3996   */\n      tag_182\n        /* \"#utility.yul\":3990:3995   */\n      dup2\n        /* \"#utility.yul\":3963:3996   */\n      tag_111\n      jump\t// in\n    tag_182:\n        /* \"#utility.yul\":3863:4002   */\n      swap3\n      swap2\n      pop\n      pop\n      jump\t// out\n        /* \"#utility.yul\":4008:4482   */\n    tag_40:\n        /* \"#utility.yul\":4076:4082   */\n      0x00\n        /* \"#utility.yul\":4084:4090   */\n      dup1\n        /* \"#utility.yul\":4133:4135   */\n      0x40\n        /* \"#utility.yul\":4121:4130   */\n      dup4\n        /* \"#utility.yul\":4112:4119   */\n      dup6\n        /* \"#utility.yul\":4108:4131   */\n      sub\n        /* \"#utility.yul\":4104:4136   */\n      slt\n        /* \"#utility.yul\":4101:4220   */\n      iszero\n      tag_184\n      jumpi\n        /* \"#utility.yul\":4139:4218   */\n      tag_185\n      tag_104\n      jump\t// in\n    tag_185:\n        /* \"#utility.yul\":4101:4220   */\n    tag_184:\n        /* \"#utility.yul\":4259:4260   */\n      0x00\n        /* \"#utility.yul\":4284:4337   */\n      tag_186\n        /* \"#utility.yul\":4329:4336   */\n      dup6\n        /* \"#utility.yul\":4320:4326   */\n      dup3\n        /* \"#utility.yul\":4309:4318   */\n      dup7\n        /* \"#utility.yul\":4305:4327   */\n      add\n        /* \"#utility.yul\":4284:4337   */\n      tag_109\n      jump\t// in\n    tag_186:\n        /* \"#utility.yul\":4274:4337   */\n      swap3\n      pop\n        /* \"#utility.yul\":4230:4347   */\n      pop\n        /* \"#utility.yul\":4386:4388   */\n      0x20\n        /* \"#utility.yul\":4412:4465   */\n      tag_187\n        /* \"#utility.yul\":4457:4464   */\n      dup6\n        /* \"#utility.yul\":4448:4454   */\n      dup3\n        /* \"#utility.yul\":4437:4446   */\n      dup7\n        /* \"#utility.yul\":4433:4455   */\n      add\n        /* \"#utility.yul\":4412:4465   */\n      tag_112\n      jump\t// in\n    tag_187:\n        /* \"#utility.yul\":4402:4465   */\n      swap2\n      pop\n        /* \"#utility.yul\":4357:4475   */\n      pop\n        /* \"#utility.yul\":4008:4482   */\n      swap3\n      pop\n      swap3\n      swap1\n      pop\n      jump\t// out\n        /* \"#utility.yul\":4488:4578   */\n    tag_113:\n        /* \"#utility.yul\":4522:4529   */\n      0x00\n        /* \"#utility.yul\":4565:4570   */\n      dup2\n        /* \"#utility.yul\":4558:4571   */\n      iszero\n        /* \"#utility.yul\":4551:4572   */\n      iszero\n        /* \"#utility.yul\":4540:4572   */\n      swap1\n      pop\n        /* \"#utility.yul\":4488:4578   */\n      swap2\n      swap1\n      pop\n      jump\t// out\n        /* \"#utility.yul\":4584:4693   */\n    tag_114:\n        /* \"#utility.yul\":4665:4686   */\n      tag_190\n        /* \"#utility.yul\":4680:4685   */\n      dup2\n        /* \"#utility.yul\":4665:4686   */\n      tag_113\n      jump\t// in\n    tag_190:\n        /* \"#utility.yul\":4660:4663   */\n      dup3\n        /* \"#utility.yul\":4653:4687   */\n      mstore\n        /* \"#utility.yul\":4584:4693   */\n      pop\n      pop\n      jump\t// out\n        /* \"#utility.yul\":4699:4909   */\n    tag_43:\n        /* \"#utility.yul\":4786:4790   */\n      0x00\n        /* \"#utility.yul\":4824:4826   */\n      0x20\n        /* \"#utility.yul\":4813:4822   */\n      dup3\n        /* \"#utility.yul\":4809:4827   */\n      add\n        /* \"#utility.yul\":4801:4827   */\n      swap1\n      pop\n        /* \"#utility.yul\":4837:4902   */\n      tag_192\n        /* \"#utility.yul\":4899:4900   */\n      0x00\n        /* \"#utility.yul\":4888:4897   */\n      dup4\n        /* \"#utility.yul\":4884:4901   */\n      add\n        /* \"#utility.yul\":4875:4881   */\n      dup5\n        /* \"#utility.yul\":4837:4902   */\n      tag_114\n      jump\t// in\n    tag_192:\n        /* \"#utility.yul\":4699:4909   */\n      swap3\n      swap2\n      pop\n      pop\n      jump\t// out\n        /* \"#utility.yul\":4915:4991   */\n    tag_115:\n        /* \"#utility.yul\":4951:4958   */\n      0x00\n        /* \"#utility.yul\":4980:4985   */\n      dup2\n        /* \"#utility.yul\":4969:4985   */\n      swap1\n      pop\n        /* \"#utility.yul\":4915:4991   */\n      swap2\n      swap1\n      pop\n      jump\t// out\n        /* \"#utility.yul\":4997:5112   */\n    tag_116:\n        /* \"#utility.yul\":5082:5105   */\n      tag_195\n        /* \"#utility.yul\":5099:5104   */\n      dup2\n        /* \"#utility.yul\":5082:5105   */\n      tag_115\n      jump\t// in\n    tag_195:\n        /* \"#utility.yul\":5077:5080   */\n      dup3\n        /* \"#utility.yul\":5070:5106   */\n      mstore\n        /* \"#utility.yul\":4997:5112   */\n      pop\n      pop\n      jump\t// out\n        /* \"#utility.yul\":5118:5336   */\n    tag_47:\n        /* \"#utility.yul\":5209:5213   */\n      0x00\n        /* \"#utility.yul\":5247:5249   */\n      0x20\n        /* \"#utility.yul\":5236:5245   */\n      dup3\n        /* \"#utility.yul\":5232:5250   */\n      add\n        /* \"#utility.yul\":5224:5250   */\n      swap1\n      pop\n        /* \"#utility.yul\":5260:5329   */\n      tag_197\n        /* \"#utility.yul\":5326:5327   */\n      0x00\n        /* \"#utility.yul\":5315:5324   */\n      dup4\n        /* \"#utility.yul\":5311:5328   */\n      add\n        /* \"#utility.yul\":5302:5308   */\n      dup5\n        /* \"#utility.yul\":5260:5329   */\n      tag_116\n      jump\t// in\n    tag_197:\n        /* \"#utility.yul\":5118:5336   */\n      swap3\n      swap2\n      pop\n      pop\n      jump\t// out\n        /* \"#utility.yul\":5342:5522   */\n    tag_117:\n        /* \"#utility.yul\":5390:5467   */\n      0x4e487b7100000000000000000000000000000000000000000000000000000000\n        /* \"#utility.yul\":5387:5388   */\n      0x00\n        /* \"#utility.yul\":5380:5468   */\n      mstore\n        /* \"#utility.yul\":5487:5491   */\n      0x22\n        /* \"#utility.yul\":5484:5485   */\n      0x04\n        /* \"#utility.yul\":5477:5492   */\n      mstore\n        /* \"#utility.yul\":5511:5515   */\n      0x24\n        /* \"#utility.yul\":5508:5509   */\n      0x00\n        /* \"#utility.yul\":5501:5516   */\n      revert\n        /* \"#utility.yul\":5528:5848   */\n    tag_54:\n        /* \"#utility.yul\":5572:5578   */\n      0x00\n        /* \"#utility.yul\":5609:5610   */\n      0x02\n        /* \"#utility.yul\":5603:5607   */\n      dup3\n        /* \"#utility.yul\":5599:5611   */\n      div\n        /* \"#utility.yul\":5589:5611   */\n      swap1\n      pop\n        /* \"#utility.yul\":5656:5657   */\n      0x01\n        /* \"#utility.yul\":5650:5654   */\n      dup3\n        /* \"#utility.yul\":5646:5658   */\n      and\n        /* \"#utility.yul\":5677:5695   */\n      dup1\n        /* \"#utility.yul\":5667:5748   */\n      tag_200\n      jumpi\n        /* \"#utility.yul\":5733:5737   */\n      0x7f\n        /* \"#utility.yul\":5725:5731   */\n      dup3\n        /* \"#utility.yul\":5721:5738   */\n      and\n        /* \"#utility.yul\":5711:5738   */\n      swap2\n      pop\n        /* \"#utility.yul\":5667:5748   */\n    tag_200:\n        /* \"#utility.yul\":5795:5797   */\n      0x20\n        /* \"#utility.yul\":5787:5793   */\n      dup3\n        /* \"#utility.yul\":5784:5798   */\n      lt\n        /* \"#utility.yul\":5764:5782   */\n      dup2\n        /* \"#utility.yul\":5761:5799   */\n      sub\n        /* \"#utility.yul\":5758:5842   */\n      tag_201\n      jumpi\n        /* \"#utility.yul\":5814:5832   */\n      tag_202\n      tag_117\n      jump\t// in\n    tag_202:\n        /* \"#utility.yul\":5758:5842   */\n    tag_201:\n        /* \"#utility.yul\":5579:5848   */\n      pop\n        /* \"#utility.yul\":5528:5848   */\n      swap2\n      swap1\n      pop\n      jump\t// out\n        /* \"#utility.yul\":5854:6019   */\n    tag_118:\n        /* \"#utility.yul\":5994:6011   */\n      0x496e76616c696420616464726573730000000000000000000000000000000000\n        /* \"#utility.yul\":5990:5991   */\n      0x00\n        /* \"#utility.yul\":5982:5988   */\n      dup3\n        /* \"#utility.yul\":5978:5992   */\n      add\n        /* \"#utility.yul\":5971:6012   */\n      mstore\n        /* \"#utility.yul\":5854:6019   */\n      pop\n      jump\t// out\n        /* \"#utility.yul\":6025:6391   */\n    tag_119:\n        /* \"#utility.yul\":6167:6170   */\n      0x00\n        /* \"#utility.yul\":6188:6255   */\n      tag_205\n        /* \"#utility.yul\":6252:6254   */\n      0x0f\n        /* \"#utility.yul\":6247:6250   */\n      dup4\n        /* \"#utility.yul\":6188:6255   */\n      tag_95\n      jump\t// in\n    tag_205:\n        /* \"#utility.yul\":6181:6255   */\n      swap2\n      pop\n        /* \"#utility.yul\":6264:6357   */\n      tag_206\n        /* \"#utility.yul\":6353:6356   */\n      dup3\n        /* \"#utility.yul\":6264:6357   */\n      tag_118\n      jump\t// in\n    tag_206:\n        /* \"#utility.yul\":6382:6384   */\n      0x20\n        /* \"#utility.yul\":6377:6380   */\n      dup3\n        /* \"#utility.yul\":6373:6385   */\n      add\n        /* \"#utility.yul\":6366:6385   */\n      swap1\n      pop\n        /* \"#utility.yul\":6025:6391   */\n      swap2\n      swap1\n      pop\n      jump\t// out\n        /* \"#utility.yul\":6397:6816   */\n    tag_67:\n        /* \"#utility.yul\":6563:6567   */\n      0x00\n        /* \"#utility.yul\":6601:6603   */\n      0x20\n        /* \"#utility.yul\":6590:6599   */\n      dup3\n        /* \"#utility.yul\":6586:6604   */\n      add\n        /* \"#utility.yul\":6578:6604   */\n      swap1\n      pop\n        /* \"#utility.yul\":6650:6659   */\n      dup2\n        /* \"#utility.yul\":6644:6648   */\n      dup2\n        /* \"#utility.yul\":6640:6660   */\n      sub\n        /* \"#utility.yul\":6636:6637   */\n      0x00\n        /* \"#utility.yul\":6625:6634   */\n      dup4\n        /* \"#utility.yul\":6621:6638   */\n      add\n        /* \"#utility.yul\":6614:6661   */\n      mstore\n        /* \"#utility.yul\":6678:6809   */\n      tag_208\n        /* \"#utility.yul\":6804:6808   */\n      dup2\n        /* \"#utility.yul\":6678:6809   */\n      tag_119\n      jump\t// in\n    tag_208:\n        /* \"#utility.yul\":6670:6809   */\n      swap1\n      pop\n        /* \"#utility.yul\":6397:6816   */\n      swap2\n      swap1\n      pop\n      jump\t// out\n        /* \"#utility.yul\":6822:6992   */\n    tag_120:\n        /* \"#utility.yul\":6962:6984   */\n      0x496e73756666696369656e742062616c616e6365000000000000000000000000\n        /* \"#utility.yul\":6958:6959   */\n      0x00\n        /* \"#utility.yul\":6950:6956   */\n      dup3\n        /* \"#utility.yul\":6946:6960   */\n      add\n        /* \"#utility.yul\":6939:6985   */\n      mstore\n        /* \"#utility.yul\":6822:6992   */\n      pop\n      jump\t// out\n        /* \"#utility.yul\":6998:7364   */\n    tag_121:\n        /* \"#utility.yul\":7140:7143   */\n      0x00\n        /* \"#utility.yul\":7161:7228   */\n      tag_211\n        /* \"#utility.yul\":7225:7227   */\n      0x14\n        /* \"#utility.yul\":7220:7223   */\n      dup4\n        /* \"#utility.yul\":7161:7228   */\n      tag_95\n      jump\t// in\n    tag_211:\n        /* \"#utility.yul\":7154:7228   */\n      swap2\n      pop\n        /* \"#utility.yul\":7237:7330   */\n      tag_212\n        /* \"#utility.yul\":7326:7329   */\n      dup3\n        /* \"#utility.yul\":7237:7330   */\n      tag_120\n      jump\t// in\n    tag_212:\n        /* \"#utility.yul\":7355:7357   */\n      0x20\n        /* \"#utility.yul\":7350:7353   */\n      dup3\n        /* \"#utility.yul\":7346:7358   */\n      add\n        /* \"#utility.yul\":7339:7358   */\n      swap1\n      pop\n        /* \"#utility.yul\":6998:7364   */\n      swap2\n      swap1\n      pop\n      jump\t// out\n        /* \"#utility.yul\":7370:7789   */\n    tag_70:\n        /* \"#utility.yul\":7536:7540   */\n      0x00\n        /* \"#utility.yul\":7574:7576   */\n      0x20\n        /* \"#utility.yul\":7563:7572   */\n      dup3\n        /* \"#utility.yul\":7559:7577   */\n      add\n        /* \"#utility.yul\":7551:7577   */\n      swap1\n      pop\n        /* \"#utility.yul\":7623:7632   */\n      dup2\n        /* \"#utility.yul\":7617:7621   */\n      dup2\n        /* \"#utility.yul\":7613:7633   */\n      sub\n        /* \"#utility.yul\":7609:7610   */\n      0x00\n        /* \"#utility.yul\":7598:7607   */\n      dup4\n        /* \"#utility.yul\":7594:7611   */\n      add\n        /* \"#utility.yul\":7587:7634   */\n      mstore\n        /* \"#utility.yul\":7651:7782   */\n      tag_214\n        /* \"#utility.yul\":7777:7781   */\n      dup2\n        /* \"#utility.yul\":7651:7782   */\n      tag_121\n      jump\t// in\n    tag_214:\n        /* \"#utility.yul\":7643:7782   */\n      swap1\n      pop\n        /* \"#utility.yul\":7370:7789   */\n      swap2\n      swap1\n      pop\n      jump\t// out\n        /* \"#utility.yul\":7795:7975   */\n    tag_122:\n        /* \"#utility.yul\":7843:7920   */\n      0x4e487b7100000000000000000000000000000000000000000000000000000000\n        /* \"#utility.yul\":7840:7841   */\n      0x00\n        /* \"#utility.yul\":7833:7921   */\n      mstore\n        /* \"#utility.yul\":7940:7944   */\n      0x11\n        /* \"#utility.yul\":7937:7938   */\n      0x04\n        /* \"#utility.yul\":7930:7945   */\n      mstore\n        /* \"#utility.yul\":7964:7968   */\n      0x24\n        /* \"#utility.yul\":7961:7962   */\n      0x00\n        /* \"#utility.yul\":7954:7969   */\n      revert\n        /* \"#utility.yul\":7981:8175   */\n    tag_72:\n        /* \"#utility.yul\":8021:8025   */\n      0x00\n        /* \"#utility.yul\":8041:8061   */\n      tag_217\n        /* \"#utility.yul\":8059:8060   */\n      dup3\n        /* \"#utility.yul\":8041:8061   */\n      tag_99\n      jump\t// in\n    tag_217:\n        /* \"#utility.yul\":8036:8061   */\n      swap2\n      pop\n        /* \"#utility.yul\":8075:8095   */\n      tag_218\n        /* \"#utility.yul\":8093:8094   */\n      dup4\n        /* \"#utility.yul\":8075:8095   */\n      tag_99\n      jump\t// in\n    tag_218:\n        /* \"#utility.yul\":8070:8095   */\n      swap3\n      pop\n        /* \"#utility.yul\":8119:8120   */\n      dup3\n        /* \"#utility.yul\":8116:8117   */\n      dup3\n        /* \"#utility.yul\":8112:8121   */\n      sub\n        /* \"#utility.yul\":8104:8121   */\n      swap1\n      pop\n        /* \"#utility.yul\":8143:8144   */\n      dup2\n        /* \"#utility.yul\":8137:8141   */\n      dup2\n        /* \"#utility.yul\":8134:8145   */\n      gt\n        /* \"#utility.yul\":8131:8168   */\n      iszero\n      tag_219\n      jumpi\n        /* \"#utility.yul\":8148:8166   */\n      tag_220\n      tag_122\n      jump\t// in\n    tag_220:\n        /* \"#utility.yul\":8131:8168   */\n    tag_219:\n        /* \"#utility.yul\":7981:8175   */\n      swap3\n      swap2\n      pop\n      pop\n      jump\t// out\n        /* \"#utility.yul\":8181:8372   */\n    tag_74:\n        /* \"#utility.yul\":8221:8224   */\n      0x00\n        /* \"#utility.yul\":8240:8260   */\n      tag_222\n        /* \"#utility.yul\":8258:8259   */\n      dup3\n        /* \"#utility.yul\":8240:8260   */\n      tag_99\n      jump\t// in\n    tag_222:\n        /* \"#utility.yul\":8235:8260   */\n      swap2\n      pop\n        /* \"#utility.yul\":8274:8294   */\n      tag_223\n        /* \"#utility.yul\":8292:8293   */\n      dup4\n        /* \"#utility.yul\":8274:8294   */\n      tag_99\n      jump\t// in\n    tag_223:\n        /* \"#utility.yul\":8269:8294   */\n      swap3\n      pop\n        /* \"#utility.yul\":8317:8318   */\n      dup3\n        /* \"#utility.yul\":8314:8315   */\n      dup3\n        /* \"#utility.yul\":8310:8319   */\n      add\n        /* \"#utility.yul\":8303:8319   */\n      swap1\n      pop\n        /* \"#utility.yul\":8338:8341   */\n      dup1\n        /* \"#utility.yul\":8335:8336   */\n      dup3\n        /* \"#utility.yul\":8332:8342   */\n      gt\n        /* \"#utility.yul\":8329:8365   */\n      iszero\n      tag_224\n      jumpi\n        /* \"#utility.yul\":8345:8363   */\n      tag_225\n      tag_122\n      jump\t// in\n    tag_225:\n        /* \"#utility.yul\":8329:8365   */\n    tag_224:\n        /* \"#utility.yul\":8181:8372   */\n      swap3\n      swap2\n      pop\n      pop\n      jump\t// out\n        /* \"#utility.yul\":8378:8483   */\n    tag_123:\n        /* \"#utility.yul\":8414:8421   */\n      0x00\n        /* \"#utility.yul\":8454:8476   */\n      0xffffffffffffffffffff\n        /* \"#utility.yul\":8447:8452   */\n      dup3\n        /* \"#utility.yul\":8443:8477   */\n      and\n        /* \"#utility.yul\":8432:8477   */\n      swap1\n      pop\n        /* \"#utility.yul\":8378:8483   */\n      swap2\n      swap1\n      pop\n      jump\t// out\n        /* \"#utility.yul\":8489:8609   */\n    tag_124:\n        /* \"#utility.yul\":8561:8584   */\n      tag_228\n        /* \"#utility.yul\":8578:8583   */\n      dup2\n        /* \"#utility.yul\":8561:8584   */\n      tag_123\n      jump\t// in\n    tag_228:\n        /* \"#utility.yul\":8554:8559   */\n      dup2\n        /* \"#utility.yul\":8551:8585   */\n      eq\n        /* \"#utility.yul\":8541:8603   */\n      tag_229\n      jumpi\n        /* \"#utility.yul\":8599:8600   */\n      0x00\n        /* \"#utility.yul\":8596:8597   */\n      dup1\n        /* \"#utility.yul\":8589:8601   */\n      revert\n        /* \"#utility.yul\":8541:8603   */\n    tag_229:\n        /* \"#utility.yul\":8489:8609   */\n      pop\n      jump\t// out\n        /* \"#utility.yul\":8615:8756   */\n    tag_125:\n        /* \"#utility.yul\":8671:8676   */\n      0x00\n        /* \"#utility.yul\":8702:8708   */\n      dup2\n        /* \"#utility.yul\":8696:8709   */\n      mload\n        /* \"#utility.yul\":8687:8709   */\n      swap1\n      pop\n        /* \"#utility.yul\":8718:8750   */\n      tag_231\n        /* \"#utility.yul\":8744:8749   */\n      dup2\n        /* \"#utility.yul\":8718:8750   */\n      tag_124\n      jump\t// in\n    tag_231:\n        /* \"#utility.yul\":8615:8756   */\n      swap3\n      swap2\n      pop\n      pop\n      jump\t// out\n        /* \"#utility.yul\":8762:8882   */\n    tag_126:\n        /* \"#utility.yul\":8834:8857   */\n      tag_233\n        /* \"#utility.yul\":8851:8856   */\n      dup2\n        /* \"#utility.yul\":8834:8857   */\n      tag_115\n      jump\t// in\n    tag_233:\n        /* \"#utility.yul\":8827:8832   */\n      dup2\n        /* \"#utility.yul\":8824:8858   */\n      eq\n        /* \"#utility.yul\":8814:8876   */\n      tag_234\n      jumpi\n        /* \"#utility.yul\":8872:8873   */\n      0x00\n        /* \"#utility.yul\":8869:8870   */\n      dup1\n        /* \"#utility.yul\":8862:8874   */\n      revert\n        /* \"#utility.yul\":8814:8876   */\n    tag_234:\n        /* \"#utility.yul\":8762:8882   */\n      pop\n      jump\t// out\n        /* \"#utility.yul\":8888:9029   */\n    tag_127:\n        /* \"#utility.yul\":8944:8949   */\n      0x00\n        /* \"#utility.yul\":8975:8981   */\n      dup2\n        /* \"#utility.yul\":8969:8982   */\n      mload\n        /* \"#utility.yul\":8960:8982   */\n      swap1\n      pop\n        /* \"#utility.yul\":8991:9023   */\n      tag_236\n        /* \"#utility.yul\":9017:9022   */\n      dup2\n        /* \"#utility.yul\":8991:9023   */\n      tag_126\n      jump\t// in\n    tag_236:\n        /* \"#utility.yul\":8888:9029   */\n      swap3\n      swap2\n      pop\n      pop\n      jump\t// out\n        /* \"#utility.yul\":9035:9178   */\n    tag_128:\n        /* \"#utility.yul\":9092:9097   */\n      0x00\n        /* \"#utility.yul\":9123:9129   */\n      dup2\n        /* \"#utility.yul\":9117:9130   */\n      mload\n        /* \"#utility.yul\":9108:9130   */\n      swap1\n      pop\n        /* \"#utility.yul\":9139:9172   */\n      tag_238\n        /* \"#utility.yul\":9166:9171   */\n      dup2\n        /* \"#utility.yul\":9139:9172   */\n      tag_111\n      jump\t// in\n    tag_238:\n        /* \"#utility.yul\":9035:9178   */\n      swap3\n      swap2\n      pop\n      pop\n      jump\t// out\n        /* \"#utility.yul\":9184:10155   */\n    tag_80:\n        /* \"#utility.yul\":9287:9293   */\n      0x00\n        /* \"#utility.yul\":9295:9301   */\n      dup1\n        /* \"#utility.yul\":9303:9309   */\n      0x00\n        /* \"#utility.yul\":9311:9317   */\n      dup1\n        /* \"#utility.yul\":9319:9325   */\n      0x00\n        /* \"#utility.yul\":9368:9371   */\n      0xa0\n        /* \"#utility.yul\":9356:9365   */\n      dup7\n        /* \"#utility.yul\":9347:9354   */\n      dup9\n        /* \"#utility.yul\":9343:9366   */\n      sub\n        /* \"#utility.yul\":9339:9372   */\n      slt\n        /* \"#utility.yul\":9336:9456   */\n      iszero\n      tag_240\n      jumpi\n        /* \"#utility.yul\":9375:9454   */\n      tag_241\n      tag_104\n      jump\t// in\n    tag_241:\n        /* \"#utility.yul\":9336:9456   */\n    tag_240:\n        /* \"#utility.yul\":9495:9496   */\n      0x00\n        /* \"#utility.yul\":9520:9583   */\n      tag_242\n        /* \"#utility.yul\":9575:9582   */\n      dup9\n        /* \"#utility.yul\":9566:9572   */\n      dup3\n        /* \"#utility.yul\":9555:9564   */\n      dup10\n        /* \"#utility.yul\":9551:9573   */\n      add\n        /* \"#utility.yul\":9520:9583   */\n      tag_125\n      jump\t// in\n    tag_242:\n        /* \"#utility.yul\":9510:9583   */\n      swap6\n      pop\n        /* \"#utility.yul\":9466:9593   */\n      pop\n        /* \"#utility.yul\":9632:9634   */\n      0x20\n        /* \"#utility.yul\":9658:9721   */\n      tag_243\n        /* \"#utility.yul\":9713:9720   */\n      dup9\n        /* \"#utility.yul\":9704:9710   */\n      dup3\n        /* \"#utility.yul\":9693:9702   */\n      dup10\n        /* \"#utility.yul\":9689:9711   */\n      add\n        /* \"#utility.yul\":9658:9721   */\n      tag_127\n      jump\t// in\n    tag_243:\n        /* \"#utility.yul\":9648:9721   */\n      swap5\n      pop\n        /* \"#utility.yul\":9603:9731   */\n      pop\n        /* \"#utility.yul\":9770:9772   */\n      0x40\n        /* \"#utility.yul\":9796:9860   */\n      tag_244\n        /* \"#utility.yul\":9852:9859   */\n      dup9\n        /* \"#utility.yul\":9843:9849   */\n      dup3\n        /* \"#utility.yul\":9832:9841   */\n      dup10\n        /* \"#utility.yul\":9828:9850   */\n      add\n        /* \"#utility.yul\":9796:9860   */\n      tag_128\n      jump\t// in\n    tag_244:\n        /* \"#utility.yul\":9786:9860   */\n      swap4\n      pop\n        /* \"#utility.yul\":9741:9870   */\n      pop\n        /* \"#utility.yul\":9909:9911   */\n      0x60\n        /* \"#utility.yul\":9935:9999   */\n      tag_245\n        /* \"#utility.yul\":9991:9998   */\n      dup9\n        /* \"#utility.yul\":9982:9988   */\n      dup3\n        /* \"#utility.yul\":9971:9980   */\n      dup10\n        /* \"#utility.yul\":9967:9989   */\n      add\n        /* \"#utility.yul\":9935:9999   */\n      tag_128\n      jump\t// in\n    tag_245:\n        /* \"#utility.yul\":9925:9999   */\n      swap3\n      pop\n        /* \"#utility.yul\":9880:10009   */\n      pop\n        /* \"#utility.yul\":10048:10051   */\n      0x80\n        /* \"#utility.yul\":10075:10138   */\n      tag_246\n        /* \"#utility.yul\":10130:10137   */\n      dup9\n        /* \"#utility.yul\":10121:10127   */\n      dup3\n        /* \"#utility.yul\":10110:10119   */\n      dup10\n        /* \"#utility.yul\":10106:10128   */\n      add\n        /* \"#utility.yul\":10075:10138   */\n      tag_125\n      jump\t// in\n    tag_246:\n        /* \"#utility.yul\":10065:10138   */\n      swap2\n      pop\n        /* \"#utility.yul\":10019:10148   */\n      pop\n        /* \"#utility.yul\":9184:10155   */\n      swap3\n      swap6\n      pop\n      swap3\n      swap6\n      swap1\n      swap4\n      pop\n      jump\t// out\n        /* \"#utility.yul\":10161:10385   */\n    tag_129:\n        /* \"#utility.yul\":10301:10335   */\n      0x4f6e6c7920746865206f776e65722063616e2063616c6c20746869732066756e\n        /* \"#utility.yul\":10297:10298   */\n      0x00\n        /* \"#utility.yul\":10289:10295   */\n      dup3\n        /* \"#utility.yul\":10285:10299   */\n      add\n        /* \"#utility.yul\":10278:10336   */\n      mstore\n        /* \"#utility.yul\":10370:10377   */\n      0x6374696f6e000000000000000000000000000000000000000000000000000000\n        /* \"#utility.yul\":10365:10367   */\n      0x20\n        /* \"#utility.yul\":10357:10363   */\n      dup3\n        /* \"#utility.yul\":10353:10368   */\n      add\n        /* \"#utility.yul\":10346:10378   */\n      mstore\n        /* \"#utility.yul\":10161:10385   */\n      pop\n      jump\t// out\n        /* \"#utility.yul\":10391:10757   */\n    tag_130:\n        /* \"#utility.yul\":10533:10536   */\n      0x00\n        /* \"#utility.yul\":10554:10621   */\n      tag_249\n        /* \"#utility.yul\":10618:10620   */\n      0x25\n        /* \"#utility.yul\":10613:10616   */\n      dup4\n        /* \"#utility.yul\":10554:10621   */\n      tag_95\n      jump\t// in\n    tag_249:\n        /* \"#utility.yul\":10547:10621   */\n      swap2\n      pop\n        /* \"#utility.yul\":10630:10723   */\n      tag_250\n        /* \"#utility.yul\":10719:10722   */\n      dup3\n        /* \"#utility.yul\":10630:10723   */\n      tag_129\n      jump\t// in\n    tag_250:\n        /* \"#utility.yul\":10748:10750   */\n      0x40\n        /* \"#utility.yul\":10743:10746   */\n      dup3\n        /* \"#utility.yul\":10739:10751   */\n      add\n        /* \"#utility.yul\":10732:10751   */\n      swap1\n      pop\n        /* \"#utility.yul\":10391:10757   */\n      swap2\n      swap1\n      pop\n      jump\t// out\n        /* \"#utility.yul\":10763:11182   */\n    tag_84:\n        /* \"#utility.yul\":10929:10933   */\n      0x00\n        /* \"#utility.yul\":10967:10969   */\n      0x20\n        /* \"#utility.yul\":10956:10965   */\n      dup3\n        /* \"#utility.yul\":10952:10970   */\n      add\n        /* \"#utility.yul\":10944:10970   */\n      swap1\n      pop\n        /* \"#utility.yul\":11016:11025   */\n      dup2\n        /* \"#utility.yul\":11010:11014   */\n      dup2\n        /* \"#utility.yul\":11006:11026   */\n      sub\n        /* \"#utility.yul\":11002:11003   */\n      0x00\n        /* \"#utility.yul\":10991:11000   */\n      dup4\n        /* \"#utility.yul\":10987:11004   */\n      add\n        /* \"#utility.yul\":10980:11027   */\n      mstore\n        /* \"#utility.yul\":11044:11175   */\n      tag_252\n        /* \"#utility.yul\":11170:11174   */\n      dup2\n        /* \"#utility.yul\":11044:11175   */\n      tag_130\n      jump\t// in\n    tag_252:\n        /* \"#utility.yul\":11036:11175   */\n      swap1\n      pop\n        /* \"#utility.yul\":10763:11182   */\n      swap2\n      swap1\n      pop\n      jump\t// out\n        /* \"#utility.yul\":11188:11290   */\n    tag_131:\n        /* \"#utility.yul\":11230:11238   */\n      0x00\n        /* \"#utility.yul\":11277:11282   */\n      dup2\n        /* \"#utility.yul\":11274:11275   */\n      0x01\n        /* \"#utility.yul\":11270:11283   */\n      shr\n        /* \"#utility.yul\":11249:11283   */\n      swap1\n      pop\n        /* \"#utility.yul\":11188:11290   */\n      swap2\n      swap1\n      pop\n      jump\t// out\n        /* \"#utility.yul\":11296:12144   */\n    tag_132:\n        /* \"#utility.yul\":11357:11362   */\n      0x00\n        /* \"#utility.yul\":11364:11368   */\n      dup1\n        /* \"#utility.yul\":11388:11394   */\n      dup3\n        /* \"#utility.yul\":11379:11394   */\n      swap2\n      pop\n        /* \"#utility.yul\":11412:11417   */\n      dup4\n        /* \"#utility.yul\":11403:11417   */\n      swap1\n      pop\n        /* \"#utility.yul\":11426:12138   */\n    tag_255:\n        /* \"#utility.yul\":11447:11448   */\n      0x01\n        /* \"#utility.yul\":11437:11445   */\n      dup6\n        /* \"#utility.yul\":11434:11449   */\n      gt\n        /* \"#utility.yul\":11426:12138   */\n      iszero\n      tag_257\n      jumpi\n        /* \"#utility.yul\":11542:11546   */\n      dup1\n        /* \"#utility.yul\":11537:11540   */\n      dup7\n        /* \"#utility.yul\":11533:11547   */\n      div\n        /* \"#utility.yul\":11527:11531   */\n      dup2\n        /* \"#utility.yul\":11524:11548   */\n      gt\n        /* \"#utility.yul\":11521:11571   */\n      iszero\n      tag_258\n      jumpi\n        /* \"#utility.yul\":11551:11569   */\n      tag_259\n      tag_122\n      jump\t// in\n    tag_259:\n        /* \"#utility.yul\":11521:11571   */\n    tag_258:\n        /* \"#utility.yul\":11601:11602   */\n      0x01\n        /* \"#utility.yul\":11591:11599   */\n      dup6\n        /* \"#utility.yul\":11587:11603   */\n      and\n        /* \"#utility.yul\":11584:12035   */\n      iszero\n      tag_260\n      jumpi\n        /* \"#utility.yul\":12016:12020   */\n      dup1\n        /* \"#utility.yul\":12009:12014   */\n      dup3\n        /* \"#utility.yul\":12005:12021   */\n      mul\n        /* \"#utility.yul\":11996:12021   */\n      swap2\n      pop\n        /* \"#utility.yul\":11584:12035   */\n    tag_260:\n        /* \"#utility.yul\":12066:12070   */\n      dup1\n        /* \"#utility.yul\":12060:12064   */\n      dup2\n        /* \"#utility.yul\":12056:12071   */\n      mul\n        /* \"#utility.yul\":12048:12071   */\n      swap1\n      pop\n        /* \"#utility.yul\":12096:12128   */\n      tag_261\n        /* \"#utility.yul\":12119:12127   */\n      dup6\n        /* \"#utility.yul\":12096:12128   */\n      tag_131\n      jump\t// in\n    tag_261:\n        /* \"#utility.yul\":12084:12128   */\n      swap5\n      pop\n        /* \"#utility.yul\":11426:12138   */\n      jump(tag_255)\n    tag_257:\n        /* \"#utility.yul\":11296:12144   */\n      swap5\n      pop\n      swap5\n      swap3\n      pop\n      pop\n      pop\n      jump\t// out\n        /* \"#utility.yul\":12150:13223   */\n    tag_133:\n        /* \"#utility.yul\":12204:12209   */\n      0x00\n        /* \"#utility.yul\":12395:12403   */\n      dup3\n        /* \"#utility.yul\":12385:12425   */\n      tag_263\n      jumpi\n        /* \"#utility.yul\":12416:12417   */\n      0x01\n        /* \"#utility.yul\":12407:12417   */\n      swap1\n      pop\n        /* \"#utility.yul\":12418:12423   */\n      jump(tag_262)\n        /* \"#utility.yul\":12385:12425   */\n    tag_263:\n        /* \"#utility.yul\":12444:12448   */\n      dup2\n        /* \"#utility.yul\":12434:12470   */\n      tag_264\n      jumpi\n        /* \"#utility.yul\":12461:12462   */\n      0x00\n        /* \"#utility.yul\":12452:12462   */\n      swap1\n      pop\n        /* \"#utility.yul\":12463:12468   */\n      jump(tag_262)\n        /* \"#utility.yul\":12434:12470   */\n    tag_264:\n        /* \"#utility.yul\":12530:12534   */\n      dup2\n        /* \"#utility.yul\":12578:12579   */\n      0x01\n        /* \"#utility.yul\":12573:12600   */\n      dup2\n      eq\n      tag_266\n      jumpi\n        /* \"#utility.yul\":12614:12615   */\n      0x02\n        /* \"#utility.yul\":12609:12800   */\n      dup2\n      eq\n      tag_267\n      jumpi\n        /* \"#utility.yul\":12523:12800   */\n      jump(tag_265)\n        /* \"#utility.yul\":12573:12600   */\n    tag_266:\n        /* \"#utility.yul\":12591:12592   */\n      0x01\n        /* \"#utility.yul\":12582:12592   */\n      swap2\n      pop\n        /* \"#utility.yul\":12593:12598   */\n      pop\n      jump(tag_262)\n        /* \"#utility.yul\":12609:12800   */\n    tag_267:\n        /* \"#utility.yul\":12654:12657   */\n      0xff\n        /* \"#utility.yul\":12644:12652   */\n      dup5\n        /* \"#utility.yul\":12641:12658   */\n      gt\n        /* \"#utility.yul\":12638:12681   */\n      iszero\n      tag_268\n      jumpi\n        /* \"#utility.yul\":12661:12679   */\n      tag_269\n      tag_122\n      jump\t// in\n    tag_269:\n        /* \"#utility.yul\":12638:12681   */\n    tag_268:\n        /* \"#utility.yul\":12710:12718   */\n      dup4\n        /* \"#utility.yul\":12707:12708   */\n      0x02\n        /* \"#utility.yul\":12703:12719   */\n      exp\n        /* \"#utility.yul\":12694:12719   */\n      swap2\n      pop\n        /* \"#utility.yul\":12745:12748   */\n      dup5\n        /* \"#utility.yul\":12738:12743   */\n      dup3\n        /* \"#utility.yul\":12735:12749   */\n      gt\n        /* \"#utility.yul\":12732:12772   */\n      iszero\n      tag_270\n      jumpi\n        /* \"#utility.yul\":12752:12770   */\n      tag_271\n      tag_122\n      jump\t// in\n    tag_271:\n        /* \"#utility.yul\":12732:12772   */\n    tag_270:\n        /* \"#utility.yul\":12785:12790   */\n      pop\n      jump(tag_262)\n        /* \"#utility.yul\":12523:12800   */\n    tag_265:\n      pop\n        /* \"#utility.yul\":12909:12911   */\n      0x20\n        /* \"#utility.yul\":12899:12907   */\n      dup4\n        /* \"#utility.yul\":12896:12912   */\n      lt\n        /* \"#utility.yul\":12890:12893   */\n      0x0133\n        /* \"#utility.yul\":12884:12888   */\n      dup4\n        /* \"#utility.yul\":12881:12894   */\n      lt\n        /* \"#utility.yul\":12877:12913   */\n      and\n        /* \"#utility.yul\":12859:12861   */\n      0x4e\n        /* \"#utility.yul\":12849:12857   */\n      dup5\n        /* \"#utility.yul\":12846:12862   */\n      lt\n        /* \"#utility.yul\":12841:12843   */\n      0x0b\n        /* \"#utility.yul\":12835:12839   */\n      dup5\n        /* \"#utility.yul\":12832:12844   */\n      lt\n        /* \"#utility.yul\":12828:12863   */\n      and\n        /* \"#utility.yul\":12812:12923   */\n      or\n        /* \"#utility.yul\":12809:13055   */\n      iszero\n      tag_272\n      jumpi\n        /* \"#utility.yul\":12965:12973   */\n      dup3\n        /* \"#utility.yul\":12959:12963   */\n      dup3\n        /* \"#utility.yul\":12955:12974   */\n      exp\n        /* \"#utility.yul\":12946:12974   */\n      swap1\n      pop\n        /* \"#utility.yul\":13000:13003   */\n      dup4\n        /* \"#utility.yul\":12993:12998   */\n      dup2\n        /* \"#utility.yul\":12990:13004   */\n      gt\n        /* \"#utility.yul\":12987:13027   */\n      iszero\n      tag_273\n      jumpi\n        /* \"#utility.yul\":13007:13025   */\n      tag_274\n      tag_122\n      jump\t// in\n    tag_274:\n        /* \"#utility.yul\":12987:13027   */\n    tag_273:\n        /* \"#utility.yul\":13040:13045   */\n      jump(tag_262)\n        /* \"#utility.yul\":12809:13055   */\n    tag_272:\n        /* \"#utility.yul\":13080:13122   */\n      tag_275\n        /* \"#utility.yul\":13118:13121   */\n      dup5\n        /* \"#utility.yul\":13108:13116   */\n      dup5\n        /* \"#utility.yul\":13102:13106   */\n      dup5\n        /* \"#utility.yul\":13099:13100   */\n      0x01\n        /* \"#utility.yul\":13080:13122   */\n      tag_132\n      jump\t// in\n    tag_275:\n        /* \"#utility.yul\":13065:13122   */\n      swap3\n      pop\n      swap1\n      pop\n        /* \"#utility.yul\":13154:13158   */\n      dup2\n        /* \"#utility.yul\":13149:13152   */\n      dup5\n        /* \"#utility.yul\":13145:13159   */\n      div\n        /* \"#utility.yul\":13138:13143   */\n      dup2\n        /* \"#utility.yul\":13135:13160   */\n      gt\n        /* \"#utility.yul\":13132:13183   */\n      iszero\n      tag_276\n      jumpi\n        /* \"#utility.yul\":13163:13181   */\n      tag_277\n      tag_122\n      jump\t// in\n    tag_277:\n        /* \"#utility.yul\":13132:13183   */\n    tag_276:\n        /* \"#utility.yul\":13212:13216   */\n      dup2\n        /* \"#utility.yul\":13205:13210   */\n      dup2\n        /* \"#utility.yul\":13201:13217   */\n      mul\n        /* \"#utility.yul\":13192:13217   */\n      swap1\n      pop\n        /* \"#utility.yul\":12150:13223   */\n    tag_262:\n      swap4\n      swap3\n      pop\n      pop\n      pop\n      jump\t// out\n        /* \"#utility.yul\":13229:13514   */\n    tag_87:\n        /* \"#utility.yul\":13289:13294   */\n      0x00\n        /* \"#utility.yul\":13313:13336   */\n      tag_279\n        /* \"#utility.yul\":13331:13335   */\n      dup3\n        /* \"#utility.yul\":13313:13336   */\n      tag_99\n      jump\t// in\n    tag_279:\n        /* \"#utility.yul\":13305:13336   */\n      swap2\n      pop\n        /* \"#utility.yul\":13357:13384   */\n      tag_280\n        /* \"#utility.yul\":13375:13383   */\n      dup4\n        /* \"#utility.yul\":13357:13384   */\n      tag_99\n      jump\t// in\n    tag_280:\n        /* \"#utility.yul\":13345:13384   */\n      swap3\n      pop\n        /* \"#utility.yul\":13403:13507   */\n      tag_281\n        /* \"#utility.yul\":13440:13506   */\n      0xffffffffffffffffffffffffffffffffffffffffffffffffffffffffffffffff\n        /* \"#utility.yul\":13430:13438   */\n      dup5\n        /* \"#utility.yul\":13424:13428   */\n      dup5\n        /* \"#utility.yul\":13403:13507   */\n      tag_133\n      jump\t// in\n    tag_281:\n        /* \"#utility.yul\":13394:13507   */\n      swap1\n      pop\n        /* \"#utility.yul\":13229:13514   */\n      swap3\n      swap2\n      pop\n      pop\n      jump\t// out\n        /* \"#utility.yul\":13520:13930   */\n    tag_89:\n        /* \"#utility.yul\":13560:13567   */\n      0x00\n        /* \"#utility.yul\":13583:13603   */\n      tag_283\n        /* \"#utility.yul\":13601:13602   */\n      dup3\n        /* \"#utility.yul\":13583:13603   */\n      tag_99\n      jump\t// in\n    tag_283:\n        /* \"#utility.yul\":13578:13603   */\n      swap2\n      pop\n        /* \"#utility.yul\":13617:13637   */\n      tag_284\n        /* \"#utility.yul\":13635:13636   */\n      dup4\n        /* \"#utility.yul\":13617:13637   */\n      tag_99\n      jump\t// in\n    tag_284:\n        /* \"#utility.yul\":13612:13637   */\n      swap3\n      pop\n        /* \"#utility.yul\":13672:13673   */\n      dup3\n        /* \"#utility.yul\":13669:13670   */\n      dup3\n        /* \"#utility.yul\":13665:13674   */\n      mul\n        /* \"#utility.yul\":13694:13724   */\n      tag_285\n        /* \"#utility.yul\":13712:13723   */\n      dup2\n        /* \"#utility.yul\":13694:13724   */\n      tag_99\n      jump\t// in\n    tag_285:\n        /* \"#utility.yul\":13683:13724   */\n      swap2\n      pop\n        /* \"#utility.yul\":13873:13874   */\n      dup3\n        /* \"#utility.yul\":13864:13871   */\n      dup3\n        /* \"#utility.yul\":13860:13875   */\n      div\n        /* \"#utility.yul\":13857:13858   */\n      dup5\n        /* \"#utility.yul\":13854:13876   */\n      eq\n        /* \"#utility.yul\":13834:13835   */\n      dup4\n        /* \"#utility.yul\":13827:13836   */\n      iszero\n        /* \"#utility.yul\":13807:13890   */\n      or\n        /* \"#utility.yul\":13784:13923   */\n      tag_286\n      jumpi\n        /* \"#utility.yul\":13903:13921   */\n      tag_287\n      tag_122\n      jump\t// in\n    tag_287:\n        /* \"#utility.yul\":13784:13923   */\n    tag_286:\n        /* \"#utility.yul\":13568:13930   */\n      pop\n        /* \"#utility.yul\":13520:13930   */\n      swap3\n      swap2\n      pop\n      pop\n      jump\t// out\n\n    auxdata: 0xa26469706673582212204b18b71380d1fe4cbc0c3bb3f21a0a8098dc47edaad29342a23c8e8918b8431564736f6c63430008140033\n}\n",
				"bytecode": {
					"linkReferences": {},
					"object": "60806040526040518060400160405280600b81526020017f537765617420546f6b656e0000000000000000000000000000000000000000008152505f908162000049919062000454565b506040518060400160405280600581526020017f53574541540000000000000000000000000000000000000000000000000000008152506001908162000090919062000454565b50601260025f6101000a81548160ff021916908360ff160217905550348015620000b8575f80fd5b506040516200167e3803806200167e8339818101604052810190620000de91906200056b565b60025f9054906101000a900460ff1660ff16600a620000fe919062000718565b816200010b919062000768565b60038190555060035460055f3373ffffffffffffffffffffffffffffffffffffffff1673ffffffffffffffffffffffffffffffffffffffff1681526020019081526020015f20819055503360045f6101000a81548173ffffffffffffffffffffffffffffffffffffffff021916908373ffffffffffffffffffffffffffffffffffffffff160217905550739326bfa02add2366b30bacb125260af64103133160065f6101000a81548173ffffffffffffffffffffffffffffffffffffffff021916908373ffffffffffffffffffffffffffffffffffffffff16021790555050620007b2565b5f81519050919050565b7f4e487b71000000000000000000000000000000000000000000000000000000005f52604160045260245ffd5b7f4e487b71000000000000000000000000000000000000000000000000000000005f52602260045260245ffd5b5f60028204905060018216806200026c57607f821691505b60208210810362000282576200028162000227565b5b50919050565b5f819050815f5260205f209050919050565b5f6020601f8301049050919050565b5f82821b905092915050565b5f60088302620002e67fffffffffffffffffffffffffffffffffffffffffffffffffffffffffffffffff82620002a9565b620002f28683620002a9565b95508019841693508086168417925050509392505050565b5f819050919050565b5f819050919050565b5f6200033c6200033662000330846200030a565b62000313565b6200030a565b9050919050565b5f819050919050565b62000357836200031c565b6200036f620003668262000343565b848454620002b5565b825550505050565b5f90565b6200038562000377565b620003928184846200034c565b505050565b5b81811015620003b957620003ad5f826200037b565b60018101905062000398565b5050565b601f8211156200040857620003d28162000288565b620003dd846200029a565b81016020851015620003ed578190505b62000405620003fc856200029a565b83018262000397565b50505b505050565b5f82821c905092915050565b5f6200042a5f19846008026200040d565b1980831691505092915050565b5f62000444838362000419565b9150826002028217905092915050565b6200045f82620001f0565b67ffffffffffffffff8111156200047b576200047a620001fa565b5b62000487825462000254565b62000494828285620003bd565b5f60209050601f831160018114620004ca575f8415620004b5578287015190505b620004c1858262000437565b86555062000530565b601f198416620004da8662000288565b5f5b828110156200050357848901518255600182019150602085019450602081019050620004dc565b868310156200052357848901516200051f601f89168262000419565b8355505b6001600288020188555050505b505050505050565b5f80fd5b62000547816200030a565b811462000552575f80fd5b50565b5f8151905062000565816200053c565b92915050565b5f6020828403121562000583576200058262000538565b5b5f620005928482850162000555565b91505092915050565b7f4e487b71000000000000000000000000000000000000000000000000000000005f52601160045260245ffd5b5f8160011c9050919050565b5f808291508390505b60018511156200062557808604811115620005fd57620005fc6200059b565b5b60018516156200060d5780820291505b80810290506200061d85620005c8565b9450620005dd565b94509492505050565b5f826200063f576001905062000711565b816200064e575f905062000711565b81600181146200066757600281146200067257620006a8565b600191505062000711565b60ff8411156200068757620006866200059b565b5b8360020a915084821115620006a157620006a06200059b565b5b5062000711565b5060208310610133831016604e8410600b8410161715620006e25782820a905083811115620006dc57620006db6200059b565b5b62000711565b620006f18484846001620005d4565b925090508184048111156200070b576200070a6200059b565b5b81810290505b9392505050565b5f62000724826200030a565b915062000731836200030a565b9250620007607fffffffffffffffffffffffffffffffffffffffffffffffffffffffffffffffff84846200062e565b905092915050565b5f62000774826200030a565b915062000781836200030a565b925082820262000791816200030a565b91508282048414831517620007ab57620007aa6200059b565b5b5092915050565b610ebe80620007c05f395ff3fe608060405234801561000f575f80fd5b506004361061009c575f3560e01c806395d89b411161006457806395d89b4114610148578063a9059cbb14610166578063b62e3c5a14610196578063d7535c4d146101b4578063ef29af93146101be5761009c565b806306fdde03146100a057806318160ddd146100be578063313ce567146100dc57806370a08231146100fa5780638da5cb5b1461012a575b5f80fd5b6100a86101dc565b6040516100b5919061078a565b60405180910390f35b6100c6610267565b6040516100d391906107c2565b60405180910390f35b6100e461026d565b6040516100f191906107f6565b60405180910390f35b610114600480360381019061010f919061086d565b61027f565b60405161012191906107c2565b60405180910390f35b610132610294565b60405161013f91906108a7565b60405180910390f35b6101506102b9565b60405161015d919061078a565b60405180910390f35b610180600480360381019061017b91906108ea565b610345565b60405161018d9190610942565b60405180910390f35b61019e610549565b6040516101ab9190610973565b60405180910390f35b6101bc6105e6565b005b6101c66106dc565b6040516101d391906107c2565b60405180910390f35b5f80546101e8906109b9565b80601f0160208091040260200160405190810160405280929190818152602001828054610214906109b9565b801561025f5780601f106102365761010080835404028352916020019161025f565b820191905f5260205f20905b81548152906001019060200180831161024257829003601f168201915b505050505081565b60035481565b60025f9054906101000a900460ff1681565b6005602052805f5260405f205f915090505481565b60045f9054906101000a900473ffffffffffffffffffffffffffffffffffffffff1681565b600180546102c6906109b9565b80601f01602080910402602001604051908101604052809291908181526020018280546102f2906109b9565b801561033d5780601f106103145761010080835404028352916020019161033d565b820191905f5260205f20905b81548152906001019060200180831161032057829003601f168201915b505050505081565b5f8073ffffffffffffffffffffffffffffffffffffffff168373ffffffffffffffffffffffffffffffffffffffff16036103b4576040517f08c379a00000000000000000000000000000000000000000000000000000000081526004016103ab90610a33565b60405180910390fd5b8160055f3373ffffffffffffffffffffffffffffffffffffffff1673ffffffffffffffffffffffffffffffffffffffff1681526020019081526020015f20541015610434576040517f08c379a000000000000000000000000000000000000000000000000000000000815260040161042b90610a9b565b60405180910390fd5b8160055f3373ffffffffffffffffffffffffffffffffffffffff1673ffffffffffffffffffffffffffffffffffffffff1681526020019081526020015f205f8282546104809190610ae6565b925050819055508160055f8573ffffffffffffffffffffffffffffffffffffffff1673ffffffffffffffffffffffffffffffffffffffff1681526020019081526020015f205f8282546104d39190610b19565b925050819055508273ffffffffffffffffffffffffffffffffffffffff163373ffffffffffffffffffffffffffffffffffffffff167fddf252ad1be2c89b69c2b068fc378daa952ba7f163c4a11628f55a4df523b3ef8460405161053791906107c2565b60405180910390a36001905092915050565b5f8060065f9054906101000a900473ffffffffffffffffffffffffffffffffffffffff1673ffffffffffffffffffffffffffffffffffffffff1663feaf968c6040518163ffffffff1660e01b815260040160a060405180830381865afa1580156105b5573d5f803e3d5ffd5b505050506040513d601f19601f820116820180604052508101906105d99190610bc9565b5050509150508091505090565b60045f9054906101000a900473ffffffffffffffffffffffffffffffffffffffff1673ffffffffffffffffffffffffffffffffffffffff163373ffffffffffffffffffffffffffffffffffffffff1614610675576040517f08c379a000000000000000000000000000000000000000000000000000000000815260040161066c90610cb0565b60405180910390fd5b5f60025f9054906101000a900460ff1660ff16600a6106949190610dfd565b60026106a09190610e47565b90507fae46785019700e30375a5d7b4f91e32f8060ef085111f896ebf889450aa2ab5a816040516106d191906107c2565b60405180910390a150565b5f806106e6610549565b90505f6001905080826106f99190610e47565b9250505090565b5f81519050919050565b5f82825260208201905092915050565b5f5b8381101561073757808201518184015260208101905061071c565b5f8484015250505050565b5f601f19601f8301169050919050565b5f61075c82610700565b610766818561070a565b935061077681856020860161071a565b61077f81610742565b840191505092915050565b5f6020820190508181035f8301526107a28184610752565b905092915050565b5f819050919050565b6107bc816107aa565b82525050565b5f6020820190506107d55f8301846107b3565b92915050565b5f60ff82169050919050565b6107f0816107db565b82525050565b5f6020820190506108095f8301846107e7565b92915050565b5f80fd5b5f73ffffffffffffffffffffffffffffffffffffffff82169050919050565b5f61083c82610813565b9050919050565b61084c81610832565b8114610856575f80fd5b50565b5f8135905061086781610843565b92915050565b5f602082840312156108825761088161080f565b5b5f61088f84828501610859565b91505092915050565b6108a181610832565b82525050565b5f6020820190506108ba5f830184610898565b92915050565b6108c9816107aa565b81146108d3575f80fd5b50565b5f813590506108e4816108c0565b92915050565b5f8060408385031215610900576108ff61080f565b5b5f61090d85828601610859565b925050602061091e858286016108d6565b9150509250929050565b5f8115159050919050565b61093c81610928565b82525050565b5f6020820190506109555f830184610933565b92915050565b5f819050919050565b61096d8161095b565b82525050565b5f6020820190506109865f830184610964565b92915050565b7f4e487b71000000000000000000000000000000000000000000000000000000005f52602260045260245ffd5b5f60028204905060018216806109d057607f821691505b6020821081036109e3576109e261098c565b5b50919050565b7f496e76616c6964206164647265737300000000000000000000000000000000005f82015250565b5f610a1d600f8361070a565b9150610a28826109e9565b602082019050919050565b5f6020820190508181035f830152610a4a81610a11565b9050919050565b7f496e73756666696369656e742062616c616e63650000000000000000000000005f82015250565b5f610a8560148361070a565b9150610a9082610a51565b602082019050919050565b5f6020820190508181035f830152610ab281610a79565b9050919050565b7f4e487b71000000000000000000000000000000000000000000000000000000005f52601160045260245ffd5b5f610af0826107aa565b9150610afb836107aa565b9250828203905081811115610b1357610b12610ab9565b5b92915050565b5f610b23826107aa565b9150610b2e836107aa565b9250828201905080821115610b4657610b45610ab9565b5b92915050565b5f69ffffffffffffffffffff82169050919050565b610b6a81610b4c565b8114610b74575f80fd5b50565b5f81519050610b8581610b61565b92915050565b610b948161095b565b8114610b9e575f80fd5b50565b5f81519050610baf81610b8b565b92915050565b5f81519050610bc3816108c0565b92915050565b5f805f805f60a08688031215610be257610be161080f565b5b5f610bef88828901610b77565b9550506020610c0088828901610ba1565b9450506040610c1188828901610bb5565b9350506060610c2288828901610bb5565b9250506080610c3388828901610b77565b9150509295509295909350565b7f4f6e6c7920746865206f776e65722063616e2063616c6c20746869732066756e5f8201527f6374696f6e000000000000000000000000000000000000000000000000000000602082015250565b5f610c9a60258361070a565b9150610ca582610c40565b604082019050919050565b5f6020820190508181035f830152610cc781610c8e565b9050919050565b5f8160011c9050919050565b5f808291508390505b6001851115610d2357808604811115610cff57610cfe610ab9565b5b6001851615610d0e5780820291505b8081029050610d1c85610cce565b9450610ce3565b94509492505050565b5f82610d3b5760019050610df6565b81610d48575f9050610df6565b8160018114610d5e5760028114610d6857610d97565b6001915050610df6565b60ff841115610d7a57610d79610ab9565b5b8360020a915084821115610d9157610d90610ab9565b5b50610df6565b5060208310610133831016604e8410600b8410161715610dcc5782820a905083811115610dc757610dc6610ab9565b5b610df6565b610dd98484846001610cda565b92509050818404811115610df057610def610ab9565b5b81810290505b9392505050565b5f610e07826107aa565b9150610e12836107aa565b9250610e3f7fffffffffffffffffffffffffffffffffffffffffffffffffffffffffffffffff8484610d2c565b905092915050565b5f610e51826107aa565b9150610e5c836107aa565b9250828202610e6a816107aa565b91508282048414831517610e8157610e80610ab9565b5b509291505056fea26469706673582212204b18b71380d1fe4cbc0c3bb3f21a0a8098dc47edaad29342a23c8e8918b8431564736f6c63430008140033",
					"opcodes": "PUSH1 0x80 PUSH1 0x40 MSTORE PUSH1 0x40 MLOAD DUP1 PUSH1 0x40 ADD PUSH1 0x40 MSTORE DUP1 PUSH1 0xB DUP2 MSTORE PUSH1 0x20 ADD PUSH32 0x537765617420546F6B656E000000000000000000000000000000000000000000 DUP2 MSTORE POP PUSH0 SWAP1 DUP2 PUSH3 0x49 SWAP2 SWAP1 PUSH3 0x454 JUMP JUMPDEST POP PUSH1 0x40 MLOAD DUP1 PUSH1 0x40 ADD PUSH1 0x40 MSTORE DUP1 PUSH1 0x5 DUP2 MSTORE PUSH1 0x20 ADD PUSH32 0x5357454154000000000000000000000000000000000000000000000000000000 DUP2 MSTORE POP PUSH1 0x1 SWAP1 DUP2 PUSH3 0x90 SWAP2 SWAP1 PUSH3 0x454 JUMP JUMPDEST POP PUSH1 0x12 PUSH1 0x2 PUSH0 PUSH2 0x100 EXP DUP2 SLOAD DUP2 PUSH1 0xFF MUL NOT AND SWAP1 DUP4 PUSH1 0xFF AND MUL OR SWAP1 SSTORE POP CALLVALUE DUP1 ISZERO PUSH3 0xB8 JUMPI PUSH0 DUP1 REVERT JUMPDEST POP PUSH1 0x40 MLOAD PUSH3 0x167E CODESIZE SUB DUP1 PUSH3 0x167E DUP4 CODECOPY DUP2 DUP2 ADD PUSH1 0x40 MSTORE DUP2 ADD SWAP1 PUSH3 0xDE SWAP2 SWAP1 PUSH3 0x56B JUMP JUMPDEST PUSH1 0x2 PUSH0 SWAP1 SLOAD SWAP1 PUSH2 0x100 EXP SWAP1 DIV PUSH1 0xFF AND PUSH1 0xFF AND PUSH1 0xA PUSH3 0xFE SWAP2 SWAP1 PUSH3 0x718 JUMP JUMPDEST DUP2 PUSH3 0x10B SWAP2 SWAP1 PUSH3 0x768 JUMP JUMPDEST PUSH1 0x3 DUP2 SWAP1 SSTORE POP PUSH1 0x3 SLOAD PUSH1 0x5 PUSH0 CALLER PUSH20 0xFFFFFFFFFFFFFFFFFFFFFFFFFFFFFFFFFFFFFFFF AND PUSH20 0xFFFFFFFFFFFFFFFFFFFFFFFFFFFFFFFFFFFFFFFF AND DUP2 MSTORE PUSH1 0x20 ADD SWAP1 DUP2 MSTORE PUSH1 0x20 ADD PUSH0 KECCAK256 DUP2 SWAP1 SSTORE POP CALLER PUSH1 0x4 PUSH0 PUSH2 0x100 EXP DUP2 SLOAD DUP2 PUSH20 0xFFFFFFFFFFFFFFFFFFFFFFFFFFFFFFFFFFFFFFFF MUL NOT AND SWAP1 DUP4 PUSH20 0xFFFFFFFFFFFFFFFFFFFFFFFFFFFFFFFFFFFFFFFF AND MUL OR SWAP1 SSTORE POP PUSH20 0x9326BFA02ADD2366B30BACB125260AF641031331 PUSH1 0x6 PUSH0 PUSH2 0x100 EXP DUP2 SLOAD DUP2 PUSH20 0xFFFFFFFFFFFFFFFFFFFFFFFFFFFFFFFFFFFFFFFF MUL NOT AND SWAP1 DUP4 PUSH20 0xFFFFFFFFFFFFFFFFFFFFFFFFFFFFFFFFFFFFFFFF AND MUL OR SWAP1 SSTORE POP POP PUSH3 0x7B2 JUMP JUMPDEST PUSH0 DUP2 MLOAD SWAP1 POP SWAP2 SWAP1 POP JUMP JUMPDEST PUSH32 0x4E487B7100000000000000000000000000000000000000000000000000000000 PUSH0 MSTORE PUSH1 0x41 PUSH1 0x4 MSTORE PUSH1 0x24 PUSH0 REVERT JUMPDEST PUSH32 0x4E487B7100000000000000000000000000000000000000000000000000000000 PUSH0 MSTORE PUSH1 0x22 PUSH1 0x4 MSTORE PUSH1 0x24 PUSH0 REVERT JUMPDEST PUSH0 PUSH1 0x2 DUP3 DIV SWAP1 POP PUSH1 0x1 DUP3 AND DUP1 PUSH3 0x26C JUMPI PUSH1 0x7F DUP3 AND SWAP2 POP JUMPDEST PUSH1 0x20 DUP3 LT DUP2 SUB PUSH3 0x282 JUMPI PUSH3 0x281 PUSH3 0x227 JUMP JUMPDEST JUMPDEST POP SWAP2 SWAP1 POP JUMP JUMPDEST PUSH0 DUP2 SWAP1 POP DUP2 PUSH0 MSTORE PUSH1 0x20 PUSH0 KECCAK256 SWAP1 POP SWAP2 SWAP1 POP JUMP JUMPDEST PUSH0 PUSH1 0x20 PUSH1 0x1F DUP4 ADD DIV SWAP1 POP SWAP2 SWAP1 POP JUMP JUMPDEST PUSH0 DUP3 DUP3 SHL SWAP1 POP SWAP3 SWAP2 POP POP JUMP JUMPDEST PUSH0 PUSH1 0x8 DUP4 MUL PUSH3 0x2E6 PUSH32 0xFFFFFFFFFFFFFFFFFFFFFFFFFFFFFFFFFFFFFFFFFFFFFFFFFFFFFFFFFFFFFFFF DUP3 PUSH3 0x2A9 JUMP JUMPDEST PUSH3 0x2F2 DUP7 DUP4 PUSH3 0x2A9 JUMP JUMPDEST SWAP6 POP DUP1 NOT DUP5 AND SWAP4 POP DUP1 DUP7 AND DUP5 OR SWAP3 POP POP POP SWAP4 SWAP3 POP POP POP JUMP JUMPDEST PUSH0 DUP2 SWAP1 POP SWAP2 SWAP1 POP JUMP JUMPDEST PUSH0 DUP2 SWAP1 POP SWAP2 SWAP1 POP JUMP JUMPDEST PUSH0 PUSH3 0x33C PUSH3 0x336 PUSH3 0x330 DUP5 PUSH3 0x30A JUMP JUMPDEST PUSH3 0x313 JUMP JUMPDEST PUSH3 0x30A JUMP JUMPDEST SWAP1 POP SWAP2 SWAP1 POP JUMP JUMPDEST PUSH0 DUP2 SWAP1 POP SWAP2 SWAP1 POP JUMP JUMPDEST PUSH3 0x357 DUP4 PUSH3 0x31C JUMP JUMPDEST PUSH3 0x36F PUSH3 0x366 DUP3 PUSH3 0x343 JUMP JUMPDEST DUP5 DUP5 SLOAD PUSH3 0x2B5 JUMP JUMPDEST DUP3 SSTORE POP POP POP POP JUMP JUMPDEST PUSH0 SWAP1 JUMP JUMPDEST PUSH3 0x385 PUSH3 0x377 JUMP JUMPDEST PUSH3 0x392 DUP2 DUP5 DUP5 PUSH3 0x34C JUMP JUMPDEST POP POP POP JUMP JUMPDEST JUMPDEST DUP2 DUP2 LT ISZERO PUSH3 0x3B9 JUMPI PUSH3 0x3AD PUSH0 DUP3 PUSH3 0x37B JUMP JUMPDEST PUSH1 0x1 DUP2 ADD SWAP1 POP PUSH3 0x398 JUMP JUMPDEST POP POP JUMP JUMPDEST PUSH1 0x1F DUP3 GT ISZERO PUSH3 0x408 JUMPI PUSH3 0x3D2 DUP2 PUSH3 0x288 JUMP JUMPDEST PUSH3 0x3DD DUP5 PUSH3 0x29A JUMP JUMPDEST DUP2 ADD PUSH1 0x20 DUP6 LT ISZERO PUSH3 0x3ED JUMPI DUP2 SWAP1 POP JUMPDEST PUSH3 0x405 PUSH3 0x3FC DUP6 PUSH3 0x29A JUMP JUMPDEST DUP4 ADD DUP3 PUSH3 0x397 JUMP JUMPDEST POP POP JUMPDEST POP POP POP JUMP JUMPDEST PUSH0 DUP3 DUP3 SHR SWAP1 POP SWAP3 SWAP2 POP POP JUMP JUMPDEST PUSH0 PUSH3 0x42A PUSH0 NOT DUP5 PUSH1 0x8 MUL PUSH3 0x40D JUMP JUMPDEST NOT DUP1 DUP4 AND SWAP2 POP POP SWAP3 SWAP2 POP POP JUMP JUMPDEST PUSH0 PUSH3 0x444 DUP4 DUP4 PUSH3 0x419 JUMP JUMPDEST SWAP2 POP DUP3 PUSH1 0x2 MUL DUP3 OR SWAP1 POP SWAP3 SWAP2 POP POP JUMP JUMPDEST PUSH3 0x45F DUP3 PUSH3 0x1F0 JUMP JUMPDEST PUSH8 0xFFFFFFFFFFFFFFFF DUP2 GT ISZERO PUSH3 0x47B JUMPI PUSH3 0x47A PUSH3 0x1FA JUMP JUMPDEST JUMPDEST PUSH3 0x487 DUP3 SLOAD PUSH3 0x254 JUMP JUMPDEST PUSH3 0x494 DUP3 DUP3 DUP6 PUSH3 0x3BD JUMP JUMPDEST PUSH0 PUSH1 0x20 SWAP1 POP PUSH1 0x1F DUP4 GT PUSH1 0x1 DUP2 EQ PUSH3 0x4CA JUMPI PUSH0 DUP5 ISZERO PUSH3 0x4B5 JUMPI DUP3 DUP8 ADD MLOAD SWAP1 POP JUMPDEST PUSH3 0x4C1 DUP6 DUP3 PUSH3 0x437 JUMP JUMPDEST DUP7 SSTORE POP PUSH3 0x530 JUMP JUMPDEST PUSH1 0x1F NOT DUP5 AND PUSH3 0x4DA DUP7 PUSH3 0x288 JUMP JUMPDEST PUSH0 JUMPDEST DUP3 DUP2 LT ISZERO PUSH3 0x503 JUMPI DUP5 DUP10 ADD MLOAD DUP3 SSTORE PUSH1 0x1 DUP3 ADD SWAP2 POP PUSH1 0x20 DUP6 ADD SWAP5 POP PUSH1 0x20 DUP2 ADD SWAP1 POP PUSH3 0x4DC JUMP JUMPDEST DUP7 DUP4 LT ISZERO PUSH3 0x523 JUMPI DUP5 DUP10 ADD MLOAD PUSH3 0x51F PUSH1 0x1F DUP10 AND DUP3 PUSH3 0x419 JUMP JUMPDEST DUP4 SSTORE POP JUMPDEST PUSH1 0x1 PUSH1 0x2 DUP9 MUL ADD DUP9 SSTORE POP POP POP JUMPDEST POP POP POP POP POP POP JUMP JUMPDEST PUSH0 DUP1 REVERT JUMPDEST PUSH3 0x547 DUP2 PUSH3 0x30A JUMP JUMPDEST DUP2 EQ PUSH3 0x552 JUMPI PUSH0 DUP1 REVERT JUMPDEST POP JUMP JUMPDEST PUSH0 DUP2 MLOAD SWAP1 POP PUSH3 0x565 DUP2 PUSH3 0x53C JUMP JUMPDEST SWAP3 SWAP2 POP POP JUMP JUMPDEST PUSH0 PUSH1 0x20 DUP3 DUP5 SUB SLT ISZERO PUSH3 0x583 JUMPI PUSH3 0x582 PUSH3 0x538 JUMP JUMPDEST JUMPDEST PUSH0 PUSH3 0x592 DUP5 DUP3 DUP6 ADD PUSH3 0x555 JUMP JUMPDEST SWAP2 POP POP SWAP3 SWAP2 POP POP JUMP JUMPDEST PUSH32 0x4E487B7100000000000000000000000000000000000000000000000000000000 PUSH0 MSTORE PUSH1 0x11 PUSH1 0x4 MSTORE PUSH1 0x24 PUSH0 REVERT JUMPDEST PUSH0 DUP2 PUSH1 0x1 SHR SWAP1 POP SWAP2 SWAP1 POP JUMP JUMPDEST PUSH0 DUP1 DUP3 SWAP2 POP DUP4 SWAP1 POP JUMPDEST PUSH1 0x1 DUP6 GT ISZERO PUSH3 0x625 JUMPI DUP1 DUP7 DIV DUP2 GT ISZERO PUSH3 0x5FD JUMPI PUSH3 0x5FC PUSH3 0x59B JUMP JUMPDEST JUMPDEST PUSH1 0x1 DUP6 AND ISZERO PUSH3 0x60D JUMPI DUP1 DUP3 MUL SWAP2 POP JUMPDEST DUP1 DUP2 MUL SWAP1 POP PUSH3 0x61D DUP6 PUSH3 0x5C8 JUMP JUMPDEST SWAP5 POP PUSH3 0x5DD JUMP JUMPDEST SWAP5 POP SWAP5 SWAP3 POP POP POP JUMP JUMPDEST PUSH0 DUP3 PUSH3 0x63F JUMPI PUSH1 0x1 SWAP1 POP PUSH3 0x711 JUMP JUMPDEST DUP2 PUSH3 0x64E JUMPI PUSH0 SWAP1 POP PUSH3 0x711 JUMP JUMPDEST DUP2 PUSH1 0x1 DUP2 EQ PUSH3 0x667 JUMPI PUSH1 0x2 DUP2 EQ PUSH3 0x672 JUMPI PUSH3 0x6A8 JUMP JUMPDEST PUSH1 0x1 SWAP2 POP POP PUSH3 0x711 JUMP JUMPDEST PUSH1 0xFF DUP5 GT ISZERO PUSH3 0x687 JUMPI PUSH3 0x686 PUSH3 0x59B JUMP JUMPDEST JUMPDEST DUP4 PUSH1 0x2 EXP SWAP2 POP DUP5 DUP3 GT ISZERO PUSH3 0x6A1 JUMPI PUSH3 0x6A0 PUSH3 0x59B JUMP JUMPDEST JUMPDEST POP PUSH3 0x711 JUMP JUMPDEST POP PUSH1 0x20 DUP4 LT PUSH2 0x133 DUP4 LT AND PUSH1 0x4E DUP5 LT PUSH1 0xB DUP5 LT AND OR ISZERO PUSH3 0x6E2 JUMPI DUP3 DUP3 EXP SWAP1 POP DUP4 DUP2 GT ISZERO PUSH3 0x6DC JUMPI PUSH3 0x6DB PUSH3 0x59B JUMP JUMPDEST JUMPDEST PUSH3 0x711 JUMP JUMPDEST PUSH3 0x6F1 DUP5 DUP5 DUP5 PUSH1 0x1 PUSH3 0x5D4 JUMP JUMPDEST SWAP3 POP SWAP1 POP DUP2 DUP5 DIV DUP2 GT ISZERO PUSH3 0x70B JUMPI PUSH3 0x70A PUSH3 0x59B JUMP JUMPDEST JUMPDEST DUP2 DUP2 MUL SWAP1 POP JUMPDEST SWAP4 SWAP3 POP POP POP JUMP JUMPDEST PUSH0 PUSH3 0x724 DUP3 PUSH3 0x30A JUMP JUMPDEST SWAP2 POP PUSH3 0x731 DUP4 PUSH3 0x30A JUMP JUMPDEST SWAP3 POP PUSH3 0x760 PUSH32 0xFFFFFFFFFFFFFFFFFFFFFFFFFFFFFFFFFFFFFFFFFFFFFFFFFFFFFFFFFFFFFFFF DUP5 DUP5 PUSH3 0x62E JUMP JUMPDEST SWAP1 POP SWAP3 SWAP2 POP POP JUMP JUMPDEST PUSH0 PUSH3 0x774 DUP3 PUSH3 0x30A JUMP JUMPDEST SWAP2 POP PUSH3 0x781 DUP4 PUSH3 0x30A JUMP JUMPDEST SWAP3 POP DUP3 DUP3 MUL PUSH3 0x791 DUP2 PUSH3 0x30A JUMP JUMPDEST SWAP2 POP DUP3 DUP3 DIV DUP5 EQ DUP4 ISZERO OR PUSH3 0x7AB JUMPI PUSH3 0x7AA PUSH3 0x59B JUMP JUMPDEST JUMPDEST POP SWAP3 SWAP2 POP POP JUMP JUMPDEST PUSH2 0xEBE DUP1 PUSH3 0x7C0 PUSH0 CODECOPY PUSH0 RETURN INVALID PUSH1 0x80 PUSH1 0x40 MSTORE CALLVALUE DUP1 ISZERO PUSH2 0xF JUMPI PUSH0 DUP1 REVERT JUMPDEST POP PUSH1 0x4 CALLDATASIZE LT PUSH2 0x9C JUMPI PUSH0 CALLDATALOAD PUSH1 0xE0 SHR DUP1 PUSH4 0x95D89B41 GT PUSH2 0x64 JUMPI DUP1 PUSH4 0x95D89B41 EQ PUSH2 0x148 JUMPI DUP1 PUSH4 0xA9059CBB EQ PUSH2 0x166 JUMPI DUP1 PUSH4 0xB62E3C5A EQ PUSH2 0x196 JUMPI DUP1 PUSH4 0xD7535C4D EQ PUSH2 0x1B4 JUMPI DUP1 PUSH4 0xEF29AF93 EQ PUSH2 0x1BE JUMPI PUSH2 0x9C JUMP JUMPDEST DUP1 PUSH4 0x6FDDE03 EQ PUSH2 0xA0 JUMPI DUP1 PUSH4 0x18160DDD EQ PUSH2 0xBE JUMPI DUP1 PUSH4 0x313CE567 EQ PUSH2 0xDC JUMPI DUP1 PUSH4 0x70A08231 EQ PUSH2 0xFA JUMPI DUP1 PUSH4 0x8DA5CB5B EQ PUSH2 0x12A JUMPI JUMPDEST PUSH0 DUP1 REVERT JUMPDEST PUSH2 0xA8 PUSH2 0x1DC JUMP JUMPDEST PUSH1 0x40 MLOAD PUSH2 0xB5 SWAP2 SWAP1 PUSH2 0x78A JUMP JUMPDEST PUSH1 0x40 MLOAD DUP1 SWAP2 SUB SWAP1 RETURN JUMPDEST PUSH2 0xC6 PUSH2 0x267 JUMP JUMPDEST PUSH1 0x40 MLOAD PUSH2 0xD3 SWAP2 SWAP1 PUSH2 0x7C2 JUMP JUMPDEST PUSH1 0x40 MLOAD DUP1 SWAP2 SUB SWAP1 RETURN JUMPDEST PUSH2 0xE4 PUSH2 0x26D JUMP JUMPDEST PUSH1 0x40 MLOAD PUSH2 0xF1 SWAP2 SWAP1 PUSH2 0x7F6 JUMP JUMPDEST PUSH1 0x40 MLOAD DUP1 SWAP2 SUB SWAP1 RETURN JUMPDEST PUSH2 0x114 PUSH1 0x4 DUP1 CALLDATASIZE SUB DUP2 ADD SWAP1 PUSH2 0x10F SWAP2 SWAP1 PUSH2 0x86D JUMP JUMPDEST PUSH2 0x27F JUMP JUMPDEST PUSH1 0x40 MLOAD PUSH2 0x121 SWAP2 SWAP1 PUSH2 0x7C2 JUMP JUMPDEST PUSH1 0x40 MLOAD DUP1 SWAP2 SUB SWAP1 RETURN JUMPDEST PUSH2 0x132 PUSH2 0x294 JUMP JUMPDEST PUSH1 0x40 MLOAD PUSH2 0x13F SWAP2 SWAP1 PUSH2 0x8A7 JUMP JUMPDEST PUSH1 0x40 MLOAD DUP1 SWAP2 SUB SWAP1 RETURN JUMPDEST PUSH2 0x150 PUSH2 0x2B9 JUMP JUMPDEST PUSH1 0x40 MLOAD PUSH2 0x15D SWAP2 SWAP1 PUSH2 0x78A JUMP JUMPDEST PUSH1 0x40 MLOAD DUP1 SWAP2 SUB SWAP1 RETURN JUMPDEST PUSH2 0x180 PUSH1 0x4 DUP1 CALLDATASIZE SUB DUP2 ADD SWAP1 PUSH2 0x17B SWAP2 SWAP1 PUSH2 0x8EA JUMP JUMPDEST PUSH2 0x345 JUMP JUMPDEST PUSH1 0x40 MLOAD PUSH2 0x18D SWAP2 SWAP1 PUSH2 0x942 JUMP JUMPDEST PUSH1 0x40 MLOAD DUP1 SWAP2 SUB SWAP1 RETURN JUMPDEST PUSH2 0x19E PUSH2 0x549 JUMP JUMPDEST PUSH1 0x40 MLOAD PUSH2 0x1AB SWAP2 SWAP1 PUSH2 0x973 JUMP JUMPDEST PUSH1 0x40 MLOAD DUP1 SWAP2 SUB SWAP1 RETURN JUMPDEST PUSH2 0x1BC PUSH2 0x5E6 JUMP JUMPDEST STOP JUMPDEST PUSH2 0x1C6 PUSH2 0x6DC JUMP JUMPDEST PUSH1 0x40 MLOAD PUSH2 0x1D3 SWAP2 SWAP1 PUSH2 0x7C2 JUMP JUMPDEST PUSH1 0x40 MLOAD DUP1 SWAP2 SUB SWAP1 RETURN JUMPDEST PUSH0 DUP1 SLOAD PUSH2 0x1E8 SWAP1 PUSH2 0x9B9 JUMP JUMPDEST DUP1 PUSH1 0x1F ADD PUSH1 0x20 DUP1 SWAP2 DIV MUL PUSH1 0x20 ADD PUSH1 0x40 MLOAD SWAP1 DUP2 ADD PUSH1 0x40 MSTORE DUP1 SWAP3 SWAP2 SWAP1 DUP2 DUP2 MSTORE PUSH1 0x20 ADD DUP3 DUP1 SLOAD PUSH2 0x214 SWAP1 PUSH2 0x9B9 JUMP JUMPDEST DUP1 ISZERO PUSH2 0x25F JUMPI DUP1 PUSH1 0x1F LT PUSH2 0x236 JUMPI PUSH2 0x100 DUP1 DUP4 SLOAD DIV MUL DUP4 MSTORE SWAP2 PUSH1 0x20 ADD SWAP2 PUSH2 0x25F JUMP JUMPDEST DUP3 ADD SWAP2 SWAP1 PUSH0 MSTORE PUSH1 0x20 PUSH0 KECCAK256 SWAP1 JUMPDEST DUP2 SLOAD DUP2 MSTORE SWAP1 PUSH1 0x1 ADD SWAP1 PUSH1 0x20 ADD DUP1 DUP4 GT PUSH2 0x242 JUMPI DUP3 SWAP1 SUB PUSH1 0x1F AND DUP3 ADD SWAP2 JUMPDEST POP POP POP POP POP DUP2 JUMP JUMPDEST PUSH1 0x3 SLOAD DUP2 JUMP JUMPDEST PUSH1 0x2 PUSH0 SWAP1 SLOAD SWAP1 PUSH2 0x100 EXP SWAP1 DIV PUSH1 0xFF AND DUP2 JUMP JUMPDEST PUSH1 0x5 PUSH1 0x20 MSTORE DUP1 PUSH0 MSTORE PUSH1 0x40 PUSH0 KECCAK256 PUSH0 SWAP2 POP SWAP1 POP SLOAD DUP2 JUMP JUMPDEST PUSH1 0x4 PUSH0 SWAP1 SLOAD SWAP1 PUSH2 0x100 EXP SWAP1 DIV PUSH20 0xFFFFFFFFFFFFFFFFFFFFFFFFFFFFFFFFFFFFFFFF AND DUP2 JUMP JUMPDEST PUSH1 0x1 DUP1 SLOAD PUSH2 0x2C6 SWAP1 PUSH2 0x9B9 JUMP JUMPDEST DUP1 PUSH1 0x1F ADD PUSH1 0x20 DUP1 SWAP2 DIV MUL PUSH1 0x20 ADD PUSH1 0x40 MLOAD SWAP1 DUP2 ADD PUSH1 0x40 MSTORE DUP1 SWAP3 SWAP2 SWAP1 DUP2 DUP2 MSTORE PUSH1 0x20 ADD DUP3 DUP1 SLOAD PUSH2 0x2F2 SWAP1 PUSH2 0x9B9 JUMP JUMPDEST DUP1 ISZERO PUSH2 0x33D JUMPI DUP1 PUSH1 0x1F LT PUSH2 0x314 JUMPI PUSH2 0x100 DUP1 DUP4 SLOAD DIV MUL DUP4 MSTORE SWAP2 PUSH1 0x20 ADD SWAP2 PUSH2 0x33D JUMP JUMPDEST DUP3 ADD SWAP2 SWAP1 PUSH0 MSTORE PUSH1 0x20 PUSH0 KECCAK256 SWAP1 JUMPDEST DUP2 SLOAD DUP2 MSTORE SWAP1 PUSH1 0x1 ADD SWAP1 PUSH1 0x20 ADD DUP1 DUP4 GT PUSH2 0x320 JUMPI DUP3 SWAP1 SUB PUSH1 0x1F AND DUP3 ADD SWAP2 JUMPDEST POP POP POP POP POP DUP2 JUMP JUMPDEST PUSH0 DUP1 PUSH20 0xFFFFFFFFFFFFFFFFFFFFFFFFFFFFFFFFFFFFFFFF AND DUP4 PUSH20 0xFFFFFFFFFFFFFFFFFFFFFFFFFFFFFFFFFFFFFFFF AND SUB PUSH2 0x3B4 JUMPI PUSH1 0x40 MLOAD PUSH32 0x8C379A000000000000000000000000000000000000000000000000000000000 DUP2 MSTORE PUSH1 0x4 ADD PUSH2 0x3AB SWAP1 PUSH2 0xA33 JUMP JUMPDEST PUSH1 0x40 MLOAD DUP1 SWAP2 SUB SWAP1 REVERT JUMPDEST DUP2 PUSH1 0x5 PUSH0 CALLER PUSH20 0xFFFFFFFFFFFFFFFFFFFFFFFFFFFFFFFFFFFFFFFF AND PUSH20 0xFFFFFFFFFFFFFFFFFFFFFFFFFFFFFFFFFFFFFFFF AND DUP2 MSTORE PUSH1 0x20 ADD SWAP1 DUP2 MSTORE PUSH1 0x20 ADD PUSH0 KECCAK256 SLOAD LT ISZERO PUSH2 0x434 JUMPI PUSH1 0x40 MLOAD PUSH32 0x8C379A000000000000000000000000000000000000000000000000000000000 DUP2 MSTORE PUSH1 0x4 ADD PUSH2 0x42B SWAP1 PUSH2 0xA9B JUMP JUMPDEST PUSH1 0x40 MLOAD DUP1 SWAP2 SUB SWAP1 REVERT JUMPDEST DUP2 PUSH1 0x5 PUSH0 CALLER PUSH20 0xFFFFFFFFFFFFFFFFFFFFFFFFFFFFFFFFFFFFFFFF AND PUSH20 0xFFFFFFFFFFFFFFFFFFFFFFFFFFFFFFFFFFFFFFFF AND DUP2 MSTORE PUSH1 0x20 ADD SWAP1 DUP2 MSTORE PUSH1 0x20 ADD PUSH0 KECCAK256 PUSH0 DUP3 DUP3 SLOAD PUSH2 0x480 SWAP2 SWAP1 PUSH2 0xAE6 JUMP JUMPDEST SWAP3 POP POP DUP2 SWAP1 SSTORE POP DUP2 PUSH1 0x5 PUSH0 DUP6 PUSH20 0xFFFFFFFFFFFFFFFFFFFFFFFFFFFFFFFFFFFFFFFF AND PUSH20 0xFFFFFFFFFFFFFFFFFFFFFFFFFFFFFFFFFFFFFFFF AND DUP2 MSTORE PUSH1 0x20 ADD SWAP1 DUP2 MSTORE PUSH1 0x20 ADD PUSH0 KECCAK256 PUSH0 DUP3 DUP3 SLOAD PUSH2 0x4D3 SWAP2 SWAP1 PUSH2 0xB19 JUMP JUMPDEST SWAP3 POP POP DUP2 SWAP1 SSTORE POP DUP3 PUSH20 0xFFFFFFFFFFFFFFFFFFFFFFFFFFFFFFFFFFFFFFFF AND CALLER PUSH20 0xFFFFFFFFFFFFFFFFFFFFFFFFFFFFFFFFFFFFFFFF AND PUSH32 0xDDF252AD1BE2C89B69C2B068FC378DAA952BA7F163C4A11628F55A4DF523B3EF DUP5 PUSH1 0x40 MLOAD PUSH2 0x537 SWAP2 SWAP1 PUSH2 0x7C2 JUMP JUMPDEST PUSH1 0x40 MLOAD DUP1 SWAP2 SUB SWAP1 LOG3 PUSH1 0x1 SWAP1 POP SWAP3 SWAP2 POP POP JUMP JUMPDEST PUSH0 DUP1 PUSH1 0x6 PUSH0 SWAP1 SLOAD SWAP1 PUSH2 0x100 EXP SWAP1 DIV PUSH20 0xFFFFFFFFFFFFFFFFFFFFFFFFFFFFFFFFFFFFFFFF AND PUSH20 0xFFFFFFFFFFFFFFFFFFFFFFFFFFFFFFFFFFFFFFFF AND PUSH4 0xFEAF968C PUSH1 0x40 MLOAD DUP2 PUSH4 0xFFFFFFFF AND PUSH1 0xE0 SHL DUP2 MSTORE PUSH1 0x4 ADD PUSH1 0xA0 PUSH1 0x40 MLOAD DUP1 DUP4 SUB DUP2 DUP7 GAS STATICCALL ISZERO DUP1 ISZERO PUSH2 0x5B5 JUMPI RETURNDATASIZE PUSH0 DUP1 RETURNDATACOPY RETURNDATASIZE PUSH0 REVERT JUMPDEST POP POP POP POP PUSH1 0x40 MLOAD RETURNDATASIZE PUSH1 0x1F NOT PUSH1 0x1F DUP3 ADD AND DUP3 ADD DUP1 PUSH1 0x40 MSTORE POP DUP2 ADD SWAP1 PUSH2 0x5D9 SWAP2 SWAP1 PUSH2 0xBC9 JUMP JUMPDEST POP POP POP SWAP2 POP POP DUP1 SWAP2 POP POP SWAP1 JUMP JUMPDEST PUSH1 0x4 PUSH0 SWAP1 SLOAD SWAP1 PUSH2 0x100 EXP SWAP1 DIV PUSH20 0xFFFFFFFFFFFFFFFFFFFFFFFFFFFFFFFFFFFFFFFF AND PUSH20 0xFFFFFFFFFFFFFFFFFFFFFFFFFFFFFFFFFFFFFFFF AND CALLER PUSH20 0xFFFFFFFFFFFFFFFFFFFFFFFFFFFFFFFFFFFFFFFF AND EQ PUSH2 0x675 JUMPI PUSH1 0x40 MLOAD PUSH32 0x8C379A000000000000000000000000000000000000000000000000000000000 DUP2 MSTORE PUSH1 0x4 ADD PUSH2 0x66C SWAP1 PUSH2 0xCB0 JUMP JUMPDEST PUSH1 0x40 MLOAD DUP1 SWAP2 SUB SWAP1 REVERT JUMPDEST PUSH0 PUSH1 0x2 PUSH0 SWAP1 SLOAD SWAP1 PUSH2 0x100 EXP SWAP1 DIV PUSH1 0xFF AND PUSH1 0xFF AND PUSH1 0xA PUSH2 0x694 SWAP2 SWAP1 PUSH2 0xDFD JUMP JUMPDEST PUSH1 0x2 PUSH2 0x6A0 SWAP2 SWAP1 PUSH2 0xE47 JUMP JUMPDEST SWAP1 POP PUSH32 0xAE46785019700E30375A5D7B4F91E32F8060EF085111F896EBF889450AA2AB5A DUP2 PUSH1 0x40 MLOAD PUSH2 0x6D1 SWAP2 SWAP1 PUSH2 0x7C2 JUMP JUMPDEST PUSH1 0x40 MLOAD DUP1 SWAP2 SUB SWAP1 LOG1 POP JUMP JUMPDEST PUSH0 DUP1 PUSH2 0x6E6 PUSH2 0x549 JUMP JUMPDEST SWAP1 POP PUSH0 PUSH1 0x1 SWAP1 POP DUP1 DUP3 PUSH2 0x6F9 SWAP2 SWAP1 PUSH2 0xE47 JUMP JUMPDEST SWAP3 POP POP POP SWAP1 JUMP JUMPDEST PUSH0 DUP2 MLOAD SWAP1 POP SWAP2 SWAP1 POP JUMP JUMPDEST PUSH0 DUP3 DUP3 MSTORE PUSH1 0x20 DUP3 ADD SWAP1 POP SWAP3 SWAP2 POP POP JUMP JUMPDEST PUSH0 JUMPDEST DUP4 DUP2 LT ISZERO PUSH2 0x737 JUMPI DUP1 DUP3 ADD MLOAD DUP2 DUP5 ADD MSTORE PUSH1 0x20 DUP2 ADD SWAP1 POP PUSH2 0x71C JUMP JUMPDEST PUSH0 DUP5 DUP5 ADD MSTORE POP POP POP POP JUMP JUMPDEST PUSH0 PUSH1 0x1F NOT PUSH1 0x1F DUP4 ADD AND SWAP1 POP SWAP2 SWAP1 POP JUMP JUMPDEST PUSH0 PUSH2 0x75C DUP3 PUSH2 0x700 JUMP JUMPDEST PUSH2 0x766 DUP2 DUP6 PUSH2 0x70A JUMP JUMPDEST SWAP4 POP PUSH2 0x776 DUP2 DUP6 PUSH1 0x20 DUP7 ADD PUSH2 0x71A JUMP JUMPDEST PUSH2 0x77F DUP2 PUSH2 0x742 JUMP JUMPDEST DUP5 ADD SWAP2 POP POP SWAP3 SWAP2 POP POP JUMP JUMPDEST PUSH0 PUSH1 0x20 DUP3 ADD SWAP1 POP DUP2 DUP2 SUB PUSH0 DUP4 ADD MSTORE PUSH2 0x7A2 DUP2 DUP5 PUSH2 0x752 JUMP JUMPDEST SWAP1 POP SWAP3 SWAP2 POP POP JUMP JUMPDEST PUSH0 DUP2 SWAP1 POP SWAP2 SWAP1 POP JUMP JUMPDEST PUSH2 0x7BC DUP2 PUSH2 0x7AA JUMP JUMPDEST DUP3 MSTORE POP POP JUMP JUMPDEST PUSH0 PUSH1 0x20 DUP3 ADD SWAP1 POP PUSH2 0x7D5 PUSH0 DUP4 ADD DUP5 PUSH2 0x7B3 JUMP JUMPDEST SWAP3 SWAP2 POP POP JUMP JUMPDEST PUSH0 PUSH1 0xFF DUP3 AND SWAP1 POP SWAP2 SWAP1 POP JUMP JUMPDEST PUSH2 0x7F0 DUP2 PUSH2 0x7DB JUMP JUMPDEST DUP3 MSTORE POP POP JUMP JUMPDEST PUSH0 PUSH1 0x20 DUP3 ADD SWAP1 POP PUSH2 0x809 PUSH0 DUP4 ADD DUP5 PUSH2 0x7E7 JUMP JUMPDEST SWAP3 SWAP2 POP POP JUMP JUMPDEST PUSH0 DUP1 REVERT JUMPDEST PUSH0 PUSH20 0xFFFFFFFFFFFFFFFFFFFFFFFFFFFFFFFFFFFFFFFF DUP3 AND SWAP1 POP SWAP2 SWAP1 POP JUMP JUMPDEST PUSH0 PUSH2 0x83C DUP3 PUSH2 0x813 JUMP JUMPDEST SWAP1 POP SWAP2 SWAP1 POP JUMP JUMPDEST PUSH2 0x84C DUP2 PUSH2 0x832 JUMP JUMPDEST DUP2 EQ PUSH2 0x856 JUMPI PUSH0 DUP1 REVERT JUMPDEST POP JUMP JUMPDEST PUSH0 DUP2 CALLDATALOAD SWAP1 POP PUSH2 0x867 DUP2 PUSH2 0x843 JUMP JUMPDEST SWAP3 SWAP2 POP POP JUMP JUMPDEST PUSH0 PUSH1 0x20 DUP3 DUP5 SUB SLT ISZERO PUSH2 0x882 JUMPI PUSH2 0x881 PUSH2 0x80F JUMP JUMPDEST JUMPDEST PUSH0 PUSH2 0x88F DUP5 DUP3 DUP6 ADD PUSH2 0x859 JUMP JUMPDEST SWAP2 POP POP SWAP3 SWAP2 POP POP JUMP JUMPDEST PUSH2 0x8A1 DUP2 PUSH2 0x832 JUMP JUMPDEST DUP3 MSTORE POP POP JUMP JUMPDEST PUSH0 PUSH1 0x20 DUP3 ADD SWAP1 POP PUSH2 0x8BA PUSH0 DUP4 ADD DUP5 PUSH2 0x898 JUMP JUMPDEST SWAP3 SWAP2 POP POP JUMP JUMPDEST PUSH2 0x8C9 DUP2 PUSH2 0x7AA JUMP JUMPDEST DUP2 EQ PUSH2 0x8D3 JUMPI PUSH0 DUP1 REVERT JUMPDEST POP JUMP JUMPDEST PUSH0 DUP2 CALLDATALOAD SWAP1 POP PUSH2 0x8E4 DUP2 PUSH2 0x8C0 JUMP JUMPDEST SWAP3 SWAP2 POP POP JUMP JUMPDEST PUSH0 DUP1 PUSH1 0x40 DUP4 DUP6 SUB SLT ISZERO PUSH2 0x900 JUMPI PUSH2 0x8FF PUSH2 0x80F JUMP JUMPDEST JUMPDEST PUSH0 PUSH2 0x90D DUP6 DUP3 DUP7 ADD PUSH2 0x859 JUMP JUMPDEST SWAP3 POP POP PUSH1 0x20 PUSH2 0x91E DUP6 DUP3 DUP7 ADD PUSH2 0x8D6 JUMP JUMPDEST SWAP2 POP POP SWAP3 POP SWAP3 SWAP1 POP JUMP JUMPDEST PUSH0 DUP2 ISZERO ISZERO SWAP1 POP SWAP2 SWAP1 POP JUMP JUMPDEST PUSH2 0x93C DUP2 PUSH2 0x928 JUMP JUMPDEST DUP3 MSTORE POP POP JUMP JUMPDEST PUSH0 PUSH1 0x20 DUP3 ADD SWAP1 POP PUSH2 0x955 PUSH0 DUP4 ADD DUP5 PUSH2 0x933 JUMP JUMPDEST SWAP3 SWAP2 POP POP JUMP JUMPDEST PUSH0 DUP2 SWAP1 POP SWAP2 SWAP1 POP JUMP JUMPDEST PUSH2 0x96D DUP2 PUSH2 0x95B JUMP JUMPDEST DUP3 MSTORE POP POP JUMP JUMPDEST PUSH0 PUSH1 0x20 DUP3 ADD SWAP1 POP PUSH2 0x986 PUSH0 DUP4 ADD DUP5 PUSH2 0x964 JUMP JUMPDEST SWAP3 SWAP2 POP POP JUMP JUMPDEST PUSH32 0x4E487B7100000000000000000000000000000000000000000000000000000000 PUSH0 MSTORE PUSH1 0x22 PUSH1 0x4 MSTORE PUSH1 0x24 PUSH0 REVERT JUMPDEST PUSH0 PUSH1 0x2 DUP3 DIV SWAP1 POP PUSH1 0x1 DUP3 AND DUP1 PUSH2 0x9D0 JUMPI PUSH1 0x7F DUP3 AND SWAP2 POP JUMPDEST PUSH1 0x20 DUP3 LT DUP2 SUB PUSH2 0x9E3 JUMPI PUSH2 0x9E2 PUSH2 0x98C JUMP JUMPDEST JUMPDEST POP SWAP2 SWAP1 POP JUMP JUMPDEST PUSH32 0x496E76616C696420616464726573730000000000000000000000000000000000 PUSH0 DUP3 ADD MSTORE POP JUMP JUMPDEST PUSH0 PUSH2 0xA1D PUSH1 0xF DUP4 PUSH2 0x70A JUMP JUMPDEST SWAP2 POP PUSH2 0xA28 DUP3 PUSH2 0x9E9 JUMP JUMPDEST PUSH1 0x20 DUP3 ADD SWAP1 POP SWAP2 SWAP1 POP JUMP JUMPDEST PUSH0 PUSH1 0x20 DUP3 ADD SWAP1 POP DUP2 DUP2 SUB PUSH0 DUP4 ADD MSTORE PUSH2 0xA4A DUP2 PUSH2 0xA11 JUMP JUMPDEST SWAP1 POP SWAP2 SWAP1 POP JUMP JUMPDEST PUSH32 0x496E73756666696369656E742062616C616E6365000000000000000000000000 PUSH0 DUP3 ADD MSTORE POP JUMP JUMPDEST PUSH0 PUSH2 0xA85 PUSH1 0x14 DUP4 PUSH2 0x70A JUMP JUMPDEST SWAP2 POP PUSH2 0xA90 DUP3 PUSH2 0xA51 JUMP JUMPDEST PUSH1 0x20 DUP3 ADD SWAP1 POP SWAP2 SWAP1 POP JUMP JUMPDEST PUSH0 PUSH1 0x20 DUP3 ADD SWAP1 POP DUP2 DUP2 SUB PUSH0 DUP4 ADD MSTORE PUSH2 0xAB2 DUP2 PUSH2 0xA79 JUMP JUMPDEST SWAP1 POP SWAP2 SWAP1 POP JUMP JUMPDEST PUSH32 0x4E487B7100000000000000000000000000000000000000000000000000000000 PUSH0 MSTORE PUSH1 0x11 PUSH1 0x4 MSTORE PUSH1 0x24 PUSH0 REVERT JUMPDEST PUSH0 PUSH2 0xAF0 DUP3 PUSH2 0x7AA JUMP JUMPDEST SWAP2 POP PUSH2 0xAFB DUP4 PUSH2 0x7AA JUMP JUMPDEST SWAP3 POP DUP3 DUP3 SUB SWAP1 POP DUP2 DUP2 GT ISZERO PUSH2 0xB13 JUMPI PUSH2 0xB12 PUSH2 0xAB9 JUMP JUMPDEST JUMPDEST SWAP3 SWAP2 POP POP JUMP JUMPDEST PUSH0 PUSH2 0xB23 DUP3 PUSH2 0x7AA JUMP JUMPDEST SWAP2 POP PUSH2 0xB2E DUP4 PUSH2 0x7AA JUMP JUMPDEST SWAP3 POP DUP3 DUP3 ADD SWAP1 POP DUP1 DUP3 GT ISZERO PUSH2 0xB46 JUMPI PUSH2 0xB45 PUSH2 0xAB9 JUMP JUMPDEST JUMPDEST SWAP3 SWAP2 POP POP JUMP JUMPDEST PUSH0 PUSH10 0xFFFFFFFFFFFFFFFFFFFF DUP3 AND SWAP1 POP SWAP2 SWAP1 POP JUMP JUMPDEST PUSH2 0xB6A DUP2 PUSH2 0xB4C JUMP JUMPDEST DUP2 EQ PUSH2 0xB74 JUMPI PUSH0 DUP1 REVERT JUMPDEST POP JUMP JUMPDEST PUSH0 DUP2 MLOAD SWAP1 POP PUSH2 0xB85 DUP2 PUSH2 0xB61 JUMP JUMPDEST SWAP3 SWAP2 POP POP JUMP JUMPDEST PUSH2 0xB94 DUP2 PUSH2 0x95B JUMP JUMPDEST DUP2 EQ PUSH2 0xB9E JUMPI PUSH0 DUP1 REVERT JUMPDEST POP JUMP JUMPDEST PUSH0 DUP2 MLOAD SWAP1 POP PUSH2 0xBAF DUP2 PUSH2 0xB8B JUMP JUMPDEST SWAP3 SWAP2 POP POP JUMP JUMPDEST PUSH0 DUP2 MLOAD SWAP1 POP PUSH2 0xBC3 DUP2 PUSH2 0x8C0 JUMP JUMPDEST SWAP3 SWAP2 POP POP JUMP JUMPDEST PUSH0 DUP1 PUSH0 DUP1 PUSH0 PUSH1 0xA0 DUP7 DUP9 SUB SLT ISZERO PUSH2 0xBE2 JUMPI PUSH2 0xBE1 PUSH2 0x80F JUMP JUMPDEST JUMPDEST PUSH0 PUSH2 0xBEF DUP9 DUP3 DUP10 ADD PUSH2 0xB77 JUMP JUMPDEST SWAP6 POP POP PUSH1 0x20 PUSH2 0xC00 DUP9 DUP3 DUP10 ADD PUSH2 0xBA1 JUMP JUMPDEST SWAP5 POP POP PUSH1 0x40 PUSH2 0xC11 DUP9 DUP3 DUP10 ADD PUSH2 0xBB5 JUMP JUMPDEST SWAP4 POP POP PUSH1 0x60 PUSH2 0xC22 DUP9 DUP3 DUP10 ADD PUSH2 0xBB5 JUMP JUMPDEST SWAP3 POP POP PUSH1 0x80 PUSH2 0xC33 DUP9 DUP3 DUP10 ADD PUSH2 0xB77 JUMP JUMPDEST SWAP2 POP POP SWAP3 SWAP6 POP SWAP3 SWAP6 SWAP1 SWAP4 POP JUMP JUMPDEST PUSH32 0x4F6E6C7920746865206F776E65722063616E2063616C6C20746869732066756E PUSH0 DUP3 ADD MSTORE PUSH32 0x6374696F6E000000000000000000000000000000000000000000000000000000 PUSH1 0x20 DUP3 ADD MSTORE POP JUMP JUMPDEST PUSH0 PUSH2 0xC9A PUSH1 0x25 DUP4 PUSH2 0x70A JUMP JUMPDEST SWAP2 POP PUSH2 0xCA5 DUP3 PUSH2 0xC40 JUMP JUMPDEST PUSH1 0x40 DUP3 ADD SWAP1 POP SWAP2 SWAP1 POP JUMP JUMPDEST PUSH0 PUSH1 0x20 DUP3 ADD SWAP1 POP DUP2 DUP2 SUB PUSH0 DUP4 ADD MSTORE PUSH2 0xCC7 DUP2 PUSH2 0xC8E JUMP JUMPDEST SWAP1 POP SWAP2 SWAP1 POP JUMP JUMPDEST PUSH0 DUP2 PUSH1 0x1 SHR SWAP1 POP SWAP2 SWAP1 POP JUMP JUMPDEST PUSH0 DUP1 DUP3 SWAP2 POP DUP4 SWAP1 POP JUMPDEST PUSH1 0x1 DUP6 GT ISZERO PUSH2 0xD23 JUMPI DUP1 DUP7 DIV DUP2 GT ISZERO PUSH2 0xCFF JUMPI PUSH2 0xCFE PUSH2 0xAB9 JUMP JUMPDEST JUMPDEST PUSH1 0x1 DUP6 AND ISZERO PUSH2 0xD0E JUMPI DUP1 DUP3 MUL SWAP2 POP JUMPDEST DUP1 DUP2 MUL SWAP1 POP PUSH2 0xD1C DUP6 PUSH2 0xCCE JUMP JUMPDEST SWAP5 POP PUSH2 0xCE3 JUMP JUMPDEST SWAP5 POP SWAP5 SWAP3 POP POP POP JUMP JUMPDEST PUSH0 DUP3 PUSH2 0xD3B JUMPI PUSH1 0x1 SWAP1 POP PUSH2 0xDF6 JUMP JUMPDEST DUP2 PUSH2 0xD48 JUMPI PUSH0 SWAP1 POP PUSH2 0xDF6 JUMP JUMPDEST DUP2 PUSH1 0x1 DUP2 EQ PUSH2 0xD5E JUMPI PUSH1 0x2 DUP2 EQ PUSH2 0xD68 JUMPI PUSH2 0xD97 JUMP JUMPDEST PUSH1 0x1 SWAP2 POP POP PUSH2 0xDF6 JUMP JUMPDEST PUSH1 0xFF DUP5 GT ISZERO PUSH2 0xD7A JUMPI PUSH2 0xD79 PUSH2 0xAB9 JUMP JUMPDEST JUMPDEST DUP4 PUSH1 0x2 EXP SWAP2 POP DUP5 DUP3 GT ISZERO PUSH2 0xD91 JUMPI PUSH2 0xD90 PUSH2 0xAB9 JUMP JUMPDEST JUMPDEST POP PUSH2 0xDF6 JUMP JUMPDEST POP PUSH1 0x20 DUP4 LT PUSH2 0x133 DUP4 LT AND PUSH1 0x4E DUP5 LT PUSH1 0xB DUP5 LT AND OR ISZERO PUSH2 0xDCC JUMPI DUP3 DUP3 EXP SWAP1 POP DUP4 DUP2 GT ISZERO PUSH2 0xDC7 JUMPI PUSH2 0xDC6 PUSH2 0xAB9 JUMP JUMPDEST JUMPDEST PUSH2 0xDF6 JUMP JUMPDEST PUSH2 0xDD9 DUP5 DUP5 DUP5 PUSH1 0x1 PUSH2 0xCDA JUMP JUMPDEST SWAP3 POP SWAP1 POP DUP2 DUP5 DIV DUP2 GT ISZERO PUSH2 0xDF0 JUMPI PUSH2 0xDEF PUSH2 0xAB9 JUMP JUMPDEST JUMPDEST DUP2 DUP2 MUL SWAP1 POP JUMPDEST SWAP4 SWAP3 POP POP POP JUMP JUMPDEST PUSH0 PUSH2 0xE07 DUP3 PUSH2 0x7AA JUMP JUMPDEST SWAP2 POP PUSH2 0xE12 DUP4 PUSH2 0x7AA JUMP JUMPDEST SWAP3 POP PUSH2 0xE3F PUSH32 0xFFFFFFFFFFFFFFFFFFFFFFFFFFFFFFFFFFFFFFFFFFFFFFFFFFFFFFFFFFFFFFFF DUP5 DUP5 PUSH2 0xD2C JUMP JUMPDEST SWAP1 POP SWAP3 SWAP2 POP POP JUMP JUMPDEST PUSH0 PUSH2 0xE51 DUP3 PUSH2 0x7AA JUMP JUMPDEST SWAP2 POP PUSH2 0xE5C DUP4 PUSH2 0x7AA JUMP JUMPDEST SWAP3 POP DUP3 DUP3 MUL PUSH2 0xE6A DUP2 PUSH2 0x7AA JUMP JUMPDEST SWAP2 POP DUP3 DUP3 DIV DUP5 EQ DUP4 ISZERO OR PUSH2 0xE81 JUMPI PUSH2 0xE80 PUSH2 0xAB9 JUMP JUMPDEST JUMPDEST POP SWAP3 SWAP2 POP POP JUMP INVALID LOG2 PUSH5 0x6970667358 0x22 SLT KECCAK256 0x4B XOR 0xB7 SGT DUP1 0xD1 INVALID 0x4C 0xBC 0xC EXTCODESIZE 0xB3 CALLCODE BYTE EXP DUP1 SWAP9 0xDC SELFBALANCE 0xED 0xAA 0xD2 SWAP4 TIMESTAMP LOG2 EXTCODECOPY DUP15 DUP10 XOR 0xB8 NUMBER ISZERO PUSH5 0x736F6C6343 STOP ADDMOD EQ STOP CALLER "
				},
				"gasEstimates": {
					"creation": {
						"codeDepositCost": "754800",
						"executionCost": "infinite",
						"totalCost": "infinite"
					},
					"external": {
						"balanceOf(address)": "2869",
						"decimals()": "2511",
						"getETHPriceInUSD()": "infinite",
						"getSweatPriceInUSD()": "infinite",
						"name()": "infinite",
						"owner()": "2597",
						"symbol()": "infinite",
						"totalSupply()": "2448",
						"transfer(address,uint256)": "infinite",
						"updateSweatPrice()": "infinite"
					}
				},
				"methodIdentifiers": {
					"balanceOf(address)": "70a08231",
					"decimals()": "313ce567",
					"getETHPriceInUSD()": "b62e3c5a",
					"getSweatPriceInUSD()": "ef29af93",
					"name()": "06fdde03",
					"owner()": "8da5cb5b",
					"symbol()": "95d89b41",
					"totalSupply()": "18160ddd",
					"transfer(address,uint256)": "a9059cbb",
					"updateSweatPrice()": "d7535c4d"
				}
			},
			"storageLayout": {
				"storage": [
					{
						"astId": 130,
						"contract": "Hackathon/SweatToken.sol:SweatToken",
						"label": "name",
						"offset": 0,
						"slot": "0",
						"type": "t_string_storage"
					},
					{
						"astId": 133,
						"contract": "Hackathon/SweatToken.sol:SweatToken",
						"label": "symbol",
						"offset": 0,
						"slot": "1",
						"type": "t_string_storage"
					},
					{
						"astId": 136,
						"contract": "Hackathon/SweatToken.sol:SweatToken",
						"label": "decimals",
						"offset": 0,
						"slot": "2",
						"type": "t_uint8"
					},
					{
						"astId": 138,
						"contract": "Hackathon/SweatToken.sol:SweatToken",
						"label": "totalSupply",
						"offset": 0,
						"slot": "3",
						"type": "t_uint256"
					},
					{
						"astId": 140,
						"contract": "Hackathon/SweatToken.sol:SweatToken",
						"label": "owner",
						"offset": 0,
						"slot": "4",
						"type": "t_address"
					},
					{
						"astId": 144,
						"contract": "Hackathon/SweatToken.sol:SweatToken",
						"label": "balanceOf",
						"offset": 0,
						"slot": "5",
						"type": "t_mapping(t_address,t_uint256)"
					},
					{
						"astId": 147,
						"contract": "Hackathon/SweatToken.sol:SweatToken",
						"label": "priceFeed",
						"offset": 0,
						"slot": "6",
						"type": "t_contract(AggregatorV3Interface)45"
					}
				],
				"types": {
					"t_address": {
						"encoding": "inplace",
						"label": "address",
						"numberOfBytes": "20"
					},
					"t_contract(AggregatorV3Interface)45": {
						"encoding": "inplace",
						"label": "contract AggregatorV3Interface",
						"numberOfBytes": "20"
					},
					"t_mapping(t_address,t_uint256)": {
						"encoding": "mapping",
						"key": "t_address",
						"label": "mapping(address => uint256)",
						"numberOfBytes": "32",
						"value": "t_uint256"
					},
					"t_string_storage": {
						"encoding": "bytes",
						"label": "string",
						"numberOfBytes": "32"
					},
					"t_uint256": {
						"encoding": "inplace",
						"label": "uint256",
						"numberOfBytes": "32"
					},
					"t_uint8": {
						"encoding": "inplace",
						"label": "uint8",
						"numberOfBytes": "1"
					}
				}
			},
			"userdoc": {
				"kind": "user",
				"methods": {},
				"version": 1
			}
		}
	}
}